:020000040800F2
:1000000000500020252C00081D2700081F2700088D
:1000100021270008232700082527000800000000EA
:10002000000000000000000000000000272700087A
:1000300029270008000000002B2700082D270008B2
:100040006D2C00086D2C00086D2C00086D2C00082C
:100050006D2C00086D2C00086D2C00086D2C00081C
:100060006D2C00086D2C00086D2C00086D2C00080C
:100070006D2C00086D2C00086D2C00086D2C0008FC
:100080006D2C00086D2C00086D2C00086D2C0008EC
:100090006D2C00086D2C00086D2C00086D2C0008DC
:1000A0006D2C00086D2C00086D2C00086D2C0008CC
:1000B0006D2C00086D2C00086D2C00086D2C0008BC
:1000C0006D2C00086D2C00086D2C00086D2C0008AC
:1000D0006D2C00086D2C00086D2C000831270008DD
:1000E0003D2700086D2C00086D2C00080000000062
:1000F0000000000000000000000000000000000000
:0C01000000000000000000005FF808F1A3
:1001100010B5054C237833B9044B13B10448AFF341
:1001200000800123237010BDEC00002000000000BF
:100130002C9D000808B5034B1BB103490348AFF3DE
:10014000008008BD00000000F00000202C9D000889
:1001500081F0004102E000BF83F0004330B54FEA78
:1001600041044FEA430594EA050F08BF90EA020FE5
:100170001FBF54EA000C55EA020C7FEA645C7FEA78
:10018000655C00F0E2804FEA5454D4EB5555B8BF9B
:100190006D420CDD2C4480EA020281EA030382EA0C
:1001A000000083EA010180EA020281EA0303362D9E
:1001B00088BF30BD11F0004F4FEA01314FF4801C71
:1001C0004CEA113102D0404261EB410113F0004F83
:1001D0004FEA03334CEA133302D0524263EB43033A
:1001E00094EA050F00F0A780A4F10104D5F1200ED8
:1001F0000DDB02FA0EFC22FA05F2801841F1000133
:1002000003FA0EF2801843FA05F359410EE0A5F106
:1002100020050EF1200E012A03FA0EFC28BF4CF037
:10022000020C43FA05F3C01851EBE37101F00045ED
:1002300007D54FF0000EDCF1000C7EEB00006EEBFA
:100240000101B1F5801F1BD3B1F5001F0CD3490884
:100250005FEA30004FEA3C0C04F101044FEA4452DB
:1002600012F5800F80F09A80BCF1004F08BF5FEA62
:10027000500C50F1000041EB045141EA050130BD42
:100280005FEA4C0C404141EB0101013C28BFB1F554
:10029000801FE9D291F0000F04BF01460020B1FA9F
:1002A00081F308BF2033A3F10B03B3F120020CDA72
:1002B0000C3208DD02F1140CC2F10C0201FA0CF050
:1002C00021FA02F10CE002F11402D8BFC2F1200CB5
:1002D00001FA02F120FA0CFCDCBF41EA0C0190406B
:1002E000E41AA2BF01EB0451294330BD6FEA0404B4
:1002F0001F3C1CDA0C340EDC04F11404C4F120029F
:1003000020FA04F001FA02F340EA030021FA04F3B0
:1003100045EA030130BDC4F10C04C4F1200220FA07
:1003200002F001FA04F340EA0300294630BD21FA45
:1003300004F0294630BD94F0000F83F4801306BF0B
:1003400081F480110134013D4EE77FEA645C18BFFF
:100350007FEA655C29D094EA050F08BF90EA020F96
:1003600005D054EA000C04BF1946104630BD91EA8E
:10037000030F1EBF0021002030BD5FEA545C05D191
:100380004000494128BF41F0004130BD14F58004D0
:100390003CBF01F5801130BD01F0004545F0FE4144
:1003A00041F470014FF0000030BD7FEA645C1ABF79
:1003B000194610467FEA655C1CBF0B46024650EAB0
:1003C000013406BF52EA033591EA030F41F40021DC
:1003D00030BD00BF90F0000F04BF0021704730B562
:1003E0004FF4806404F132044FF000054FF0000137
:1003F00050E700BF90F0000F04BF0021704730B5F8
:100400004FF4806404F1320410F0004548BF4042CC
:100410004FF000013EE700BF42004FEAE2014FEA21
:1004200031014FEA02701FBF12F07F4393F07F4FFC
:1004300081F06051704732F07F4208BF704793F0FF
:100440007F4F04BF41F40021704730B54FF4607412
:1004500001F0004521F000411CE700BF50EA010215
:1004600008BF704730B54FF000050AE050EA0102BE
:1004700008BF704730B511F0004502D5404261EB2E
:1004800041014FF4806404F132045FEA915C3FF46F
:10049000D8AE4FF003025FEADC0C18BF03325FEA0C
:1004A000DC0C18BF033202EBDC02C2F1200300FABD
:1004B00003FC20FA02F001FA03FE40EA0E0021FAE2
:1004C00002F11444BDE600BF70B54FF0FF0C4CF4D0
:1004D000E06C1CEA11541DBF1CEA135594EA0C0F82
:1004E00095EA0C0F00F0DEF82C4481EA030621EABD
:1004F0004C5123EA4C5350EA013518BF52EA0335F8
:1005000041F4801143F4801338D0A0FB02CE4FF0A9
:100510000005E1FB02E506F00042E0FB03E54FF0D9
:100520000006E1FB03569CF0000F18BF4EF0010ED1
:10053000A4F1FF04B6F5007F64F5407404D25FEACD
:100540004E0E6D4146EB060642EAC62141EA555180
:100550004FEAC52040EA5E504FEACE2EB4F1FD0CC2
:1005600088BFBCF5E06F1ED8BEF1004F08BF5FEA40
:10057000500E50F1000041EB045170BD06F00046F2
:1005800046EA010140EA020081EA0301B4EB5C049F
:10059000C2BFD4EB0C0541EA045170BD41F4801197
:1005A0004FF0000E013C00F3AB8014F1360FDEBFBC
:1005B000002001F0004170BDC4F10004203C35DA98
:1005C0000C341BDC04F11404C4F1200500FA05F31B
:1005D00020FA04F001FA05F240EA020001F00042BC
:1005E00021F0004110EBD37021FA04F642EB060132
:1005F0005EEA430E08BF20EAD37070BDC4F10C045C
:10060000C4F1200500FA04F320FA05F001FA04F21F
:1006100040EA020001F0004110EBD37041F100010B
:100620005EEA430E08BF20EAD37070BDC4F1200516
:1006300000FA05F24EEA020E20FA04F301FA05F27E
:1006400043EA020321FA04F001F0004121FA04F226
:1006500020EA020000EBD3705EEA430E08BF20EAF6
:10066000D37070BD94F0000F0FD101F00046400030
:1006700041EB010111F4801F08BF013CF7D041EAB2
:10068000060195F0000F18BF704703F000465200B6
:1006900043EB030313F4801F08BF013DF7D043EA87
:1006A0000603704794EA0C0F0CEA135518BF95EA3D
:1006B0000C0F0CD050EA410618BF52EA4306D1D1C4
:1006C00081EA030101F000414FF0000070BD50EAE3
:1006D000410606BF1046194652EA430619D094EA6D
:1006E0000C0F02D150EA013613D195EA0C0F05D157
:1006F00052EA03361CBF104619460AD181EA0301AB
:1007000001F0004141F0FE4141F470014FF0000062
:1007100070BD41F0FE4141F4780170BD70B54FF0FD
:10072000FF0C4CF4E06C1CEA11541DBF1CEA13557D
:1007300094EA0C0F95EA0C0F00F0A7F8A4EB05045F
:1007400081EA030E52EA03354FEA013100F0888056
:100750004FEA03334FF0805545EA131343EA12631F
:100760004FEA022245EA111545EA10654FEA0026D4
:100770000EF000419D4208BF964244F1FD0404F58D
:10078000407402D25B084FEA3202B61A65EB0305E9
:100790005B084FEA32024FF480104FF4002CB6EBA6
:1007A000020E75EB030E22BFB61A754640EA0C0026
:1007B0005B084FEA3202B6EB020E75EB030E22BF66
:1007C000B61A754640EA5C005B084FEA3202B6EBA7
:1007D000020E75EB030E22BFB61A754640EA9C0066
:1007E0005B084FEA3202B6EB020E75EB030E22BF36
:1007F000B61A754640EADC0055EA060E18D04FEAF4
:10080000051545EA16754FEA06164FEAC30343EA93
:1008100052734FEAC2025FEA1C1CC0D111F4801F60
:100820000BD141EA00014FF000004FF0004CB6E759
:1008300011F4801F04BF01430020B4F1FD0C88BFF8
:10084000BCF5E06F3FF6AFAEB5EB030C04BFB6EB03
:10085000020C5FEA500C50F1000041EB045170BDF6
:100860000EF0004E4EEA113114EB5C04C2BFD4EB23
:100870000C0541EA045170BD41F480114FF0000EA7
:10088000013C90E645EA060E8DE60CEA135594EA23
:100890000C0F08BF95EA0C0F3FF43BAF94EA0C0F26
:1008A0000AD150EA01347FF434AF95EA0C0F7FF49B
:1008B00025AF104619462CE795EA0C0F06D152EAEF
:1008C00003353FF4FDAE1046194622E750EA4106D3
:1008D00018BF52EA43067FF4C5AE50EA41047FF4E4
:1008E0000DAF52EA43057FF4EBAE12E74FF0FF3C49
:1008F00006E000BF4FF0010C02E000BF4FF0010C1A
:100900004DF804CD4FEA410C7FEA6C5C4FEA430C92
:1009100018BF7FEA6C5C1BD001B050EA410C0CBFE1
:1009200052EA430C91EA030F02BF90EA020F002043
:10093000704710F1000F91EA030F58BF994208BFAA
:1009400090422CBFD8176FEAE37040F00100704767
:100950004FEA410C7FEA6C5C02D150EA013C07D1BE
:100960004FEA430C7FEA6C5CD6D152EA033CD3D009
:100970005DF8040B704700BF8446104662468C4603
:100980001946634600E000BF01B5FFF7B7FF002836
:1009900048BF10F1000F01BD4DF808EDFFF7F4FF5F
:1009A0000CBF012000205DF808FB00BF4DF808EDEA
:1009B000FFF7EAFF34BF012000205DF808FB00BF0D
:1009C0004DF808EDFFF7E0FF94BF012000205DF82F
:1009D00008FB00BF4DF808EDFFF7CEFF94BF0120E4
:1009E00000205DF808FB00BF4DF808EDFFF7C4FFDD
:1009F00034BF012000205DF808FB00BF4FEA410C26
:100A00007FEA6C5C02D150EA013C0AD14FEA430C08
:100A10007FEA6C5C02D152EA033C02D14FF0000045
:100A200070474FF0010070474FEA410212F5001283
:100A300015D211D56FF47873B3EB625212D94FEA25
:100A4000C12343F0004343EA505311F0004F23FA0F
:100A500002F018BF404270474FF00000704750EA64
:100A6000013005D111F0004008BF6FF00040704721
:100A70004FF00000704700BF4FEA4102B2F1E0437F
:100A800024BFB3F5001CDCF1FE5C0DD901F0004C75
:100A90004FEAC0024CEA5070B2F1004F40EB8300C5
:100AA00008BF20F00100704711F0804F21D113F1F1
:100AB0003872BCBF01F00040704741F480114FEA2A
:100AC0005252C2F11802C2F1200C10FA0CF320FAB3
:100AD00002F018BF40F001004FEAC1234FEAD323D0
:100AE00003FA0CFC40EA0C0023FA02F34FEA43033A
:100AF000CCE77FEA625307D150EA01331EBF4FF0C3
:100B0000FE4040F44000704701F0004040F0FE40DD
:100B100040F40000704700BF80F0004002E000BFDA
:100B200081F0004142001FBF5FEA410392EA030FD8
:100B30007FEA226C7FEA236C6AD04FEA1262D2EB22
:100B40001363C1BFD218414048404140B8BF5B4227
:100B5000192B88BF704710F0004F40F4000020F0C0
:100B60007F4018BF404211F0004F41F4000121F0D6
:100B70007F4118BF494292EA030F3FD0A2F1010220
:100B800041FA03FC10EB0C00C3F1200301FA03F15E
:100B900000F0004302D5494260EB4000B0F5000F81
:100BA00013D3B0F1807F06D340084FEA310102F140
:100BB0000102FE2A51D2B1F1004F40EBC25008BFF2
:100BC00020F0010040EA03007047490040EB0000BC
:100BD000013A28BFB0F5000FEDD2B0FA80FCACF1BD
:100BE000080CB2EB0C0200FA0CF0AABF00EBC250EA
:100BF00052421843BCBFD0401843704792F0000FD8
:100C000081F4000106BF80F400000132013BB5E72A
:100C10004FEA41037FEA226C18BF7FEA236C21D0A0
:100C200092EA030F04D092F0000F08BF0846704705
:100C300090EA010F1CBF0020704712F07F4F04D1D3
:100C4000400028BF40F00040704712F100723CBFE6
:100C500000F50000704700F0004343F0FE4040F410
:100C6000000070477FEA226216BF08467FEA2363CE
:100C70000146420206BF5FEA412390EA010F40F4B9
:100C8000800070474FF0000304E000BF10F0004305
:100C900048BF40425FEA000C08BF704743F09643EC
:100CA00001464FF000001CE050EA010208BF704707
:100CB0004FF000030AE000BF50EA010208BF70478E
:100CC00011F0004302D5404261EB41015FEA010CA3
:100CD00002BF84460146002043F0B64308BFA3F19B
:100CE0008053A3F50003BCFA8CF2083AA3EBC2537D
:100CF00010DB01FA02FC634400FA02FCC2F120029C
:100D0000BCF1004F20FA02F243EB020008BF20F0D2
:100D10000100704702F1200201FA02FCC2F1200238
:100D200050EA4C0021FA02F243EB020008BF20EA2D
:100D3000DC7070474FF0FF0C1CEAD0521EBF1CEA5B
:100D4000D15392EA0C0F93EA0C0F6FD01A4480EA49
:100D5000010C400218BF5FEA41211ED04FF0006332
:100D600043EA501043EA5111A0FB01310CF000405E
:100D7000B1F5000F3EBF490041EAD3715B0040EA84
:100D8000010062F17F02FD2A1DD8B3F1004F40EB54
:100D9000C25008BF20F00100704790F0000F0CF027
:100DA000004C08BF49024CEA502040EA51207F3AEB
:100DB000C2BFD2F1FF0340EAC250704740F40000C6
:100DC0004FF00003013A5DDC12F1190FDCBF00F0B7
:100DD00000407047C2F10002410021FA02F1C2F165
:100DE000200200FA02FC5FEA310040F1000053EA01
:100DF0004C0308BF20EADC70704792F0000F00F04F
:100E0000004C02BF400010F4000F013AF9D040EA54
:100E10000C0093F0000F01F0004C02BF490011F4E8
:100E2000000F013BF9D041EA0C018FE70CEAD153E6
:100E300092EA0C0F18BF93EA0C0F0AD030F0004C66
:100E400018BF31F0004CD8D180EA010000F000401A
:100E5000704790F0000F17BF90F0004F084691F0D8
:100E6000000F91F0004F14D092EA0C0F01D1420212
:100E70000FD193EA0C0F03D14B0218BF084608D1DB
:100E800080EA010000F0004040F0FE4040F4000025
:100E9000704740F0FE4040F4400070474FF0FF0CB8
:100EA0001CEAD0521EBF1CEAD15392EA0C0F93EAFF
:100EB0000C0F69D0A2EB030280EA010C49024FEA51
:100EC000402037D04FF0805343EA111143EA10130A
:100ED0000CF000408B4238BF5B0042F17D024FF4C2
:100EE000000C8B4224BF5B1A40EA0C00B3EB510F9D
:100EF00024BFA3EB510340EA5C00B3EB910F24BF86
:100F0000A3EB910340EA9C00B3EBD10F24BFA3EB0A
:100F1000D10340EADC001B0118BF5FEA1C1CE0D1D2
:100F2000FD2A3FF650AF8B4240EBC25008BF20F085
:100F3000010070470CF0004C4CEA50207F32C2BFD9
:100F4000D2F1FF0340EAC250704740F400004FF076
:100F50000003013A37E792F0000F00F0004C02BFA7
:100F6000400010F4000F013AF9D040EA0C0093F071
:100F7000000F01F0004C02BF490011F4000F013BCB
:100F8000F9D041EA0C0195E70CEAD15392EA0C0F33
:100F900008D142027FF47DAF93EA0C0F7FF470AF6B
:100FA000084676E793EA0C0F04D14B023FF44CAFAE
:100FB00008466EE730F0004C18BF31F0004CCAD143
:100FC00030F000427FF45CAF31F000437FF43CAF7F
:100FD0005FE700BF4FF0FF3C06E000BF4FF0010CA1
:100FE00002E000BF4FF0010C4DF804CD4FEA400283
:100FF0004FEA41037FEA226C18BF7FEA236C11D0CD
:1010000001B052EA530C18BF90EA010F58BFB2EB7F
:10101000030088BFC81738BF6FEAE17018BF40F0FF
:10102000010070477FEA226C02D15FEA402C05D1B3
:101030007FEA236CE4D15FEA412CE1D05DF8040B38
:10104000704700BF844608466146FFE70FB5FFF7CB
:10105000C9FF002848BF10F1000F0FBD4DF808ED83
:10106000FFF7F4FF0CBF012000205DF808FB00BF74
:101070004DF808EDFFF7EAFF34BF012000205DF8CE
:1010800008FB00BF4DF808EDFFF7E0FF94BF01201B
:1010900000205DF808FB00BF4DF808EDFFF7D2FF18
:1010A00094BF012000205DF808FB00BF4DF808ED5B
:1010B000FFF7C8FF34BF012000205DF808FB00BF28
:1010C0004FEA4002B2F1FE4F0FD34FF09E03B3EB55
:1010D00012620DD94FEA002343F0004310F0004F95
:1010E00023FA02F018BF404270474FF000007047EB
:1010F00012F1610F01D1420205D110F0004008BF8A
:101100006FF0004070474FF00000704742000ED271
:10111000B2F1FE4F0BD34FF09E03B3EB126209D432
:101120004FEA002343F0004323FA02F070474FF0E8
:101130000000704712F1610F01D1420202D14FF05D
:10114000FF3070474FF00000704700BF7BB972B9A5
:101150000029BEBF00204FF0004106E008BF002874
:101160001CBF6FF000414FF0FF3000F0A9B9ADF1A6
:10117000080C6DE904CE002909DB002B1ADB00F016
:1011800035F8DDF804E0DDE9022304B070474042A1
:1011900061EB4101002B1BDB00F028F8DDF804E0D7
:1011A000DDE9022304B0404261EB4101524263EBAE
:1011B00043037047524263EB430300F017F8DDF836
:1011C00004E0DDE9022304B0404261EB41017047D5
:1011D000524263EB430300F009F8DDF804E0DDE977
:1011E000022304B0524263EB430370472DE9F047FA
:1011F000089E0D4604468846002B4DD18A429446EF
:1012000068D9B2FA82F252B101FA02F3C2F12001B6
:1012100020FA01F10CFA02FC41EA030894404FEA7B
:101220001C41B8FBF1F71FFA8CFE01FB178807FB86
:101230000EF0230C43EA084398420AD91CEB03033F
:1012400007F1FF3580F01E81984240F21B81023F7A
:1012500063441B1AB3FBF1F001FB103300FB0EFEDD
:10126000A4B244EA0344A6450AD91CEB040400F1E5
:10127000FF3380F00981A64540F2068164440238BC
:101280000021A4EB0E0440EA07401EB10023D44025
:10129000C6E90043BDE8F0878B4208D9002E00F074
:1012A000EE800021C6E900050846BDE8F087B3FAE4
:1012B00083F100294AD1AB4202D3824200F2FC8082
:1012C000841A65EB030301209846002EE2D0C6E99C
:1012D0000048DFE702B9FFDEB2FA82F2002A40F0EE
:1012E0009180A1EB0C0001214FEA1C471FFA8CFEF4
:1012F000B0FBF7F307FB1300250C45EA00450EFB96
:1013000003F0A84208D91CEB050503F1FF3802D20F
:10131000A84200F2CE8043462D1AB5FBF7F007FB3A
:1013200010550EFB00FEA4B244EA0544A64508D9B8
:101330001CEB040400F1FF3502D2A64500F2B68092
:101340002846A4EB0E0440EA03409EE7C1F12007C3
:101350008B4022FA07FC4CEA030C25FA07FA4FEA05
:101360001C49BAFBF9F820FA07F309FB18AA8D40CB
:101370001FFA8CFE1D4300FA01F308FB0EF02C0C43
:1013800044EA0A44A04202FA01F20BD91CEB04041D
:1013900008F1FF3A80F08880A04240F28580A8F1F1
:1013A00002086444241AB4FBF9F009FB104400FB62
:1013B0000EFEADB245EA0444A64508D91CEB040470
:1013C00000F1FF356CD2A6456AD90238644440EA80
:1013D0000840A0FB0295A4EB0E04AC42C846AE4602
:1013E00056D353D0002E69D0B3EB080264EB0E0441
:1013F00022FA01F304FA07F71F43CC40C6E9007450
:10140000002147E70CFA02FCC2F1200125FA01F3A2
:101410004FEA1C4720FA01F195400D43B3FBF7F169
:1014200007FB11331FFA8CFE280C40EA034001FB36
:101430000EF3834204FA02F408D91CEB000001F118
:10144000FF382FD283422DD902396044C01AB0FB35
:10145000F7F307FB1300ADB245EA004503FB0EF0BE
:10146000A84208D91CEB050503F1FF3816D2A842A3
:1014700014D9023B6544281A43EA014138E7314652
:10148000304607E72F46E4E61846F9E64B45A9D271
:10149000B9EB020865EB0C0E0138A3E74346EAE717
:1014A000284694E74146D1E7D0467BE764440238BA
:1014B00047E7023B65442FE7084606E73146E9E681
:1014C000704700BF28B3012823D0022821D0032869
:1014D0001FD004281DD005281BD0062819D00728A6
:1014E00017D0082815D0092812D00A2811D00B28A7
:1014F0000FD00C280DD00D280BD00E2809D00F28A6
:1015000007D0102805D0112814BF002011207047E3
:10151000092070471FB5FFF7D5FF01230190039104
:101520000D4801A9029301F071FC08B101F060F8C7
:10153000094801F027FDC821074801F0B7FB06481C
:1015400001F0E2FC10F4007003D0034801F05AFCF3
:1015500080B205B05DF804FB5805002000000000D3
:1015600008B507210820FFF7D5FFFEF743FF0CA3BE
:10157000D3E90023FEF7A8FF00220B4BFEF7A4FFE0
:1015800000220A4BFEF7A0FF0022094BFEF79CFF4A
:10159000FFF74AFA40F2EC439842A8BF184608BD4C
:1015A0006666666666660A4000002640000059408E
:1015B0000000303F4FF0E02210B50024D2F8FC3D8F
:1015C00043F08073C2F8FC3D074B1A685C6042F040
:1015D00001021A6002F0ACF9044BB0FBF3F0044BCB
:1015E0001860204610BD00BF001000E040420F0010
:1015F00008010020054B10B55C6802F099F94FF422
:101600007A73B0FBF3F0B4FBF0F010BD001000E013
:1016100070B50446FFF7EEFF0026054602F088F994
:101620004FF47A723346B0FBF2F200214FF0FF30F4
:10163000FFF78CFD844276EB0103B8BF174B4FF4E4
:101640007A76BCBF1B78E41802F072F90023B0FB75
:10165000F6F200214FF0FF30FFF778FD2C44A04256
:1016600071F100030ADA02F063F90023B0FBF6F22D
:101670004FF0FF310120FFF769FD0444AC4204D96B
:10168000FFF7B8FFA042FBD370BDFFF7B3FFA04246
:10169000FBD8FFF7AFFFA042FBD3F5E72400002003
:1016A0000B4B0C495A68096801FB0020904205D990
:1016B00000BF5A689042FBD8704700BF5A689042FA
:1016C000FBD3034A5368834200D3704700BFF9E756
:1016D000001000E00801002008B54FF0E0231A696F
:1016E00022F004021A611A6922F002021A6102F061
:1016F0001FF9074BB0FBF3F0064B80B21880C0EB2C
:10170000401300EB8300044BC000188008BD00BFED
:1017100000127A000E0100200C0100200B4B002269
:101720001B8858434FF0E02358619A611A6942F0D0
:1017300001021A611A6902F00112012AFAD01A692B
:1017400022F001021A6100229A6170470C01002008
:1017500003280BD004284FF000030DD002280DD130
:101760004FF08042506A536200B270470022044B2F
:10177000586A5A6200B27047024AF3E71846704747
:10178000000400400008004010B51C4C4FF400411C
:101790006368204623F0704363606368012243F06E
:1017A0004053636001F00EFF4FF40041204601F00A
:1017B00003FF08B9002010BD01224FF480711048CA
:1017C00001F000FF0120FFF76BFF204600224FF4DD
:1017D000004101F0F7FE20464FF4004101F0ECFE1D
:1017E00004460028E6D10120FFF75AFF04482246AC
:1017F0004FF4807101F0E6FE0120DCE7000C0140AF
:101800000008014038B5154C154D6368284623F093
:10181000704363606368002243F0405363604FF499
:10182000807101F0CFFE00224FF40041204601F00C
:10183000C9FE0120FFF734FF284601224FF48071D2
:1018400001F0C0FE204601224FF4004101F0BAFE33
:10185000BDE838400120FFF723BF00BF000C014066
:101860000008014038B51B4D01226B684FF4004160
:1018700023F070436B606B68284643F000436B6055
:1018800001F0A0FE0120FFF70BFF01224FF4807151
:10189000114801F097FE0120FFF702FF33244FF4B7
:1018A0000041284601F088FE024630B90A484FF44C
:1018B000807101F087FE012006E0013C14F0FF0476
:1018C00003D1FFF79FFF204638BD0120FFF7E8FE58
:1018D000E5E700BF000C01400008014010B5144CC2
:1018E000002220464FF4807101F06CFE1148002266
:1018F00043684FF4004123F070434360436843F072
:101900004053436001F05EFE0120FFF7C9FE012253
:101910004FF48071204601F055FE0120FFF7C0FE14
:101920002046BDE8104000224FF4807101F04ABE0D
:1019300000080140000C014010B5144C0022204664
:101940004FF4807101F03EFE1148012243684FF4CC
:10195000004123F070434360436843F040534360C9
:1019600001F030FE0120FFF79BFE01224FF4807151
:10197000204601F027FE0120FFF792FE2046BDE839
:10198000104000224FF4807101F01CBE000801409D
:10199000000C01401B4B70B55A68044622F070429F
:1019A0005A605A684FF4807142F040525A601648AB
:1019B000002201F007FE0825134E23064CBF01222A
:1019C00000224FF400410F4801F0FCFD0120FFF719
:1019D00067FE01224FF48071304601F0F3FD0120D3
:1019E000FFF75EFE00224FF48071304601F0EAFD01
:1019F000013D0120FFF754FE640015F0FF05E4B23D
:101A0000DBD170BD000C014000080140F8B5044670
:101A10000F4615461E46FFF7B7FE48B1600000F0BE
:101A2000FE00FFF7B7FFFFF71DFF18B9FFF7EAFE4B
:101A3000012010E03846FFF7ADFF0024FFF712FF4A
:101A4000A54205DD305DFFF7A5FFFFF70BFF18B9D5
:101A5000FFF7D8FE0020F8BD0134F1E7F8B50646DF
:101A600008250024184B194F5A6822F070425A601A
:101A70005A6842F000425A6000224FF480713846A2
:101A800001F0A0FD0220FFF70BFE4FF480713846F5
:101A9000012201F097FD64004FF400410A48E4B2CE
:101AA00001F08AFD08B10134E4B20220013DFFF7E4
:101AB000F7FD15F0FF05DFD11EB1FFF70FFF204640
:101AC000F8BDFFF739FFFAE7000C014000080140BC
:101AD000F8B505460E4614461F46FFF755FE48B1B9
:101AE0006D00EDB22846FFF755FFFFF7BBFE18B9B2
:101AF000FFF788FE012010E03046FFF74BFFFFF7AD
:101B0000B1FEFFF741FE681CC0B2FFF743FFFFF7CD
:101B1000A9FE1CB9FFF776FE2046F8BD012C0CBFCC
:101B200000200120FFF79AFF013C3870E4B2013732
:101B3000EFE738B504460D46FFF726FE2046FFF7CF
:101B400029FFFFF78FFE2846FFF724FFFFF78AFEE5
:101B5000FFF71AFE601CC0B2FFF71CFFFFF782FE02
:101B60000020FFF77BFF0446FFF74CFE204638BD00
:101B7000F8B507460E4615461C46FFF705FE3846E3
:101B8000FFF708FFFFF76EFE3046FFF703FFFFF792
:101B900069FE2544AC4203D1FFF734FE0120F8BDB5
:101BA00014F8010BFFF7F6FEFFF75CFEF2E710B545
:101BB0001446FFF7BEFF2070012010BD07B58DF859
:101BC00007200DF107030122FFF7D2FF03B05DF8F4
:101BD00004FB2DE9F0411C4690469DF8185006463E
:101BE0000F46FFF7A6FFC4F108029540EDB2C8F119
:101BF00007021541FF22A4EB0804073408F101088D
:101C000042FA04F402FA08F2224302402A43394617
:101C10003046BDE8F041D2B2FFF7D0BF2DE9F34125
:101C2000904601241F460DF1070205460E46FFF7B8
:101C3000BEFF04FA08F252B29DF8074057B12243A2
:101C4000D2B2314628468DF80720FFF7B7FF02B021
:101C5000BDE8F08124EA0202F3E700002DE9F0413B
:101C600020210446284801F0A7FC284D20BB2B88E2
:101C700001339BB2202124482B8001F09DFC244F8E
:101C80003B781843C0B208B901233B70DFF8848069
:101C9000214E98F800308BB93A78012A01BF337889
:101CA00088F80020013333703078022806D10023F1
:101CB0001A4A3370138010E00023DBE7202112481A
:101CC00001F07AFC012808BF0023307804BF3B7084
:101CD00088F80030012802D00020BDE8F0810F4ACA
:101CE00029881388A7B201339BB2A342138004D979
:101CF0008F4202D900233370DCE78F42ECD2002000
:101D000030701080E9E700BF00080140100100209A
:101D100017010020120100201601002014010020EC
:101D2000024610B528B9BDE810401021074801F05F
:101D300049BC074C236801338342236005D110213D
:101D4000024801F044FC0023236010BD000801405C
:101D50001801002070B50A46044601B101224FF473
:101D60000041124801F02EFC0825114E00222021CE
:101D70000F4801F027FC23064CBF0122002210214E
:101D8000304601F01FFC013D01222021304601F0C8
:101D900019FC640015F0FF05E4B2E7D1BDE870401E
:101DA00001224FF40041014801F00CBC0008014041
:101DB000000C014070B5B0240E4E00212046FFF704
:101DC000C9FF00210846FFF7C5FF00211020FFF7DB
:101DD000C1FF002516F8350001210135FFF7BAFFD4
:101DE000802DF7D10134E4B2B82C06F10106E4D11C
:101DF00070BD00BF1C010020002310B41C46074822
:101E00000022C11801F832400132802AFAD1013390
:101E1000082BF5D110BCFFF7CDBF00BF1C0100207F
:101E2000030630B513D43F2911D8012301F007056B
:101E3000094CC908C1F10701C5F10705C9B204EB96
:101E4000C00003FA05F5435C12B12B43435430BD87
:101E500023EA0503FAE700BF1C0100202DE9F74F34
:101E60004FF00C0A814688460C4600261F46203A51
:101E70001B4BD2B203EB021300931A4B9DF830B008
:101E80000AFB02330193B74202D103B0BDE8F08FE1
:101E90000C2F0CBF019B009B9D5D04F108035FFAB2
:101EA00083FA2B0658BFBBFA8BF2214604F10104DA
:101EB0004CBF5A4652094846E4B2FFF7B1FFA4EBC3
:101EC00008026D00BA42EDB207D1C24609F1010025
:101ED0005FFA80F954460136D5E7A245E1D1F9E72A
:101EE000BCA10008489D00082DE9F04F00250746D9
:101EF0008B46A9464FF00A0885B09DF838A003929A
:101F00005E1E4FEA5A020292F4B2FF2C29D105B0AC
:101F1000BDE8F08F08FB02F20CF1FF3C5FFA8CFC8D
:101F2000BCF1FF0FF6D1039BB3FBF2F2B2FBF8FC5E
:101F300008FB1C225FFA82FCB9F1000F16D1AE42F9
:101F400014DD8AB9012320220093534638465946AE
:101F5000FFF784FF029B013CF8180135C7B2E4B2D9
:101F6000D3E7A4460122D7E74FF0010901230CF182
:101F700030020093D2B25346E8E7F7B504460D4667
:101F80000127561E16F8013F0BB903B0F0BD7A2C9D
:101F900082BF1035EDB200243A2D03D90025FFF79A
:101FA0002BFF2C46009720460C2329463278083414
:101FB000FFF754FFE4B2E5E710B53B4C00220821DF
:101FC000204601F0FFFA6420FFF722FB01222046A1
:101FD000082101F0F7FA0021AE20FFF7BBFE002137
:101FE000D520FFF7B7FE00215020FFF7B3FE0021F8
:101FF000A820FFF7AFFE00213F20FFF7ABFE002136
:10200000D320FFF7A7FE00210846FFF7A3FE00211B
:102010004020FFF79FFE00218D20FFF79BFE00214F
:102020001420FFF797FE00212020FFF793FE0021E8
:102030000220FFF78FFE0021A120FFF78BFE002179
:10204000C020FFF787FE0021DA20FFF783FE002182
:102050001220FFF77FFE00218120FFF77BFE002189
:10206000EF20FFF777FE0021D920FFF773FE002154
:10207000F120FFF76FFE0021DB20FFF76BFE002150
:102080003020FFF767FE0021A420FFF763FE002148
:10209000A620FFF75FFE0021AF20FFF75BFEBDE843
:1020A0001040FFF7A9BE00BF000C01402DE9F0472A
:1020B000784B86B0834240F0E980774B774A1B78B3
:1020C000774D0A2B137059DD5A2B19D1002275490F
:1020D0000A7075490A7075490A7075490A702A783C
:1020E000012A62D1734974480A78835401320A7014
:1020F00001226949674806B0BDE8F04702F093BB8A
:10210000412B0DD10121674A1170002266490A70E6
:1021100066490A7066490A707D2BE0D1022219E0F7
:10212000452B06D1002201205E490A705E490870E5
:10213000EEE7A3F14202022A0ED8002259490A70A2
:1021400059490A7059490A700121594A11707B2B6B
:10215000E2D101222A70C2E7A3F14602022A4FF01F
:10216000000298BF01204F490A704F490A704F4939
:1021700094BF08700A704E490A70E8E7E7D0012161
:102180004E4A117043B9474A1370474A1370474A81
:102190001370474A1370A2E7012BB3D0052BC1D0AF
:1021A0009A1E022AC9D99A1FD8E7022AA0D1424F03
:1021B000DFF80081FB78424E502B0FD10122414BBA
:1021C0001A7000220021404B3B481A6032222970CD
:1021D00088F80010317005F057F989E77B78232BD8
:1021E000EFD098F80090DFF8E0A086F800903478FF
:1021F000032C09D87A78344B303A052AE1D8DFE845
:1022000002F03236393C3F423B1913F8010C3038AA
:10221000FEF7F0F8CDE90001A9EB0400FEF7EAF8BB
:1022200002460B460020294906F038FA02460B46C2
:10223000DAF80000CDE90423FEF7EEF8DDE9042327
:10224000CDE90201DDE90001FEF73EF902460B4649
:10225000DDE90201FDF782FFFEF70EFC013CCAF842
:1022600000003470C3E71A68194B1A60A9E71A68AE
:10227000184BFAE71A68184BF7E71A68174BF4E798
:102280001A68174BF1E71A68164BEEE706B0BDE87F
:10229000F08700BF2C0700205405002053050020C4
:1022A00020050020900500208F0500208C050020CF
:1022B0008D050020550500202105002091050020F6
:1022C000560500209C0500201C050020000024402D
:1022D000040000200000002018000020140000204E
:1022E00010000020A40500201FB51148114A00234A
:1022F000012402604FF46022CDE90133039383602F
:1023000003730375C2614360046100F0C3FE08B14A
:1023100000F06EF90323CDE901340023044801A93C
:10232000039300F073FD08B100F062F904B010BD32
:102330005805002000240140102210B5044688B042
:102340000DEB0200002105F09FF82268174B9A421E
:102350002AD103F56C439A69032442F400729A610E
:102360009A69134802F400720192019A9A6904A9C9
:1023700042F004029A619A6902F004020292029AFF
:102380009A6942F008029A619B6903F0080303937B
:10239000039B0823CDE9043401F034F8054804A96F
:1023A000CDE9044401F02EF808B010BD002401402E
:1023B00000080140000C014010222DE9F04188B0D6
:1023C0000DEB0200002105F05FF82F4B2F4F9A69AB
:1023D0002F4D42F020029A619A69384602F020029D
:1023E0000192019A9A6948F2101142F004029A612E
:1023F0009A69012402F004020292029A9A69002664
:1024000042F008029A619B69012203F008030393DA
:10241000039B01F0D7F80122284648F2380101F069
:10242000D1F84FF0030848F21013384604A9CDE95B
:102430000434CDE9066800F0E5FF2023384604A9FE
:10244000CDE90436069400F0DDFF4FF48052114BC5
:10245000284604A9CDE90423069400F0D3FF48F2EE
:102460003803284604A9CDE90434CDE9066800F014
:10247000C9FF22460221282000F00CFF282000F08E
:102480003BFF08B0BDE8F0810010024000080140A9
:10249000000C01400000211010B594B0142200215E
:1024A0000CA804F0F1FF142200210DEB020004F04F
:1024B000EBFF1022002101A804F0E6FF02244FF4F4
:1024C00080330122CDE91143CDE90A234FF4E01313
:1024D0000AA80E92139301F08FF808B172B6FEE7C6
:1024E0000F23CDE905344FF480630790CDE9083020
:1024F000214605A801F056FA08B172B6FEE74FF47E
:10250000004301A80194039301F008FB08B172B6DF
:10251000FEE714B010BD000008B500F0A9FBFFF7FE
:10252000BBFFFFF749FFFFF7DFFE00F039FA00F0CD
:102530002BF900F057F900F087FA00F0C5FA00F027
:10254000DFFA282000F0E6FEFFF7C6F81E4800F08C
:102550001FFE00211D4801F03FFE04211B4801F031
:102560003BFE0C211A4801F037FE3C21194801F0CE
:1025700035FC3C21184801F031FCFFF71DFD02F04D
:1025800031FA02F045FA154800F034F801221449F6
:10259000124802F048F9282000F0AEFE114D124C0E
:1025A00004F02CFD2B7863B904F056FE04F026FDF0
:1025B0000123002223700D4B1A702378002BFCD1CD
:1025C000EEE704F0E1FEF3E758050020A006002046
:1025D000C805002010060020580600202C07002007
:1025E000540500208E050020B5050020B40500200C
:1025F00072B6FEE7044B02221860044B18680023F1
:102600008068194604F0D6BFC0050020880000206D
:10261000022808B505D904F0FDFE09230360002057
:1026200008BD0120FCE700000138012810B5144660
:102630000BD809484FF0FF33006892B201F0C8FE92
:10264000002818BF0524204610BD04F0E3FE09232E
:102650004FF0FF340360F6E7C0050020022808B5FC
:1026600006D904F0D7FE092303604FF0FF3008BD00
:102670000020FCE708B504F0CDFE092303604FF00D
:10268000FF3008BD08B558B909484FF0FF330122A3
:10269000006801F0F2FE00280CBF0120052008BDF3
:1026A00004F0B8FE092303604FF0FF30F7E700BFE6
:1026B000C0050020022808B504D84FF400534B6031
:1026C000002008BD04F0A6FE09230360F8E700001F
:1026D000104B07B59A69052042F001029A619A6988
:1026E00002F001020092009ADA6942F08052DA6147
:1026F000DB6903F080530193019B00F0B9FD064AAA
:10270000536823F0E06343F00073536003B05DF857
:1027100004FB00BF0010024000000140FEE7FEE79E
:10272000FEE7FEE7FEE770477047704700F0B2BA79
:10273000014801F057BF00BF2C0700204FF4805024
:1027400000F04EBF0B4A0346116810B509B90A499B
:102750001160106809490A4C0344091B8B4206D9D1
:1027600004F058FE0C2303604FF0FF3010BD1360DF
:10277000FCE700BFC40500204008002000500020F6
:10278000000400007047000010B58CB0002120222A
:1027900004A804F079FE00244FF08043104803A9F8
:1027A000C0E900344FF6FF73C0E9033403230393F9
:1027B0000123CDE90144846084610593099301F00C
:1027C000CDFB08B1FFF714FF054801A9CDE901448D
:1027D00001F004FD08B1FFF70BFF0CB010BD00BF06
:1027E0001006002010B500248CB00021202204A87F
:1027F00004F04AFE1048114B03A9C0E900344FF61B
:10280000FF73C0E90334032303930123CDE901449B
:10281000846084610593099301F0A0FB08B1FFF780
:10282000E7FE054801A9CDE9014401F0D7FC08B154
:10283000FFF7DEFE0CB010BD58060020000400407B
:1028400003680F4A82B093420BD10E4B9A6942F44F
:1028500000629A619B6903F400630093009B02B0DD
:102860007047094A9342FAD1064BDA6942F00402F2
:10287000DA61DB6903F004030193019BEFE700BF1A
:10288000002C01400010024000080040102210B54A
:10289000044688B000210DEB020004F0F5FD23682A
:1028A000B3F1804F1BD103F50433DA6942F0010222
:1028B000DA61DA6902F001020092009A9A6942F044
:1028C00004029A619B6903F004030193019B0323B3
:1028D0000F4804A9049300F095FD08B010BD0D4AFF
:1028E0009342FAD10C4BDA6942F00202DA61DA69FA
:1028F00002F002020292029A9A6942F004029A617C
:102900009B6903F004030393039BC023E0E700BF2C
:1029100000080140000400400010024010B50446C9
:1029200086B01022002102A804F0AEFD2368174AE9
:10293000934215D1164B4FF400619A69154842F045
:1029400004029A619B6903F004030093009B022335
:10295000CDE90213059302A900F054FD06B010BDA5
:102960000D4A9342FAD10A4B0C489A6902A942F0E7
:1029700008029A619B69C02203F008030193019B3E
:102980000223CDE902230593E6E700BF002C0140B6
:10299000001002400008014000080040000C014007
:1029A00010B5002492B01C22214603A8CDE90144B1
:1029B00004F06AFD202221460AA804F065FD902358
:1029C0001F48204AC0E90544C0E9002342F20F73C2
:1029D0008460C0E9033401F095FA08B1FFF708FEFE
:1029E000174801A9CDE9014401F0F8FB08B1FFF750
:1029F000FFFD0C220024602311480DEB0201CDE9FC
:102A00000334CDE907440594099401F029FB08B18A
:102A1000FFF7EEFD4FF4005309480AA9CDE90A4437
:102A2000CDE90C440E940F93119401F005FC08B10C
:102A3000FFF7DEFD0248FFF771FF12B010BD00BFC7
:102A4000C8050020002C014010B500248AB01C22CB
:102A5000214603A8CDE9014404F016FD1848194B9E
:102A60008460C0E9003441F61F438461C0E9033447
:102A700001F048FA08B1FFF7BBFD114801A9CDE903
:102A8000014401F0ABFB08B1FFF7B2FD0022602367
:102A90000B4803A9CDE903320592079201F0E0FA51
:102AA00008B1FFF7A5FD0422054803A901F0D8FAF3
:102AB00008B1FFF79DFD0248FFF730FF0AB010BDD7
:102AC000A00600200008004008B54FF4FA330A4879
:102AD0000A4AC0E9002300230C22C0E90233C0E9FE
:102AE00005230361C36101F045FC18B1BDE808404E
:102AF000FFF77EBD08BD00BFE8060020003801409A
:102B000008B54FF416530A480A4AC0E900230023C7
:102B10000C22C0E90233C0E905230361C36101F05F
:102B200029FC18B1BDE80840FFF762BD08BD00BF31
:102B30002C07002000480040102210B5044688B041
:102B40000DEB0200002104F09FFC2368304A934201
:102B500029D1304B4FF400719A692F4842F48042DA
:102B60009A619A6902F480420092009A9A6942F04E
:102B700004029A619B6903F004030193019B022301
:102B8000CDE90413032304A9079300F03BFC4FF4A1
:102B90008060002304A9CDE904031F48069300F0D8
:102BA00031FC08B010BD1D4A9342FAD1194B04A95B
:102BB000DA691B4842F48022DA61DA69002402F4FF
:102BC00080220292029A9A6942F008029A619B69F5
:102BD0004FF4806203F008030393039B0223CDE9C3
:102BE00004230323079300F00DFC4FF4006304A9B2
:102BF0000B48CDE90434069400F004FC0122214680
:102C0000272000F047FB272000F076FBC9E700BF34
:102C10000038014000100240000801400048004018
:102C2000000C01400C480D490D4A002302E0D45825
:102C3000C4500433C4188C42F9D30A4A0A4C002306
:102C400001E013600432A242FBD3FFF79BFD04F0C6
:102C5000E7FBFFF761FC704700000020EC0000205C
:102C6000E8B70008EC0000203C080020FEE7000068
:102C7000074A08B51368032043F01003136000F0FF
:102C8000F7FA0020FEF796FCFFF722FD002008BDB2
:102C900000200240034A044B11681B780B44136068
:102CA000704700BF7007002024000020F7B5002601
:102CB00004460D460196FEF79DFC236807469A6878
:102CC000D20508D50120A36A84F8246043F02003CC
:102CD000A36203B0F0BD5A68D60503D4DB6A13F4CF
:102CE000700F3FD0414B02201E6800F091FF236817
:102CF0003F4A1969B6FBF0F611423E4A53D1D868F3
:102D00003D4908424FD1196911425DD1DA683B4B08
:102D10001A4214BF292314235E43019BB34225D2D8
:102D20006A1C5CD0002D55D1019BB34257D2A36AD7
:102D300043F00403A36200230BE0681C13D065B9C1
:102D400023681B6813F002030CD1A26A42F004024C
:102D5000A262032084F82430BBE7FEF74BFCC01BC3
:102D6000A842EDD8226813689907E6D56FF01203E0
:102D700022681360A36A43F40073A362936803F4A8
:102D80006023B3F5602F2ED1207B00282BD1A36ABE
:102D900023F48073A362A36ADB0424D4A36A43F000
:102DA0000103A36295E71969114203D1D968134A57
:102DB00011420BD01969124A114209D1DB68134242
:102DC00014BFFC235423A7E72923A5E75423A3E733
:102DD000FC23A1E7FEF70EFCC01BA842A4D8019B70
:102DE0000133019399E7002073E700BF2000002022
:102DF00024499224922449122449920092244900A1
:102E0000499224000368D86C70470000002373B512
:102E1000019390F824300446012B6CD0012380F8F4
:102E200024304D680268062D086805EB850322D81A
:102E30001F26556B053B9E4025EA060500FA03F365
:102E40002B43536309288B6800EB40054FF00701C3
:102E500029D9D6681E3DA94026EA0101AB400B43A3
:102E6000D360A0F11003012B25D90020002384F8A2
:102E7000243002B070BD0C2D4FF01F0509D8166B21
:102E8000233B9D4026EA050500FA03F32B43136319
:102E9000D8E7D66A413B9D4026EA050500FA03F3D0
:102EA0002B43D362CEE71069A94020EA0101AB4071
:102EB0000B431361D9E7114B9A4216D193681B0259
:102EC000D3D49368102843F400039360CDD10C4B06
:102ED0000C4A1B68B3FBF2F30A2253430193019B94
:102EE000002BC2D0019B013BF8E7A36A012043F00D
:102EF0002003A362BAE70220BBE700BF0024014021
:102F00002000002040420F00806A7047002337B540
:102F10000193036804469A68D20702D5002003B0E3
:102F200030BD9A6842F001029A60144B144A1B6843
:102F3000B3FBF2F30193019BE3B9FEF75BFB05469C
:102F400023689B68DB07E9D4FEF754FB401B02288B
:102F5000F6D923689B6813F00103F1D1A26A01201E
:102F600042F01002A262E26A84F8243042F00102C8
:102F7000E262D4E7019B013BDCE700BF20000020B8
:102F800040420F0010B590F824300446012B54D075
:102F9000012380F82430FFF7B9FF002849D1A36A44
:102FA000274A23F4407323F0010343F48073A362A0
:102FB0002368934204D123494A6812F4702F2ED11A
:102FC000A26A22F48012A2625A68520541BFA26A24
:102FD00022F4405242F48052A262A26A12F4805259
:102FE0001CBFE26A22F00602E262002284F824207A
:102FF0006FF002021A609A6802F46022B2F5602F44
:1030000013D10F4A934205D1A2F58062526812F49F
:10301000702F0AD19A6842F4A0029A6010BDA26A89
:1030200042F48012A2624A68CFE79A6842F48012A2
:10303000F3E7002384F82430F0E70220EEE700BF36
:10304000002801400024014038B5036804469A680E
:10305000D10701D4002038BD9A6822F001029A609D
:10306000FEF7C8FA054623689B68DB07F2D5FEF732
:10307000C1FA401B0228F6D923689B68DA07F2D50B
:10308000A36A012043F01003A362E36A43F0010343
:10309000E362E0E7F8B5044600286ED0836A23B9FE
:1030A000C36280F82430FFF747F92046FFF7CCFFD2
:1030B000A36A13F0100362D1002860D1A26AE56907
:1030C000616822F4885222F0020242F0020229438F
:1030D000A568A262227BB5F5807F41EA420137D024
:1030E000012D14BF00274FF48077267D012E06D1D5
:1030F00082BBA269013A47EA423646F40067226879
:10310000B5F5807F566826F4694646EA070656609C
:1031100097681D4E06EA070646EA0106966001D04A
:10312000012D02D12369013B1B05D56A25F47005E9
:103130002B43D3629268154B1340994213D100235D
:10314000E362A36A23F0030343F00103A362F8BD23
:103150002F46CAE7A26A42F02002A262E26A42F067
:103160000102E262CBE7A36A23F0120343F01003EB
:10317000A362E36A43F00103E3620120E7E7A36A85
:1031800043F01003A362F8E7FDF7E1FFFE0E1FFF17
:10319000002373B5019390F824300446012B62D0CC
:1031A000012380F82430FFF74FFF0546002832D175
:1031B000A36A022023F4885323F0020343F002039E
:1031C000A3622A4B1E6800F023FDB6FBF0F67600E2
:1031D0000196019B1BBB2046FFF798FE226893686F
:1031E00043F008039360FEF705FA064623689A68E1
:1031F000110718D49A6842F004029A60FEF7FAF9AF
:10320000064623689B685B0723D4A36A23F0030365
:1032100043F00103A362002384F8243016E0019BED
:10322000013B0193D5E7FEF7E5F9801B0A28DDD9BC
:1032300023689B681807D9D5A36A012523F01203D8
:1032400043F01003A362002384F82430284602B020
:1032500070BDFEF7CFF9801B0A28D2D923689B687E
:103260005A07CED5E8E70225F0E700BF200000208E
:1032700007490302CA6803F4E06322F4E06212041F
:10328000120C134343F0BF6343F40033CB60704729
:1032900000ED00E0164B30B5DC68C4F30224C4F145
:1032A0000703251D042B28BF0423062D4FF0FF35EF
:1032B00098BF002405FA03F388BF033C21EA030307
:1032C000A34005FA04F422EA0402002843EA0203B8
:1032D000ACBF00F16040074A4FEA0313DBB2ABBF5B
:1032E00000F5614000F00F0080F80033135430BD4A
:1032F00000ED00E014ED00E0002808DB01234209A6
:1033000000F01F0003FA00F0014B43F82200704761
:1033100000E100E000280DDB0122430900F01F005E
:1033200002FA00F0044A203342F82300BFF34F8F23
:10333000BFF36F8F704700BF00E100E090F82130CD
:10334000022B06D004238363002380F82030012061
:10335000704703681A6822F00E021A601A6822F099
:1033600001021A600123D0E90F218B4053604FF412
:10337000807303840020704708B590F82130022B39
:1033800003D004238363012008BD03681A6822F078
:103390000E021A601A6822F001021A60174A93425C
:1033A0001CD0143293421BD0143293421AD01432E0
:1033B00093421AD0143293421AD0143293420CBF63
:1033C0004FF480134FF080730D4A53604FF48073B5
:1033D0000384436B7BB198470020D5E70123F3E7D3
:1033E0001023F1E74FF48073EEE74FF48053EBE7DF
:1033F0004FF48033E8E71846C6E700BF08000240F4
:10340000000002402DE9F74F00221646644F654B3D
:10341000DFF894C1DFF894E10D6835FA06F402D1C3
:1034200003B0BDE8F08F4FF0010808FA06F805EA8E
:10343000080438EA05057BD14D68032D07D8013D06
:10344000022D00F28880DFE805F0969BA100122D86
:1034500000F099806ED8112D00F08F80FF2C98BF5E
:1034600082464FF00F0988BF00F1040A4FEA860533
:10347000DAF8008088BF203D09FA05FB28EA0B082E
:1034800002FA05F548EA0505CAF80050D1F804A08B
:103490001AF0805F4CD0BD6926F0030845F00105A5
:1034A000BD61BD6908F1804805F00105019508F589
:1034B000803806F0030B019D4FEA8B0BD8F80850BB
:1034C00009FA0BF925EA0909394DA84262D005F538
:1034D0008065A84260D005F58065A8425ED005F5FC
:1034E0008065A8420CBF0325042505FA0BF545EAC3
:1034F0000905C8F808501D681AF4803F14BF254319
:10350000A5431D605D681AF4003F14BF2543A54321
:103510005D609D681AF4801F14BF2543A5439D601C
:10352000DD681AF4001F14BF2C4325EA0404DC6094
:10353000013671E7DFF87C904D450CD017D8A9F51E
:1035400080194D4507D009F570294D4503D0A9F5DF
:1035500080194D4582D18A68D2B1012A08BFC0F8CE
:1035600010804FF0080218BFC0F8148076E7654558
:10357000F1D07545EEE7CA6870E7CA6804326DE7B6
:10358000CA6808326AE7CA680C3267E7002265E752
:10359000042263E70025A8E70125A6E70225A4E7A2
:1035A0000010024000040140000031100000321001
:1035B00000080140000022108368194214BF012056
:1035C000002070470AB1016170470904FBE7C36836
:1035D00001EA030221EA030141EA02410161704765
:1035E000044A08B55169014202D0506101F06CFDF6
:1035F00008BD00BF000401402DE9F341054638B382
:103600000368DB0710D42B689F075ED42B6819076B
:1036100000F195802B685A0700F1C180E869002805
:1036200040F02C81002029E0904C636803F00C03EB
:10363000042B07D0636803F00C03082B0AD16368DE
:10364000DE0307D523689C03DDD56B68002BDAD138
:10365000012013E06B68B3F5803F12D1236843F477
:1036600080332360FDF7C6FF064623689803CAD45B
:10367000FDF7C0FF801B6428F7D9032002B0BDE826
:10368000F0819BB9236823F480332360236823F4FB
:1036900080232360FDF7AEFF064623689903B2D569
:1036A000FDF7A8FF801B6428F7D9E6E7B3F5A02F44
:1036B000236803D143F480232360CFE723F48033CE
:1036C0002360236823F48023CBE7684C636813F0FE
:1036D0000C0F07D0636803F00C03082B10D163684C
:1036E000DA030DD423689B0702D52B69012BAFD1D8
:1036F00023686A6923F0F80343EAC203236085E77D
:103700002A695B4B6AB101221A60FDF773FF064616
:1037100023689F07ECD4FDF76DFF801B0228F7D9C3
:10372000ABE71A60FDF766FF0646236898077FF54A
:103730006DAFFDF75FFF801B0228F6D99DE7AA69F0
:103740004A4E4B4BE2B10122C3F88024FDF752FFF1
:103750000446736A9B070DD54FF4FA52454B1B681C
:10376000B3FBF2F3019300BF019B5A1E0192002BA1
:10377000F9D14FE7FDF73EFF001B0228E9D97CE7AE
:10378000C3F88024FDF736FF0446736A9F077FF570
:1037900041AFFDF72FFF001B0228F6D96DE7334C30
:1037A000E369D80024D40127E36943F08053E3613F
:1037B000E36903F080530093009B2F4E3368D905D3
:1037C00018D5EB68012B26D1236A43F0010323624D
:1037D000FDF710FF41F288380646236A9B073FD564
:1037E000002F3FF41BAFE36923F08053E36115E73B
:1037F0000027E2E7336843F480733360FDF7FAFE95
:1038000080463368DA05DCD4FDF7F4FEA0EB08004F
:103810006428F6D931E7ABB9236A41F2883823F03E
:1038200001032362236A23F004032362FDF7E2FE0F
:103830000646236A9807D3D5FDF7DCFE801B40457A
:10384000F7D91AE7052B236A03D143F00403236257
:10385000BAE723F001032362236A23F00403B6E7E7
:10386000FDF7C8FE801B4045B7D906E700100240AF
:103870000000424220000020007000402A4C636893
:1038800003F00C03082B3ED00022284B02281A66B6
:103890002CD1FDF7AFFE06462368990120D42B6A90
:1038A000B3F5803F05D16268A96822F400320A436B
:1038B0006260696A62680B4322F474121343012246
:1038C00063601A4B1A66FDF795FE054623689A0158
:1038D0003FF5A8AEFDF78EFE401B0228F6D9CCE6D8
:1038E000FDF788FE801B0228D6D9C6E6FDF782FECA
:1038F000054623689B017FF595AEFDF77BFE401BD7
:103900000228F6D9B9E601283FF4B8AE63682A6AFE
:1039100003F4803191427FF49BAE6A6A03F4701322
:1039200093423FF47FAE93E6001002400000424213
:1039300030B5184B87B002AC03F110052246186869
:103940005968083303C2AB421446F7D140F2012351
:103950001149ADF804304B6803F00C02082A17D166
:10396000C3F3834218326A44DB0312F8100C0CD5FF
:103970004B680A4AC3F34043504318336B4413F86F
:10398000143CB0FBF3F007B030BD054B5843FAE7E9
:103990000248F8E7C4A700080010024000127A00AD
:1039A00000093D002DE9F0410D46044610B9012003
:1039B000BDE8F081444A136803F007038B4228D323
:1039C00021688E0730D4CA0743D43F4A136803F0F6
:1039D0000703AB4265D822683C4D12F0040F6CD14E
:1039E000130706D56B68226923F4605343EAC203C8
:1039F0006B60FFF79DFF6B68354AC3F30313D35C1D
:103A0000D840344B1860344B1868FDF7D3FD0020C4
:103A1000CEE7136823F007030B431360136803F02A
:103A200007038B42C3D1CBE7284B11F0040F1EBF15
:103A30005A6842F4E0625A60080742BF5A6842F48A
:103A400060525A605A68A06822F0F00202435A603D
:103A5000B9E762681D4E012A33681AD113F4003F9A
:103A6000A5D0736841F2883823F0030313437360D1
:103A7000FDF7C0FD07467368626803F00C03B3EB03
:103A8000820FA2D0FDF7B6FDC01B4045F3D903203D
:103A90008EE7022A02D113F0007FE1E713F0020F54
:103AA000DEE7136823F007032B431360136803F06A
:103AB0000703AB427FF47BAF8DE76B68E16823F4CB
:103AC000E0630B436B608BE7002002400010024074
:103AD000ACA700082000002028000020044B054A65
:103AE0005B68C3F30223D35C034A1068D840704775
:103AF00000100240BCA7000820000020044B054A2B
:103B00005B68C3F3C223D35C034A1068D840704794
:103B100000100240BCA700082000002003682DE927
:103B2000F341D907054620D5364CE369DA0032D493
:103B30000126E36943F08053E361E36903F08053B6
:103B40000193019B304F3B68DB0526D5236A13F4B4
:103B5000407336D1236A6A6823F4407313432362A7
:103B60001EB1E36923F08053E3612868830706D51B
:103B70002449AB684A6822F440421A434A6010F074
:103B800010001BD01F4AE9685368002023F480030B
:103B90000B43536012E00026D4E73B6843F4807384
:103BA0003B60FDF727FD80463B68D805CED4FDF786
:103BB00021FDA0EB08006428F6D9032002B0BDE87F
:103BC000F0816A6802F440729A42C3D001200F4A21
:103BD000236AC2F84004002023F44071C2F8400474
:103BE0002162D907B6D5FDF705FD41F288380746B1
:103BF000236A9A07AED4FDF7FDFCC01B4045F7D9F8
:103C0000DBE700BF001002400070004000004242AD
:103C1000024670B5334B86B002AD03F110062C4658
:103C200018685968083303C4B3422546F7D140F2F7
:103C30000123022AADF8043047D0102A03D0012A0C
:103C400024D0002036E0284A5168106810F08070B7
:103C500030D0C1F3834318336B44C90313F8100CFD
:103C600049BF5368214BC3F34043183341BF6B44F2
:103C700013F8141C1E4BB3FBF1F3584353685B025B
:103C800018D403234000B0FBF3F013E040F20231FC
:103C9000154A136A1940B1F5817F1FD003F44073B0
:103CA000B3F5007F08D149F64043506A10F0020096
:103CB00018BF184606B070BDB3F5407FC1D110687B
:103CC0004FF2244310F40030F2E7FFF717FF064BE2
:103CD0005B68C3F3813301335B00D4E74FF40040EA
:103CE000E8E700BFC4A700080010024000093D003B
:103CF00000127A00036A70B523F001030362036ABD
:103D0000446882690D6822F073022A438D6823F0AB
:103D100002032B430A4DA8420BD1CD6823F00803C0
:103D20002B4324F44074D1E90556354323F00403B2
:103D30002C43446082614A684263036270BD00BFE5
:103D4000002C0140036A70B523F480730362036A98
:103D50004468C2690D6822F073022A438D6823F417
:103D6000007343EA05230B4DA8420DD1CD6823F41F
:103D7000006343EA052324F44054D1E90556354352
:103D800023F4806344EA05144460C2614A68C26354
:103D9000036270BD002C0140036A30B523F48053E8
:103DA0000362036A4468C2690D6822F4E64242EA8B
:103DB00005228D6823F4005343EA0533064DA842DB
:103DC00002BF4D6924F4804444EA85144460C26112
:103DD0004A680264036230BD002C0140034630B5DE
:103DE00090F83E2090F83F0093F8425093F84340FB
:103DF000D2B2C0B2EDB2E4B2C1B9012A45D1012DAF
:103E000045D1022283F83E2083F842201A68116AC5
:103E100021F001011162116A41F0010100201162DB
:103E20001A68136843F00103136030BD042911D1EF
:103E300001282AD1012CF8D1022283F83F2083F8EF
:103E400043201A68116A21F010011162116A41F0D1
:103E50001001E3E7012A18D1012818D1012DE4D17E
:103E6000012CE2D1022283F83E2083F83F2083F820
:103E7000422083F843201A68116A21F0010111627F
:103E8000116A41F001011162DCE70120CDE7104623
:103E9000CBE700001A4A036890420AD0B0F1804F85
:103EA00007D0A2F59432904203D002F5806290428E
:103EB00015D14A6823F070031343114A90420AD087
:103EC000B0F1804F07D0A2F59432904203D002F5B2
:103ED0008062904203D1CA6823F4407313434A6955
:103EE00023F08003134303608B68C3620B68836213
:103EF000034B984204BF0B6903630123436170477E
:103F0000002C014010B5044630B390F83D3003F06A
:103F1000FF021BB980F83C20FEF792FC02232068C8
:103F200084F83D30211DFFF7B5FF0123002084F800
:103F3000463084F83E3084F83F3084F8403084F8CE
:103F4000413084F8423084F8433084F8443084F8B7
:103F5000453084F83D3010BD0120FCE7F8B50D4632
:103F6000044600284DD090F83D3003F0FF021BB905
:103F700080F83C20FEF78AFC0223214684F83D307D
:103F800051F8040B836823F4804323F00703836014
:103F9000FFF780FF20682A6886688369A96816434E
:103FA000AA6923F4407341EA022123F003030B437F
:103FB00023F47C422B69E9691B0143EA0123E96888
:103FC000076A0B43296A22F0FC0243EA01331343D8
:103FD000696927F022026F68866047EA01178361EA
:103FE000174301230762002084F8463084F83E30EE
:103FF00084F83F3084F8423084F8433084F83D3010
:10400000F8BD0120FCE70000036A70B523F010033F
:104010000362036A446882690D6822F4E64242EA58
:1040200005228D6823F0200343EA05130B4DA842B7
:104030000DD1CD6823F0800343EA051324F44064D6
:10404000D1E90556354323F0400344EA8504446032
:1040500082614A688263036270BD00BF002C014028
:1040600038B590F83C300446012B52D00123082A81
:1040700080F83C303CD006D8C2B1042A27D00020BA
:1040800084F83C0038BD0C2AF9D10068FFF784FEA3
:1040900023680969DA6942F40062DA61DA6922F4B4
:1040A0008062DA61DA6942EA012230E00068FFF7F3
:1040B00021FE236809699A6942F008029A619A69A7
:1040C00022F004029A619A690A439A61D7E700686C
:1040D000FFF79AFF236809699A6942F400629A61BE
:1040E0009A6922F480629A619A6942EA0122ECE7B5
:1040F0000068FFF727FE23680969DA6942F00802C1
:10410000DA61DA6922F00402DA61DA690A43DA6113
:10411000B5E70220B6E710B50124036A01F01F01DC
:104120008C4023EA04030362036A8A401A43026252
:1041300010BD000010B5044629B990F83E30012B9F
:1041400021D0012010BD042907D190F83F30012B68
:10415000F7D1022384F83F3018E0082907D190F8FE
:104160004030012BEDD1022384F840300EE090F86E
:104170004130012BE5D10429EBD00829F3D00223EB
:1041800080F8413002E0022380F83E3001222068AE
:10419000FFF7C1FF23680E4A93420AD15A6C42F4DA
:1041A00000425A649A6802F00702062A0BD10020E6
:1041B000C8E7B3F1804FF5D0064A9342F2D002F53A
:1041C00080629342EED01A6842F001021A60EEE774
:1041D000002C014000040040FFF7ACBF30B590F860
:1041E0003C300246012B4FF0020022D0136882F8C7
:1041F0003D005C680D6824F070042C4398685C6096
:104200000C4CA3420AD0B3F1804F07D0A4F59434EC
:10421000A34203D004F58064A34204D1496820F08E
:104220008000014399600123002082F83D3082F82C
:104230003C0030BD002C014090F83C30012B1FD0D9
:10424000CB688A6823F4407313434A6823F480637D
:1042500013430A6823F4006313430A6923F4805369
:1042600013434A6923F400531343CA6923F4804378
:10427000134302685364002380F83C3018467047AB
:10428000022070470368DA6822F49072DA605A6993
:1042900022F001025A61026B012A02BFDA6822F0A1
:1042A0001002DA60202380F83E3000230363704759
:1042B00010B504460368C1681A6922F440520A43E3
:1042C0001A6182680069D9680243606921F4B051BB
:1042D00021F00C0102430A43DA605A69A16922F411
:1042E00040720A435A610E4A934215D1FFF706FC09
:1042F00019234343626820689200B3FBF2F36422FF
:10430000B3FBF2F102FB11331B013233B3FBF2F3C7
:1043100003EB0113836010BDFFF7E0FBE8E700BF8C
:1043200000380140F8B504460E4617461D4622687F
:10433000136836EA030301D1002014E06B1CF7D0A8
:1043400095B923680320DA6822F4D072DA605A69DA
:1043500022F001025A61202384F83D3084F83E3077
:10436000002384F83C30F8BDFDF744F9C01B8542BA
:10437000DDD2E6E710B5044640B390F83D3003F0D7
:10438000FF021BB980F83C20FEF7D6FB24232268ED
:1043900084F83D30D368204623F40053D360FFF700
:1043A00087FF236800201A6922F490421A615A6933
:1043B00022F02A025A61DA6842F40052DA602023BD
:1043C000206484F83D3084F83E3010BD0120FCE7C5
:1043D0002DE9F843994690F83D300446202B0E46CF
:1043E000174648D1002944D0002A42D090F83C30EA
:1043F000012B40D00123002580F83C3021230564A7
:1044000080F83D30FDF7F6F8A3688046B3F5805F8D
:10441000A784E78403D123690BB935461E460023E0
:1044200084F83C30E38C9BB253B94B464246402162
:104430002046FFF777FF50B9202384F83D3007E08E
:104440004B46424680212046FFF76CFF10B1032007
:10445000BDE8F88322684EB935F8023BC3F3080380
:104460005360E18C013989B2E184DBE716F8013B46
:10447000F6E70120ECE70220EAE72DE9F8431F46C2
:1044800090F83E300446202B0E4691464FD100292D
:104490004BD0002A49D090F83C30012B47D0012363
:1044A000002580F83C302223056480F83E30056307
:1044B000FDF7A0F8A3688046B3F5805FA4F82C90C0
:1044C000A4F82E9003D123690BB935461E4600236C
:1044D00084F83C30E08D80B220B9202384F83E304F
:1044E000BDE8F8833B46424620212046FFF71AFFED
:1044F000F8B923684EB95B68C3F3080325F8023B9B
:10450000E38D013B9BB2E385E4E7A268B2F5805FEF
:1045100002D032B9226922B95968C9B206F8011B22
:10452000EEE7596801F07F01F8E70120D8E70220A3
:10453000D6E70320D4E77047704708B50023406AE8
:10454000C385C384FFF7F8FF08BD704707B58168CE
:10455000836AB1F5805F026834D10169002934D1E2
:104560005268C2F3080223F8022BC28D8362013A1B
:1045700092B2C2851ABB0368D96821F02001D960C4
:10458000D96821F48071D960596921F0010159611C
:10459000202180F83E10016B012920D10263D968E7
:1045A00021F01001D9601968C90605D501921A6871
:1045B00001925B680193019B818DFFF7C6FF03B0F9
:1045C0005DF804FB39B9016929B95268D2B21A7091
:1045D000836A0133C9E7526802F07F02F7E7FDF70B
:1045E00065FDECE7036837B51A68044612F00F0F53
:1045F000D9685D690CD1950667D58D0665D590F8AB
:104600003E30222B5BD103B0BDE83040FFF79EBFA8
:1046100005F0010001F49075054356D0D50705D586
:10462000CB0542BF236C43F001032364550704D537
:1046300018B1236C43F002032364930704D518B127
:10464000236C43F004032364150707D501F020030E
:1046500003431EBF236C43F008032364236C73B32E
:10466000920608D58B0606D594F83E30222B02D14F
:104670002046FFF76BFF236820465B69256C03F03B
:10468000400305F008051D431BD0FFF7FBFD236821
:104690005A69550610D55A69A06B22F040025A613A
:1046A00050B1534B4363FEF767FE40B1A06B436BC1
:1046B00003B0BDE8304018472046FFF73DFF03B088
:1046C00030BDFFF739FF2564F9E7206B012855D18C
:1046D000D00653D5CD0651D5002101911A6801921B
:1046E0005A680192019A5A6912F040022AD0A06BCE
:1046F0000268526892B2002AE1D0A58D9542DED9B7
:10470000E2858269202A15D0DA6822F48072DA60A4
:104710005A6922F001025A615A6922F040025A6134
:10472000202284F83E202163DA6822F01002DA6049
:10473000FEF704FEE38DA18DC91A89B22046FFF76A
:1047400004FFBCE7E18D88B2E18D89B20029B6D0C3
:10475000A18D091A89B20029B1D0D86820F49070CF
:10476000D860586920F001005861202084F83E008C
:104770002263DA6822F01002DA60DFE7100626D53D
:104780000D0624D594F83D20212A98D1A168226AEB
:10479000B1F5805F16D12169A1B932F8021BC1F3CE
:1047A000080159602262E28C013A92B2E284002A46
:1047B00085D1DA6822F08002DA60DA6842F04002DD
:1047C000DA607CE7511C216212785A60EBE75006F0
:1047D0007FF575AF4A067FF572AFDA68204622F0A2
:1047E0004002DA60202384F83D30FFF7A4FE66E73C
:1047F0003B450008C2858285816203462222002053
:10480000186483F83C0083F83E201B68DA6842F4A1
:104810008072DA605A6942F001025A61DA6842F045
:104820002002DA60704770B490F83E60202E10D1FC
:1048300061B15AB190F83C40012C0AD0012480F8B3
:104840003C400024046370BCFFF7D4BF012070BC5F
:1048500070470220FBE703788B5443780A44537077
:1048600083789370C378D3707047000007B54B1EF0
:10487000092B01900ED80239082906D8DFE801F08B
:104880000D0F11131517191B1D0001220C4901A84A
:10489000FFF7E1FF03B05DF804FB0522F6E709220C
:1048A000F4E70D22F2E71122F0E71522EEE71922D4
:1048B000ECE71D22EAE72122E8E72522E6E700BF30
:1048C00074070020431E092B37D824221C4B0238C2
:1048D0001A70082806D8DFE800F0090D1115191D17
:1048E00021262B00052206205A71704709220A2032
:1048F0005A7270470D220E205A73704711221220EF
:104900005A747047152216205A75704719221A20BA
:104910005A7670471D221E205A7770472122222086
:1049200083F8212070472522262083F82520704710
:1049300029222A2083F8292070470020704700BFD1
:104940007407002090F90030002B0CDC0DD190F999
:104950000130002B0BDC0CD190F90230002B0ADC6B
:104960000BD10720704700207047042070470120BA
:10497000704705207047022070470620704707B532
:104980000323009002226B21D020FDF722F903B00F
:104990005DF804FB07B50223009004221B21D02000
:1049A000FDF717F903B05DF804FB07B5022300908B
:1049B00004221C21D020FDF70CF903B05DF804FBA4
:1049C000034606226B21D020FDF728B903460522B5
:1049D0006A21D020FDF722B9034601223721D020D9
:1049E000FDF71CB908B50220FFF7C9FF0320FFF748
:1049F000D1FF0020FFF7D9FF0020FFF7E1FF0020E3
:104A0000FFF7E4FFBDE808400020FFF7E5BF000026
:104A1000002330B589B0012275218DF8003068205F
:104A20006B46FDF755F80123514C5248237002F0B4
:104A3000B9FD9DF80030682B0CD0BFF34F8F4E4965
:104A40004E4BCA6802F4E0621343CB60BFF34F8F52
:104A500000BFFDE701F0A2FA002840F08580782031
:104A600001F03CFA10B9434802F09CFD782001F0B7
:104A700081F810B9424802F095FDC82001F0ECF928
:104A800010B9404802F08EFD01F0BAFD10B93E4861
:104A900002F088FD3D48FFF755FF02463C48FFF70E
:104AA00051FF01463B48FFF74DFF830143EAC10335
:104AB00043EA020080B201F0ADFD10B9364802F0C1
:104AC00071FD40F2731002F0D7F810B9334802F0CC
:104AD00069FDC82001F00EFF10B9314802F062FDF7
:104AE00005A902A801F0ECFB072836D101A801F0C6
:104AF00001F8019D0298FCF7C9F82946FCF71AF95C
:104B0000FCF7DEFA02900398FCF7C0F82946FCF7A0
:104B100011F9FCF7D5FA03900498FCF7B7F8294689
:104B2000FCF708F9FCF7CCFA049002A801F012FE99
:104B30000DF1020000F0FEFFBDF80220059B05A864
:104B400053430593069B53430693079B5343079395
:104B500001F068FE134802F025FD012001F072FB10
:104B600010B9114802F01EFD0023237009B030BDBA
:104B70008E050020D5A7000800ED00E00400FA052E
:104B8000F5A7000819A800083EA800082C0000207E
:104B90002F000020320000206FA8000894A8000811
:104BA000B8A80008DBA80008FCA800080000000066
:104BB0002DE9F04F764C89B00DF10B030193754947
:104BC00003AB7548009404AA02F040F92388DB0582
:104BD00040F1D5800498FCF759F84FF04251FCF7AA
:104BE000A9F86E4E804630600598FCF74FF84FF0FC
:104BF0004251FCF79FF8DFF8A8A18346CAF80000ED
:104C00000698FCF743F84FF04251FCF793F8654FD4
:104C1000044638600798FCF739F84FF04251FCF72A
:104C200089F88146604D4FF0404128605846FCF7B6
:104C300081F84946FCF77EF8414681464046FBF73D
:104C400071FF2146FCF776F801464846FBF76AFFFC
:104C5000FBF7E2FB03F0F8FC4BA3D3E90023FBF7DF
:104C600033FCFBF709FF514BD7F800901860494619
:104C70004846FBF757FFDAF800B004464FF04041D2
:104C80005846FCF757F85946FCF754F82146804639
:104C90004846FCF74FF801464046FBF741FF4FF00E
:104CA0007E51FBF73FFFFBF7B7FB89463168804633
:104CB0000846FBF737FF5946FCF73CF8296883465E
:104CC0002046FCF737F801465846FBF72BFFFBF769
:104CD000A3FB42464B4603F0DFFC2BA3D3E90023A2
:104CE000FBF7F2FBFBF7C8FE314BDAF80090D7F880
:104CF00000A03768186039463846FCF71BF849466B
:104D000004464846FCF716F801462046FBF70AFF22
:104D1000514604465046FCF70DF801462046FBF785
:104D2000FFFED5F80080044641464046FCF702F8F5
:104D300001462046FBF7F4FEFBF76EFB04460D46EA
:104D400048465146FBF7F6FF414606463846FBF714
:104D5000F1FF01463046FBF7E5FE0146FBF7E2FEB8
:104D6000FBF75AFB22462B4603F096FC06A3D3E939
:104D70000023FBF7A9FBFBF77FFE0E4B186009B081
:104D8000BDE8F08FAFF300806666666666A64C40AD
:104D9000C4070020AC070020B20700203800002024
:104DA000B8070020BC070020C0070020A007002093
:104DB000A4070020A807002070B5284C284A2378B3
:104DC00013B1284B1B783BB92749284B09781B782E
:104DD00000292FD0002B2DD013780133DBB2312BDB
:104DE00001D8137070BD3C2313701E4B1D781F4BF0
:104DF0001E7855EA06031E4B26D01A782AB91D4A9A
:104E000011681D4A116001221A70AEB11B4B19685E
:104E1000194B1868FBF786FE164B1860184A137872
:104E20000133DBB2322B1370DCD90F4B26701D70AF
:104E30000023D6E70023D7E735B1124B19680E4B94
:104E40001868FBF76DFEE7E71A78012AE6D10A4AEF
:104E50001168084A116000221A70DFE7CD070020B0
:104E6000EC0700208D050020CE0700208C050020D7
:104E7000DC070020AC050020040800203C000020D6
:104E80000C08002040000020F0B53227104C114DD6
:104E9000411A20682B68A1EB40021A440E1A01EB5C
:104EA000810307FB06333C2606FB02330A4A1668D9
:104EB0003344B3F5E15F06DD4FF4E153136028603E
:104EC00021601068F0BD13F5E15FB8BF034BF5E753
:104ED000D0070020D4070020D8070020E0E3FFFF20
:104EE0004FF4E1520028094BCBBF101A00F5E150F6
:104EF0009A635A63CCBF58639863054A054B12689E
:104F00001B681344044A1364704700BF0008004044
:104F1000A00500200C000020002C0140054B064A93
:104F20001968914201DA1A6003E041F6F4229142D5
:104F3000F9DC7047980500200CE5FFFF3220F8B53A
:104F4000FCF78CFE01281BD1124D134C2E78AEB904
:104F50002378012B0CD1114B11491F683846FCF7FF
:104F60009BF828B138460F49FCF78CF800B1267041
:104F70002378013B18BF01232B70F8BD2070F7E7A1
:104F80000228FAD1084A1378B3FA83F35B09137045
:104F9000F3E700BFF907002008000020B805002053
:104FA000000020C1000020418E05002070B50C4695
:104FB00010490546FCF75CF80F4E88B928460F49A2
:104FC000FCF774F860B93378012B09D040F2C5239F
:104FD0009C4205DD0A4B0B491868FCF749F838B1CB
:104FE0000120094B094A1B6803F2EE231364307059
:104FF00070BD00BF000020C2080000200000204259
:10500000A40700200000A0C1A0050020002C014042
:10501000012808B50CD1FFF7CBFD064B1A68064BEB
:105020001A60064BB3F90200FBF730FE044B186020
:1050300008BD00BFA0070020B8050020B20700206F
:1050400094050020F8B51B4C064623780D46002B2E
:105050002CD1194B19491F683846FBF761FD3146C1
:10506000FCF706F808B90020F8BD14493846FBF7EC
:1050700059FD3146FCF71AF80028F4D06B1C022BBE
:10508000F1D80F4B1B78012BEDD123700D4A13780B
:105090000133DBB2322B89BF0023137013702370EE
:1050A0000835E0DA002301202370DDE7012BEDD085
:1050B000D9E700BFF8070020AC0500200000204120
:1050C00008000020ED070020B0F5805F2DE9F84FC3
:1050D00075D1A44BA44958610B78012B09D1A34A7F
:1050E00013780133DBB20A2B137002BF0023137055
:1050F0000B709F4A9F4C13789F4F022B61D801334E
:1051000020781370FFF784FFFCF72AFA9B4B9C4A28
:105110009C49186013680C6801332044642B1360A9
:10512000086006D190FBF3F0974B186000230B60EA
:1051300013606420FCF7F4FD07210920FCF7EAF96D
:105140000C23A0F5806090FBF3F0904B18603B7847
:10515000012B34D107210320FCF7DCF9A0F5806096
:10516000FBF794FD8A49FBF7E5FD8A49FBF7E2FD71
:10517000FBF7A6FFFBF78AFD0546FBF7A1FF0A2315
:1051800090FBF3F202FB1300FBF780FD8149FBF774
:1051900085FE804904462846FBF780FEFBF790FF1A
:1051A000FBF774FD01462046FBF7BCFC7A4B014639
:1051B00018607A4B1868FBF7B5FC794B1860BDE8AE
:1051C000F88F4FF0000A022082F800A0FCF7C0FA26
:1051D0004042FBF75BFD7349FBF760FEFBF770FF96
:1051E000714EDFF8C89130602078FFF711FF704BE7
:1051F00070491868FBF752FE6F4DC9F80000286827
:105200006E4CA0F2EE20FBF741FD6D49FBF746FE28
:10521000DFF8B081C8F80000FFF790FE3168206821
:10522000FFF710FF584B01281968206808BF87F85E
:1052300000A0FFF7BBFE3B781843C0B2002840F047
:105240008F80FFF7B9FD564B20681968FBF768FCA3
:105250005D4B1968FBF76EFD5C4BD9F800100446F6
:105260001868FBF767FD01462046FBF75BFC584BCF
:10527000D8F8001004461868FBF75CFD014620468C
:10528000FBF750FC534900F10040FBF753FDFBF7DF
:1052900017FFFBF7FBFC504B044618604F4BDFF841
:1052A00040811868FBF7F2FCD8F800708146394657
:1052B0002046FBF735FC01464846FBF73BFD494BD2
:1052C00081461868FBF7E2FC2146FBF733FD0146F7
:1052D0004846FBF727FC394682463846FBF722FC56
:1052E000DFF8049101462046FBF71AFCD9F80010BC
:1052F000FBF718FC3D4B83461868FBF7C7FC0146DB
:105300005846FBF717FD01465046FBF70BFCFBF731
:10531000D7FE374B186042F2107390FBF3F3286806
:105320000344B3F51B7F15DA4FF41B736FF03B0199
:1053300030682B60C8F80040C9F80070FFF7A4FD82
:105340002C4C2060FFF7EAFD20684042BDE8F84F92
:10535000FFF7C6BDB3F55C7FC8BF4FF45C73E5E7EC
:105360000020F3E700040140B5050020B40500204B
:10537000CC0700201C00002008000020E8070020C7
:10538000E4070020E0070020A8050020A005002079
:1053900085EBA13B00002041C8070020B00500209C
:1053A000AC05002093D8194288050020BC050020D8
:1053B00094050020333383410C000020B805002001
:1053C0009A996940F007002044000020480000201E
:1053D0004C0000200000C842F407002058000020C4
:1053E000FC0700205400002000080020500000208E
:1053F00008080020980500202DE9F043002301272C
:1054000085B0B64C8DF805308DF8047006460D4613
:10541000D4E900109046897C0222007801ABFCF7A9
:10542000F5FA814628B14FF0FF38404605B0BDE897
:10543000F083C820FCF772F9D4E900108DF80490CD
:105440003A46C97B007801ABFCF7E0FA0028EAD1C4
:10545000D4E900103A464979007801ABFCF7D6FA56
:105460000028E0D1D4E900103A46897C007801ABED
:10547000FCF7CCFA0028D6D1D4E900103A46C97D11
:10548000007801ABFCF7C2FA0028CCD1D4E90010B7
:105490003A460979007801ABFCF7B8FA0028C2D186
:1054A000D4E900100C238DF804303A4609790078CD
:1054B00001ABFCF7ABFA0028B5D10F20FCF72EF9B1
:1054C000D4E90010A36A3A465B7A89788DF80430F3
:1054D000007801ABFCF79AFA0028A4D1D4E90010B7
:1054E000A36A3A461B7A49788DF80430007801ABFC
:1054F000FCF78CFA002896D1A36A9B7AB8F1000FCA
:1055000001D043F0E0038DF80430D4E9001001220B
:105510008979007801ABFCF779FA002883D1B8F1DA
:10552000000F00F0D980A36ADB7A43F0E0038DF826
:105530000430D4E900100122C979007801ABFCF7EE
:1055400065FA00287FF46FAFB8F1000F02D0C820D1
:10555000FCF7E4F8D4E9001040238DF80430012270
:105560000979007801ABFCF751FA00287FF45BAFB2
:10557000D4E9001078238DF80430012249790078AD
:1055800001ABFCF743FA074600287FF44CAF32200A
:10559000FCF7C4F8D4E900108DF8047001224979B1
:1055A000007801ABFCF732FA00287FF43CAFD4E975
:1055B00000100222897A007801ABFCF789FA804654
:1055C00000287FF430AF0C23BDF8047081467FBA09
:1055D000BFB2B7FBF3F7C6E901003060C5E90100CF
:1055E000FFB228605FFA89F3BB4279D33468832223
:1055F000E11709040023200441EA1441FBF7A6FD4A
:105600003A460023FBF7A2FD74688322E1170904E0
:105610000023306041EA14412004FBF797FD3A462D
:105620000023FBF793FDB4688322E11709040023EC
:10563000706041EA14412004FBF788FD00233A46DC
:10564000FBF784FDB0602B68D917090451EA1341B8
:105650004FEA034004D540F2FF73C01841F1000146
:10566000C00A002340EA41503A46C912FBF76EFDDA
:105670006B682860D917090451EA13414FEA0340C7
:1056800004D540F2FF73C01841F10001C00A0023A5
:1056900040EA41503A46C912FBF758FDAB686860D2
:1056A000D917090451EA13414FEA034004D540F2E7
:1056B000FF73C01841F10001C00A40EA41503A4668
:1056C0000023C912FBF742FD0028CCBFA0F58030B3
:1056D00000F58030A860A8E6182328E75C000020C9
:1056E000D4E900100C22C97A007801ABFCF7F0F97C
:1056F00009F1010900287FF496AEBDF80630D9BA49
:10570000BDF80830DABABDF80430D8BA2B680344C3
:105710002B606B680B446B60AB681344AB60BDF8E7
:105720000C30D9BABDF80E30DABABDF80A30D8BAA2
:1057300033680344336073680B447360B368134485
:10574000B3604FE713B5114C94F824302BB1002807
:1057500018BF02208DF8070008E0A37A9BB100284B
:10576000F8D0637C7BB901238DF80730D4E90010B1
:105770000122C97B00780DF10703FCF747F910B946
:105780009DF80730637402B010BD00BF5C000020BC
:1057900013B5554CA37A1BB94FF0FF3002B010BDC2
:1057A0000023D4E900108DF807300122C97B00786E
:1057B0000DF10703FCF72AF90028EDD1D4E9001018
:1057C0000122497900780DF10703FCF71FF9002841
:1057D000E2D1D4E900100122097900780DF1070324
:1057E000FCF714F90028D7D1D4E90030197994F8DE
:1057F0002430002B3FD00C238DF807300122007895
:105800000DF10703FCF702F90028C5D1D4E9001017
:10581000C0238DF80730A37A0122DB0744BFE023C1
:105820008DF80730097900780DF10703FCF7EEF8E1
:105830000028B1D1D4E90010637C0122002B18BFED
:1058400002238DF80730C97B00780DF10703FCF7C0
:10585000DDF80028A0D10DF107038DF80700D4E989
:105860000010012249790078FCF7D0F8003818BF01
:105870000120404292E704238DF80730012200788E
:105880000DF10703FCF7C2F8002885D1A37C4BBBC0
:10589000A37A13F0010F0CBF40236023D4E900105A
:1058A0008DF807300122097900780DF10703FCF724
:1058B000ADF800287FF470AFD4E90010637C0122BA
:1058C000003B18BF01238DF80730C97B00780DF12C
:1058D0000703FCF79BF800287FF45EAFD4E90010C3
:1058E000024BBEE74023D9E75C0000206C0000209B
:1058F0000B4B1B7A032B10D8DFE803F00206090CD0
:10590000FA230380002070474FF4FA73F9E74FF44D
:105910007A73F6E74FF4FA63F3E70023F1E700BF89
:105920005C00002013B51A4CA37A1BB94FF0FF306E
:1059300002B010BDB0F57A7F25D006D8FA2809D07C
:10594000B0F5FA7FF2D1082305E0B0F5FA6FEDD19A
:10595000182300E000238DF807309DF80720237AF4
:10596000B3EBD20F11D0D4E900100122897900786D
:105970000DF10703FCF74AF80028D7D19DF807304E
:10598000DB082372D4E71023E5E70020D0E700BF4F
:105990005C0000200C4B5A7A032A12D8DFE802F090
:1059A000020B0D0F02220270DB7C13B103785B0047
:1059B0000370002070470422F5E70822F3E7102265
:1059C000F1E74FF0FF3070475C00002013B5184C32
:1059D000A37A1BB94FF0FF3002B010BD082823D0C6
:1059E00005D8022807D00428F4D1082304E01028A1
:1059F000F0D1182300E000238DF807309DF8072030
:105A0000637AB3EBD20F11D0D4E900100122C97927
:105A100000780DF10703FBF7F9FF0028DAD19DF8B4
:105A20000730DB086372D7E71023E5E70020D3E7F0
:105A30005C0000200C4BDB7A013B052B12D8DFE821
:105A400003F00307090B0D0FBC23038000207047F0
:105A50006223FAE72A23F8E71423F6E70A23F4E798
:105A60000523F2E70023F0E75C00002013B5194C92
:105A7000A37A1BB94FF0FF3002B010BDBB2816D976
:105A800001238DF80730E27A9DF807309A421FD043
:105A9000D4E900100122897800780DF10703FBF7A3
:105AA000B5FF0028E6D19DF80730E372E4E76128EE
:105AB00001D90223E5E7292801D90323E1E71328C7
:105AC00001D90423DDE709288CBF05230623D8E785
:105AD0000020D1E75C000020054A034692F824002C
