:020000040800F2
:1000000000500020855500087D5000087F500008F2
:10001000815000088350000885500008000000004F
:1000200000000000000000000000000087500008F1
:1000300089500008000000008B5000088D50000817
:10004000CD550008CD550008CD550008CD55000808
:10005000CD550008CD550008CD550008CD550008F8
:10006000CD550008CD550008CD550008CD550008E8
:10007000CD550008CD550008CD550008CD550008D8
:10008000CD550008CD550008CD550008CD550008C8
:10009000CD550008CD550008CD550008CD550008B8
:1000A000CD550008CD550008CD550008CD550008A8
:1000B000CD550008CD550008CD550008CD55000898
:1000C000CD550008CD550008CD550008CD55000888
:1000D000CD550008CD550008CD55000891500008B9
:1000E0009D500008CD550008CD55000800000000C7
:1000F0000000000000000000000000000000000000
:0C01000000000000000000005FF808F1A3
:1001100010B5054C237833B9044B13B10448AFF341
:1001200000800123237010BDF000002000000000BB
:10013000C099000808B5034B1BB103490348AFF34E
:10014000008008BD00000000F4000020C0990008F5
:1001500081F0004102E000BF83F0004330B54FEA78
:1001600041044FEA430594EA050F08BF90EA020FE5
:100170001FBF54EA000C55EA020C7FEA645C7FEA78
:10018000655C00F0E2804FEA5454D4EB5555B8BF9B
:100190006D420CDD2C4480EA020281EA030382EA0C
:1001A000000083EA010180EA020281EA0303362D9E
:1001B00088BF30BD11F0004F4FEA01314FF4801C71
:1001C0004CEA113102D0404261EB410113F0004F83
:1001D0004FEA03334CEA133302D0524263EB43033A
:1001E00094EA050F00F0A780A4F10104D5F1200ED8
:1001F0000DDB02FA0EFC22FA05F2801841F1000133
:1002000003FA0EF2801843FA05F359410EE0A5F106
:1002100020050EF1200E012A03FA0EFC28BF4CF037
:10022000020C43FA05F3C01851EBE37101F00045ED
:1002300007D54FF0000EDCF1000C7EEB00006EEBFA
:100240000101B1F5801F1BD3B1F5001F0CD3490884
:100250005FEA30004FEA3C0C04F101044FEA4452DB
:1002600012F5800F80F09A80BCF1004F08BF5FEA62
:10027000500C50F1000041EB045141EA050130BD42
:100280005FEA4C0C404141EB0101013C28BFB1F554
:10029000801FE9D291F0000F04BF01460020B1FA9F
:1002A00081F308BF2033A3F10B03B3F120020CDA72
:1002B0000C3208DD02F1140CC2F10C0201FA0CF050
:1002C00021FA02F10CE002F11402D8BFC2F1200CB5
:1002D00001FA02F120FA0CFCDCBF41EA0C0190406B
:1002E000E41AA2BF01EB0451294330BD6FEA0404B4
:1002F0001F3C1CDA0C340EDC04F11404C4F120029F
:1003000020FA04F001FA02F340EA030021FA04F3B0
:1003100045EA030130BDC4F10C04C4F1200220FA07
:1003200002F001FA04F340EA0300294630BD21FA45
:1003300004F0294630BD94F0000F83F4801306BF0B
:1003400081F480110134013D4EE77FEA645C18BFFF
:100350007FEA655C29D094EA050F08BF90EA020F96
:1003600005D054EA000C04BF1946104630BD91EA8E
:10037000030F1EBF0021002030BD5FEA545C05D191
:100380004000494128BF41F0004130BD14F58004D0
:100390003CBF01F5801130BD01F0004545F0FE4144
:1003A00041F470014FF0000030BD7FEA645C1ABF79
:1003B000194610467FEA655C1CBF0B46024650EAB0
:1003C000013406BF52EA033591EA030F41F40021DC
:1003D00030BD00BF90F0000F04BF0021704730B562
:1003E0004FF4806404F132044FF000054FF0000137
:1003F00050E700BF90F0000F04BF0021704730B5F8
:100400004FF4806404F1320410F0004548BF4042CC
:100410004FF000013EE700BF42004FEAE2014FEA21
:1004200031014FEA02701FBF12F07F4393F07F4FFC
:1004300081F06051704732F07F4208BF704793F0FF
:100440007F4F04BF41F40021704730B54FF4607412
:1004500001F0004521F000411CE700BF50EA010215
:1004600008BF704730B54FF000050AE050EA0102BE
:1004700008BF704730B511F0004502D5404261EB2E
:1004800041014FF4806404F132045FEA915C3FF46F
:10049000D8AE4FF003025FEADC0C18BF03325FEA0C
:1004A000DC0C18BF033202EBDC02C2F1200300FABD
:1004B00003FC20FA02F001FA03FE40EA0E0021FAE2
:1004C00002F11444BDE600BF70B54FF0FF0C4CF4D0
:1004D000E06C1CEA11541DBF1CEA135594EA0C0F82
:1004E00095EA0C0F00F0DEF82C4481EA030621EABD
:1004F0004C5123EA4C5350EA013518BF52EA0335F8
:1005000041F4801143F4801338D0A0FB02CE4FF0A9
:100510000005E1FB02E506F00042E0FB03E54FF0D9
:100520000006E1FB03569CF0000F18BF4EF0010ED1
:10053000A4F1FF04B6F5007F64F5407404D25FEACD
:100540004E0E6D4146EB060642EAC62141EA555180
:100550004FEAC52040EA5E504FEACE2EB4F1FD0CC2
:1005600088BFBCF5E06F1ED8BEF1004F08BF5FEA40
:10057000500E50F1000041EB045170BD06F00046F2
:1005800046EA010140EA020081EA0301B4EB5C049F
:10059000C2BFD4EB0C0541EA045170BD41F4801197
:1005A0004FF0000E013C00F3AB8014F1360FDEBFBC
:1005B000002001F0004170BDC4F10004203C35DA98
:1005C0000C341BDC04F11404C4F1200500FA05F31B
:1005D00020FA04F001FA05F240EA020001F00042BC
:1005E00021F0004110EBD37021FA04F642EB060132
:1005F0005EEA430E08BF20EAD37070BDC4F10C045C
:10060000C4F1200500FA04F320FA05F001FA04F21F
:1006100040EA020001F0004110EBD37041F100010B
:100620005EEA430E08BF20EAD37070BDC4F1200516
:1006300000FA05F24EEA020E20FA04F301FA05F27E
:1006400043EA020321FA04F001F0004121FA04F226
:1006500020EA020000EBD3705EEA430E08BF20EAF6
:10066000D37070BD94F0000F0FD101F00046400030
:1006700041EB010111F4801F08BF013CF7D041EAB2
:10068000060195F0000F18BF704703F000465200B6
:1006900043EB030313F4801F08BF013DF7D043EA87
:1006A0000603704794EA0C0F0CEA135518BF95EA3D
:1006B0000C0F0CD050EA410618BF52EA4306D1D1C4
:1006C00081EA030101F000414FF0000070BD50EAE3
:1006D000410606BF1046194652EA430619D094EA6D
:1006E0000C0F02D150EA013613D195EA0C0F05D157
:1006F00052EA03361CBF104619460AD181EA0301AB
:1007000001F0004141F0FE4141F470014FF0000062
:1007100070BD41F0FE4141F4780170BD70B54FF0FD
:10072000FF0C4CF4E06C1CEA11541DBF1CEA13557D
:1007300094EA0C0F95EA0C0F00F0A7F8A4EB05045F
:1007400081EA030E52EA03354FEA013100F0888056
:100750004FEA03334FF0805545EA131343EA12631F
:100760004FEA022245EA111545EA10654FEA0026D4
:100770000EF000419D4208BF964244F1FD0404F58D
:10078000407402D25B084FEA3202B61A65EB0305E9
:100790005B084FEA32024FF480104FF4002CB6EBA6
:1007A000020E75EB030E22BFB61A754640EA0C0026
:1007B0005B084FEA3202B6EB020E75EB030E22BF66
:1007C000B61A754640EA5C005B084FEA3202B6EBA7
:1007D000020E75EB030E22BFB61A754640EA9C0066
:1007E0005B084FEA3202B6EB020E75EB030E22BF36
:1007F000B61A754640EADC0055EA060E18D04FEAF4
:10080000051545EA16754FEA06164FEAC30343EA93
:1008100052734FEAC2025FEA1C1CC0D111F4801F60
:100820000BD141EA00014FF000004FF0004CB6E759
:1008300011F4801F04BF01430020B4F1FD0C88BFF8
:10084000BCF5E06F3FF6AFAEB5EB030C04BFB6EB03
:10085000020C5FEA500C50F1000041EB045170BDF6
:100860000EF0004E4EEA113114EB5C04C2BFD4EB23
:100870000C0541EA045170BD41F480114FF0000EA7
:10088000013C90E645EA060E8DE60CEA135594EA23
:100890000C0F08BF95EA0C0F3FF43BAF94EA0C0F26
:1008A0000AD150EA01347FF434AF95EA0C0F7FF49B
:1008B00025AF104619462CE795EA0C0F06D152EAEF
:1008C00003353FF4FDAE1046194622E750EA4106D3
:1008D00018BF52EA43067FF4C5AE50EA41047FF4E4
:1008E0000DAF52EA43057FF4EBAE12E74FF0FF3C49
:1008F00006E000BF4FF0010C02E000BF4FF0010C1A
:100900004DF804CD4FEA410C7FEA6C5C4FEA430C92
:1009100018BF7FEA6C5C1BD001B050EA410C0CBFE1
:1009200052EA430C91EA030F02BF90EA020F002043
:10093000704710F1000F91EA030F58BF994208BFAA
:1009400090422CBFD8176FEAE37040F00100704767
:100950004FEA410C7FEA6C5C02D150EA013C07D1BE
:100960004FEA430C7FEA6C5CD6D152EA033CD3D009
:100970005DF8040B704700BF8446104662468C4603
:100980001946634600E000BF01B5FFF7B7FF002836
:1009900048BF10F1000F01BD4DF808EDFFF7F4FF5F
:1009A0000CBF012000205DF808FB00BF4DF808EDEA
:1009B000FFF7EAFF34BF012000205DF808FB00BF0D
:1009C0004DF808EDFFF7E0FF94BF012000205DF82F
:1009D00008FB00BF4DF808EDFFF7CEFF94BF0120E4
:1009E00000205DF808FB00BF4DF808EDFFF7C4FFDD
:1009F00034BF012000205DF808FB00BF4FEA410C26
:100A00007FEA6C5C02D150EA013C0AD14FEA430C08
:100A10007FEA6C5C02D152EA033C02D14FF0000045
:100A200070474FF0010070474FEA410212F5001283
:100A300015D211D56FF47873B3EB625212D94FEA25
:100A4000C12343F0004343EA505311F0004F23FA0F
:100A500002F018BF404270474FF00000704750EA64
:100A6000013005D111F0004008BF6FF00040704721
:100A70004FF00000704700BF4FEA4102B2F1E0437F
:100A800024BFB3F5001CDCF1FE5C0DD901F0004C75
:100A90004FEAC0024CEA5070B2F1004F40EB8300C5
:100AA00008BF20F00100704711F0804F21D113F1F1
:100AB0003872BCBF01F00040704741F480114FEA2A
:100AC0005252C2F11802C2F1200C10FA0CF320FAB3
:100AD00002F018BF40F001004FEAC1234FEAD323D0
:100AE00003FA0CFC40EA0C0023FA02F34FEA43033A
:100AF000CCE77FEA625307D150EA01331EBF4FF0C3
:100B0000FE4040F44000704701F0004040F0FE40DD
:100B100040F40000704700BF80F0004002E000BFDA
:100B200081F0004142001FBF5FEA410392EA030FD8
:100B30007FEA226C7FEA236C6AD04FEA1262D2EB22
:100B40001363C1BFD218414048404140B8BF5B4227
:100B5000192B88BF704710F0004F40F4000020F0C0
:100B60007F4018BF404211F0004F41F4000121F0D6
:100B70007F4118BF494292EA030F3FD0A2F1010220
:100B800041FA03FC10EB0C00C3F1200301FA03F15E
:100B900000F0004302D5494260EB4000B0F5000F81
:100BA00013D3B0F1807F06D340084FEA310102F140
:100BB0000102FE2A51D2B1F1004F40EBC25008BFF2
:100BC00020F0010040EA03007047490040EB0000BC
:100BD000013A28BFB0F5000FEDD2B0FA80FCACF1BD
:100BE000080CB2EB0C0200FA0CF0AABF00EBC250EA
:100BF00052421843BCBFD0401843704792F0000FD8
:100C000081F4000106BF80F400000132013BB5E72A
:100C10004FEA41037FEA226C18BF7FEA236C21D0A0
:100C200092EA030F04D092F0000F08BF0846704705
:100C300090EA010F1CBF0020704712F07F4F04D1D3
:100C4000400028BF40F00040704712F100723CBFE6
:100C500000F50000704700F0004343F0FE4040F410
:100C6000000070477FEA226216BF08467FEA2363CE
:100C70000146420206BF5FEA412390EA010F40F4B9
:100C8000800070474FF0000304E000BF10F0004305
:100C900048BF40425FEA000C08BF704743F09643EC
:100CA00001464FF000001CE050EA010208BF704707
:100CB0004FF000030AE000BF50EA010208BF70478E
:100CC00011F0004302D5404261EB41015FEA010CA3
:100CD00002BF84460146002043F0B64308BFA3F19B
:100CE0008053A3F50003BCFA8CF2083AA3EBC2537D
:100CF00010DB01FA02FC634400FA02FCC2F120029C
:100D0000BCF1004F20FA02F243EB020008BF20F0D2
:100D10000100704702F1200201FA02FCC2F1200238
:100D200050EA4C0021FA02F243EB020008BF20EA2D
:100D3000DC7070474FF0FF0C1CEAD0521EBF1CEA5B
:100D4000D15392EA0C0F93EA0C0F6FD01A4480EA49
:100D5000010C400218BF5FEA41211ED04FF0006332
:100D600043EA501043EA5111A0FB01310CF000405E
:100D7000B1F5000F3EBF490041EAD3715B0040EA84
:100D8000010062F17F02FD2A1DD8B3F1004F40EB54
:100D9000C25008BF20F00100704790F0000F0CF027
:100DA000004C08BF49024CEA502040EA51207F3AEB
:100DB000C2BFD2F1FF0340EAC250704740F40000C6
:100DC0004FF00003013A5DDC12F1190FDCBF00F0B7
:100DD00000407047C2F10002410021FA02F1C2F165
:100DE000200200FA02FC5FEA310040F1000053EA01
:100DF0004C0308BF20EADC70704792F0000F00F04F
:100E0000004C02BF400010F4000F013AF9D040EA54
:100E10000C0093F0000F01F0004C02BF490011F4E8
:100E2000000F013BF9D041EA0C018FE70CEAD153E6
:100E300092EA0C0F18BF93EA0C0F0AD030F0004C66
:100E400018BF31F0004CD8D180EA010000F000401A
:100E5000704790F0000F17BF90F0004F084691F0D8
:100E6000000F91F0004F14D092EA0C0F01D1420212
:100E70000FD193EA0C0F03D14B0218BF084608D1DB
:100E800080EA010000F0004040F0FE4040F4000025
:100E9000704740F0FE4040F4400070474FF0FF0CB8
:100EA0001CEAD0521EBF1CEAD15392EA0C0F93EAFF
:100EB0000C0F69D0A2EB030280EA010C49024FEA51
:100EC000402037D04FF0805343EA111143EA10130A
:100ED0000CF000408B4238BF5B0042F17D024FF4C2
:100EE000000C8B4224BF5B1A40EA0C00B3EB510F9D
:100EF00024BFA3EB510340EA5C00B3EB910F24BF86
:100F0000A3EB910340EA9C00B3EBD10F24BFA3EB0A
:100F1000D10340EADC001B0118BF5FEA1C1CE0D1D2
:100F2000FD2A3FF650AF8B4240EBC25008BF20F085
:100F3000010070470CF0004C4CEA50207F32C2BFD9
:100F4000D2F1FF0340EAC250704740F400004FF076
:100F50000003013A37E792F0000F00F0004C02BFA7
:100F6000400010F4000F013AF9D040EA0C0093F071
:100F7000000F01F0004C02BF490011F4000F013BCB
:100F8000F9D041EA0C0195E70CEAD15392EA0C0F33
:100F900008D142027FF47DAF93EA0C0F7FF470AF6B
:100FA000084676E793EA0C0F04D14B023FF44CAFAE
:100FB00008466EE730F0004C18BF31F0004CCAD143
:100FC00030F000427FF45CAF31F000437FF43CAF7F
:100FD0005FE700BF4FF0FF3C06E000BF4FF0010CA1
:100FE00002E000BF4FF0010C4DF804CD4FEA400283
:100FF0004FEA41037FEA226C18BF7FEA236C11D0CD
:1010000001B052EA530C18BF90EA010F58BFB2EB7F
:10101000030088BFC81738BF6FEAE17018BF40F0FF
:10102000010070477FEA226C02D15FEA402C05D1B3
:101030007FEA236CE4D15FEA412CE1D05DF8040B38
:10104000704700BF844608466146FFE70FB5FFF7CB
:10105000C9FF002848BF10F1000F0FBD4DF808ED83
:10106000FFF7F4FF0CBF012000205DF808FB00BF74
:101070004DF808EDFFF7EAFF34BF012000205DF8CE
:1010800008FB00BF4DF808EDFFF7E0FF94BF01201B
:1010900000205DF808FB00BF4DF808EDFFF7D2FF18
:1010A00094BF012000205DF808FB00BF4DF808ED5B
:1010B000FFF7C8FF34BF012000205DF808FB00BF28
:1010C0004FEA4002B2F1FE4F0FD34FF09E03B3EB55
:1010D00012620DD94FEA002343F0004310F0004F95
:1010E00023FA02F018BF404270474FF000007047EB
:1010F00012F1610F01D1420205D110F0004008BF8A
:101100006FF0004070474FF00000704742000ED271
:10111000B2F1FE4F0BD34FF09E03B3EB126209D432
:101120004FEA002343F0004323FA02F070474FF0E8
:101130000000704712F1610F01D1420202D14FF05D
:10114000FF3070474FF00000704700BF7BB972B9A5
:101150000029BEBF00204FF0004106E008BF002874
:101160001CBF6FF000414FF0FF3000F09BB9ADF1B4
:10117000080C6DE904CE002909DB002B1ADB00F016
:1011800035F8DDF804E0DDE9022304B070474042A1
:1011900061EB4101002B1BDB00F028F8DDF804E0D7
:1011A000DDE9022304B0404261EB4101524263EBAE
:1011B00043037047524263EB430300F017F8DDF836
:1011C00004E0DDE9022304B0404261EB41017047D5
:1011D000524263EB430300F009F8DDF804E0DDE977
:1011E000022304B0524263EB430370472DE9F047FA
:1011F000089D0C46002B4ED194468C458646B2FA8B
:1012000082F262D94AB1C2F12003914020FA03F37D
:101210000CFA02FC194300FA02FE4FEA1C47B1FB2C
:10122000F7F407FB14111FFA8CF64FEA1E4343EA4A
:10123000014304FB06F199420AD91CEB030304F1B4
:10124000FF3080F01081994240F20D81023C6344EE
:10125000591AB1FBF7F007FB101100FB06F61FFA55
:101260008EF343EA01439E420AD91CEB030300F1CB
:10127000FF3180F0FA809E4240F2F78063440238EA
:1012800000219B1B40EA04401DB1D3400022C5E968
:101290000032BDE8F0878B4205D90DB1C5E90001E8
:1012A00000210846F5E7B3FA83F1002946D1A342AD
:1012B00002D39042C0F0EE80861A64EB0303012053
:1012C000002DE6D0C5E90063E3E7002A40F08F80F7
:1012D000A1EB0C0401214FEA1C481FFA8CF7B4FB68
:1012E000F8F608FB164407FB06F04FEA1E4343EAF4
:1012F0000443984208D91CEB030306F1FF3402D2E1
:10130000984200F2CB8026461C1AB4FBF8F008FB8A
:10131000104400FB07F71FFA8EF343EA04439F4291
:1013200008D91CEB030300F1FF3402D29F4200F204
:10133000AE802046DB1B40EA0640A5E7C1F120074E
:101340008B4022FA07FC4CEA030C24FA07F64FEA1A
:101350001C49B6FBF9F81FFA8CFE09FB186620FA47
:1013600007F38C4000FA01FA08FB0EF01C43230C33
:1013700043EA0643984202FA01F20AD91CEB03033E
:1013800008F1FF3680F0818098427ED9A8F10208EA
:1013900063441E1AB6FBF9F309FB136603FB0EFE4A
:1013A000A4B244EA0644A64508D91CEB040403F1A0
:1013B000FF3066D2A64564D9023B644443EA084044
:1013C000A0FB0283A4EB0E049C42C6461E4650D3EB
:1013D0004DD055B1BAEB0E0364EB060404FA07F7DF
:1013E000CB401F43CC40C5E90074002151E70CFA03
:1013F00002FCC2F12003D9404FEA1C4820FA03F353
:1014000000FA02FEB1FBF8F008FB101194401C43F7
:101410001FFA8CF7230C43EA014300FB07F19942C2
:1014200008D91CEB030300F1FF362CD299422AD9CC
:10143000023863445B1AB3FBF8F108FB1133A4B222
:1014400044EA034401FB07F3A34208D91CEB04045C
:1014500001F1FF3613D2A34211D902396444E41AD0
:1014600041EA00413BE70446F2E6084608E7C24588
:10147000AFD2B8EB020E63EB0C060138A9E7314698
:10148000EDE703469AE73046D4E7B04681E7634488
:1014900002384FE706462346084611E7023E6344FA
:1014A00032E700BF704700BF12281FB528BF0020D9
:1014B0000123019003910E4801A9029304F04EF913
:1014C00008B103F045FD0A4804F004FAC8210848B1
:1014D00004F09CF8064804F0BFF910F4007003D043
:1014E000034804F037F980B205B05DF804FB00BF93
:1014F000080600200000000008B507210820FFF7BB
:10150000D3FFFEF777FF0CA3D3E90023FEF7DCFF40
:1015100000220B4BFEF7D8FF00220A4BFEF7D4FF48
:101520000022094BFEF7D0FFFFF77EFA40F2EC43B2
:101530009842A8BF184608BD6666666666660A4099
:1015400000002640000059400000303F4FF0E022EC
:1015500010B50024D2F8FC3D43F08073C2F8FC3D86
:10156000074B1A685C6042F001021A6004F082FEC8
:10157000044BB0FBF3F0044B1860204610BD00BFD5
:10158000001000E040420F0010010020054B10B594
:101590005C6804F06FFE4FF47A73B0FBF3F0B4FBB9
:1015A000F0F010BD001000E070B50446FFF7EEFF4C
:1015B0000026054604F05EFE4FF47A723346B0FB17
:1015C000F2F200214FF0FF30FFF7C0FD84428E4160
:1015D000B8BF184B4FF47A76BCBF1B78E41804F000
:1015E00049FE0023B0FBF6F200214FF0FF30FFF779
:1015F000ADFD2C44A04271F100010ADA04F03AFE7C
:101600000023B0FBF6F24FF0FF310120FFF79EFD03
:101610000444AC4204D9FFF7B9FFA042FBD370BD2C
:10162000FFF7B4FFA042FBD8FFF7B0FFA042FBD307
:10163000F5E700BF7C0000200C4B0D495A68096893
:1016400001FB0020904208D85A68904209D3074A0B
:101650005368834207D3704700BF5A689042FBD853
:10166000704700BFF0E700BFF2E700BF001000E0E6
:101670001001002008B54FF0E0231A6922F004029F
:101680001A611A6922F002021A6104F0F3FD074B95
:10169000B0FBF3F0064B80B21880C0EB401300EBB8
:1016A0008300044BC000188008BD00BF00127A0000
:1016B0000E0100200C0100200B4B00221B88584318
:1016C0004FF0E02358619A611A6942F001021A61F1
:1016D0001A6902F00112012AFAD01A6922F00102F5
:1016E0001A6100229A6170470C01002003280BD078
:1016F00004284FF000030DD002280DD14FF0804296
:10170000506A536200B270470022044B586A5A6212
:1017100000B27047024AF3E71846704700040040E1
:101720000008004038B5194C194D6368012223F0B8
:101730007043636063684FF4004143F0405363605B
:10174000204604F0E1FBD5F83C310BB9002038BD50
:1017500001224FF480710F4804F0D6FB0120FFF7FF
:101760006BFF204600224FF4004104F0CDFBD5F87A
:101770003C41002CEAD10120FFF75EFF05482246DC
:101780004FF4807104F0C0FB0120E0E7000C014041
:10179000008021420008014038B5154C154D6368A2
:1017A000284623F0704363606368002243F040538F
:1017B00063604FF4807104F0A7FB00224FF40041F6
:1017C000204604F0A1FB0120FFF736FF2846012246
:1017D0004FF4807104F098FB204601224FF4004141
:1017E00004F092FBBDE838400120FFF725BF00BFA1
:1017F000000C014000080140194838B54368012237
:1018000023F07043436043684FF4004143F00043CA
:10181000436004F079FB0120FFF70EFF01224FF433
:101820008071104804F070FB0120FFF705FF33249E
:101830000D4DD5F83C2132B90A484FF4807104F0BF
:1018400063FB012006E0013C14F0FF0403D1FFF725
:10185000A3FF204638BD0120FFF7EEFEE9E700BFF9
:10186000000C0140000801400080214210B5144CDA
:10187000002220464FF4807104F046FB11480022FC
:1018800043684FF4004123F070434360436843F0E2
:101890004053436004F038FB0120FFF7CDFE0122E6
:1018A0004FF48071204604F02FFB0120FFF7C4FEA7
:1018B0002046BDE8104000224FF4807104F024BBA4
:1018C00000080140000C014010B5144C00222046D5
:1018D0004FF4807104F018FB1148012243684FF463
:1018E000004123F070434360436843F0405343603A
:1018F00004F00AFB0120FFF79FFE01224FF48071E4
:10190000204604F001FB0120FFF796FE2046BDE8CB
:10191000104000224FF4807104F0F6BA0008014034
:10192000000C01401B4B70B55A68044622F070420F
:101930005A605A684FF4807142F040525A6016481B
:10194000002204F0E1FA0825134E23064CBF0122C1
:1019500000224FF400410F4804F0D6FA0120FFF7AF
:101960006BFE01224FF48071304604F0CDFA012065
:10197000FFF762FE00224FF48071304604F0C4FA93
:10198000013D0120FFF758FE640015F0FF05E4B2A9
:10199000DBD170BD000C014000080140F8B50446E1
:1019A0000F4615461E46FFF7BDFE48B1600000F029
:1019B000FE00FFF7B7FFFFF71FFF18B9FFF7ECFEB8
:1019C000012010E03846FFF7ADFF0024FFF714FFB9
:1019D000A54205DD305DFFF7A5FFFFF70DFF18B944
:1019E000FFF7DAFE0020F8BD0134F1E7F8B506464E
:1019F00008250024174B184F5A6822F070425A608D
:101A00005A6842F000425A6000224FF48071384612
:101A100004F07AFA0220FFF70FFE01224FF48071E2
:101A2000384604F071FA0D4B6400D3F83C31E4B24F
:101A30000BB10134E4B20220013DFFF7FDFD15F0CA
:101A4000FF05E1D11EB1FFF711FF2046F8BDFFF7FA
:101A50003BFFFAE7000C01400008014000802142F2
:101A6000F8B505460F4614461E46FFF75BFE48B123
:101A70006D00EDB22846FFF755FFFFF7BDFE18B920
:101A8000FFF78AFE0120F8BD3846FFF74BFFFFF74E
:101A9000B3FEFFF747FE681CC0B2FFF743FFFFF736
:101AA000ABFE1CB9FFF778FE2046ECE7012C0CBF1B
:101AB00000200120FFF79AFF013C06F8010BE4B279
:101AC000EFE738B504460D46FFF72CFE2046FFF73A
:101AD00029FFFFF791FE2846FFF724FFFFF78CFE52
:101AE000FFF720FE601CC0B2FFF71CFFFFF784FE6B
:101AF0000020FFF77BFF0446FFF74EFE204638BD6F
:101B0000F8B507460E4615461C46FFF70BFE38464D
:101B1000FFF708FFFFF770FE3046FFF703FFFFF700
:101B20006BFE2544AC4203D1FFF736FE0120F8BD21
:101B300014F8010BFFF7F6FEFFF75EFEF2E710B5B3
:101B40001446FFF7BEFF2070012010BD07B58DF8C9
:101B500007200DF107030122FFF7D2FF03B05DF864
:101B600004FB2DE9F0411C4690469DF818500646AE
:101B70000F46FFF7A6FFC4F108039D40EDB2C8F180
:101B800007031D41FF23A4EB0804073408F10108F3
:101B900043FA04F403FA08F31C4300EA04022A435C
:101BA00039463046BDE8F041D2B2FFF7CFBF2DE94C
:101BB000F34190461F4601240DF1070205460E46EB
:101BC00004FA08F4FFF7BBFF9DF8072047B1224352
:101BD000D2B23146284602B0BDE8F041FFF7B6BFA9
:101BE00022EA0402F5E700002DE9F0412021054634
:101BF000274804F083F9274E20BB338801339BB27A
:101C000020212348338004F079F9234F3B7818438F
:101C1000C0B208B901233B70DFF88080204C98F8EF
:101C200000308BB93A78012A01BF237888F8002068
:101C3000013323702078022806D10023194A23702B
:101C4000138010E00023DBE72021114804F056F94F
:101C5000012808BF0023207804BF3B7088F80030BB
:101C6000012802D00020BDE8F0810E4A3188138897
:101C700001339BB2AB42138004D98D4202D90023B9
:101C80002370DDE78D42EDD2002323701380E9E756
:101C9000000801401A01002018010020170100204F
:101CA0001601002014010020024610B528B9BDE835
:101CB00010401021074804F027B9074C236801336E
:101CC0008342236005D11021024804F022F9002349
:101CD000236010BD000801401C01002070B50A46B9
:101CE000044601B101224FF40041124804F00CF9FE
:101CF0000825114E002220210F4804F005F9230683
:101D00004CBF012200221021304604F0FDF8013DB5
:101D100001222021304604F0F7F8640015F0FF0599
:101D2000E4B2E7D1BDE8704001224FF40041014820
:101D300004F0EAB800080140000C014070B5B0247E
:101D40000E4E00212046FFF7C9FF00210846FFF78D
:101D5000C5FF00211020FFF7C1FF002516F8350050
:101D600001210135FFF7BAFF802DF7D10134E4B22C
:101D7000B82C06F10106E4D170BD00BF200100209F
:101D8000002310B41C4607480022191801F83240FD
:101D90000132802AFAD10133082BF5D110BCFFF7AC
:101DA000CDBF00BF20010020030610B512D43F298B
:101DB00010D8012401F00703C3F107039C40C908B0
:101DC000064BC1F10701C9B203EBC000435C12B17D
:101DD0002343435410BD23EA0403FAE72001002003
:101DE0002DE9F74F88460C218146444600261F46C0
:101DF000203A1C4BD2B203EB021300931A4B9DF80E
:101E000030B001FB02330193B74202D103B0BDE809
:101E1000F08F0C2F21D1019B9D5D04F108035FFA27
:101E200083FA2B0658BFBBFA8BF2214604F101045A
:101E30004CBF5A4652094846E4B2FFF7B5FFA4EB3F
:101E400008026D00BA42EDB209D1C24609F10100A3
:101E50005FFA80F954460136D6E7009BDCE7A245DD
:101E6000DFD1F7E7D8990008C89F00082DE9F04FA7
:101E700000258046AA464FF00A094FF0010B87B0B3
:101E80009DF8406005925F1E720803910492FCB2B7
:101E9000FF2C27D107B0BDE8F08F09FB03F3013A0F
:101EA000D2B2FF2AF9D1059AB2FBF3F3B3FBF9F2F0
:101EB00009FB1233DAB2BAF1000F18D1AF4216DDC6
:101EC0009BB933462022CDF800B040460399FFF776
:101ED00087FF049B013C03EB080001355FFA80F8A3
:101EE000E4B2D5E722460123D9E74FF0010A3032A8
:101EF0003346CDF800B0D2B2E7E7F7B504460D4659
:101F00000127561E16F8013F0BB903B0F0BD7A2C1D
:101F100082BF1035EDB200243A2D03D90025FFF71A
:101F20002FFF2C46009720460C2329463278083490
:101F3000FFF756FFE4B2E5E710B53B4C002208215D
:101F4000204603F0E1FF6420FFF72EFB012220462C
:101F5000082103F0D9FF0021AE20FFF7BFFE0021CA
:101F6000D520FFF7BBFE00215020FFF7B7FE002170
:101F7000A820FFF7B3FE00213F20FFF7AFFE0021AE
:101F8000D320FFF7ABFE00210846FFF7A7FE002194
:101F90004020FFF7A3FE00218D20FFF79FFE0021C8
:101FA0001420FFF79BFE00212020FFF797FE002161
:101FB0000220FFF793FE0021A120FFF78FFE0021F2
:101FC000C020FFF78BFE0021DA20FFF787FE0021FB
:101FD0001220FFF783FE00218120FFF77FFE002102
:101FE000EF20FFF77BFE0021D920FFF777FE0021CD
:101FF000F120FFF773FE0021DB20FFF76FFE0021C9
:102000003020FFF76BFE0021A420FFF767FE0021C0
:10201000A620FFF763FE0021AF20FFF75FFEBDE8BB
:102020001040FFF7ADBE00BF000C01402DE9F04F9E
:102030007A4B87B0834240F0ED80794B794A1B7828
:10204000794F0A2B137025DD5A2B784E784D794C39
:10205000794800F0D280412B00F0D780452B00F06A
:10206000D680A3F14202022A4ED9A3F14602022AE7
:102070008CBF0022012200214FF0000C7B2B86F840
:1020800000C085F800C02270017040F0B1800122CC
:102090003A7022E021D00126684A644D644C6548BC
:1020A000654916702BB900222A70227002700A70DE
:1020B00013E0012B4FF0000201D12B70F5E7052B47
:1020C00002D12A702670F1E7A3F1020CBCF1020FD5
:1020D00014D82A70227002700E703A78012A16D134
:1020E000574958480A78835401320A7001224C49F2
:1020F0004A4807B0BDE8F04F05F027B8092BD2D009
:102100002A7022700670D2E700220121B4E7022A69
:10211000ECD1DFF83081DFF8289198F803304A4C91
:10212000502B0FD10122494B1A700021484B32220B
:10213000197000234348397089F80010236005F0B6
:10214000E7FAD3E798F80160232EEED099F800A0C3
:10215000DFF8FCB05546032D8BF8005007D8303E11
:10216000052EE2D8DFE806F03135383B3E4108EB7A
:10217000050313F8010C3038FEF73CF9CDE90001F6
:10218000AAEB0500FEF736F902460B46002031495E
:1021900006F07EF802460B462068CDE90423FEF7E0
:1021A0003BF9DDE90423CDE90201DDE90001FEF799
:1021B0008BF902460B46DDE90201FDF7CFFFFEF782
:1021C0005BFC013D2060EDB2C5E72268224B1A603E
:1021D000ABE72268214BFAE72268214BF7E7226838
:1021E000204BF4E72268204BF1E722681F4BEEE713
:1021F0007D2B7FF472AF02224AE700220021327069
:10220000002229702270027067E70122F6E700229F
:102210000121F4E707B0BDE8F08F00BF940700206C
:102220005A050020590500205805002069060020A5
:10223000680600206706002066060020650600206C
:102240005705002025050020200500204A06002013
:1022500024050020000024406C00002068000020BD
:1022600064000020600000205C0000203806002090
:1022700003788B54437811444B7083788B70C37808
:10228000CB70704707B54B1E092B01900ED8023951
:10229000082906D8DFE801F00D0F11131517191BD7
:1022A0001D0001220C4901A8FFF7E2FF03B05DF811
:1022B00004FB0522F6E70922F4E70D22F2E71122DA
:1022C000F0E71522EEE71922ECE71D22EAE72122CA
:1022D000E8E72522E6E700BF5B050020431E092B47
:1022E00037D824221C4B02381A70082806D8DFE899
:1022F00000F0090D1115191D21262B0005220620BD
:102300005A71704709220A205A7270470D220E2016
:102310005A737047112212205A74704715221620E2
:102320005A75704719221A205A7670471D221E20AE
:102330005A7770472122222083F8212070472522D6
:10234000262083F82520704729222A2083F8292077
:1023500070470020704700BF5B05002070B5284C17
:10236000284A237813B1284B1B782BB9274B1978AF
:10237000274B1B7839B13BB113780133DBB2312BDA
:10238000137028D870BD0B4613701F4B1D78204B5F
:102390001E7855EA06031F4B27D01A782AB91E4A21
:1023A00011681E4A116001221A70B6B11C4B1968DF
:1023B0001A4B1868FEF7B6FB174B1860194A1378CA
:1023C0000133DBB2322B1370DCD9104B26701D7039
:1023D00000231370D6E73C23D6E735B1124B1968BA
:1023E0000E4B1868FEF79CFBE6E71A78012AE5D148
:1023F0000A4A1168084A116000221A70DEE700BF1D
:102400009F0500209D050020660600209E050020F7
:10241000670600209C050020440600209805002047
:102420001C00002094050020180000204FF0320C02
:10243000F0B5104C104D2368411A2868A1EB4302F7
:10244000CF1A024401EB81000CFB07003C270B4E26
:1024500007FB020032682B601044094A2160904259
:10246000B8BF1046B0F5E15FA8BF4FF4E15030604F
:10247000F0BD00BF900500208C05002088050020DD
:10248000E0E3FFFF4FF4E1520028094BCBBF101AE5
:1024900000F5E1509A635A63CCBF58639863054ACC
:1024A000054B12681B681344044A1364704700BF4D
:1024B000000800403C06002070000020002C014075
:1024C000054B064A1968914201DA1A6003E041F6A9
:1024D000F4229142F9DC70475C0600200CE5FFFF16
:1024E0003220F8B5FFF780FB012819D1114C124DAD
:1024F00026788EB92B78012B0CD1104B10491F6810
:102500003846FEF7C9FD40B138460E49FEF7BAFD20
:1025100018B12E70012301E028700023237007E01A
:10252000022805D1084A1378B3FA83F35B091370C4
:10253000F8BD00BF8705002074000020540600206D
:10254000000020C1000020416406002070B50C4648
:1025500010490546FEF78CFD0F4E88B928460F49F5
:10256000FEF7A4FD60B93378012B09D040F2C523F2
:102570009C4205DD0A4B0B491868FEF779FD38B11E
:102580000120094B094A1B6803F2EE2313643070E3
:1025900070BD00BF000020C2740000200000204277
:1025A000E80500200000A0C13C060020002C0140EE
:1025B000012808B50CD102F03FF8064B1A68064B0B
:1025C0001A60064BB3F90200FEF760FB044B18607B
:1025D00008BD00BFEC05002054060020F8050020CF
:1025E0004C060020F8B51B4C064623780D46002B00
:1025F0002CD1194B19491F683846FEF791FA31461C
:10260000FEF736FD08B90020F8BD14493846FEF73C
:1026100089FA3146FEF74AFD0028F4D06B1C022BE4
:10262000F1D80F4B1B78012BEDD123700D4A137895
:102630000133DBB2322B89BF002313701370237078
:102640000835E0DA002301202370DDE7012BEDD00F
:10265000D9E700BF86050020440600200000204185
:102660007400002085050020B0F5805F2DE9F84F4B
:102670005AD196490B78012B09D1954A1378013329
:10268000DBB20A2B09BF0023137013700B70914A41
:10269000914C1378914D022B48D801332078137058
:1026A000FFF786FFFEF728FF8D4B8E4A8E49186094
:1026B00013680C6801332044642B1360086006D152
:1026C00090FBF3F0894B186000230B6013606420CB
:1026D000FFF7EAFA00210920FEF7E6FE0C23A0F539
:1026E000806090FBF3F0824B18602B78012B1BD19C
:1026F00000210320FEF7D8FEA0F58060FEF7C6FAA1
:102700007C49FEF717FB7C49FEF714FB05F038FE09
:102710007949FEF7C3FB794B01461860784B18687E
:10272000FEF700FA774B1860BDE8F88F4FF0000A0B
:10273000022082F800A0FEF7D9FF4042FEF7A6FA79
:102740007149FEF7ABFBFEF7BBFC704EDFF8C091A2
:1027500030602078FFF72CFF6E4B6F491868FEF74A
:102760009DFB6E4FC9F8000038686D4CA0F2EE205A
:10277000FEF78CFA6B49FEF791FBDFF8AC81C8F8E5
:102780000000FFF7ADFE31682068FFF72BFF574BC5
:1027900001281968206808BF85F800A0FFF7D6FE59
:1027A0002B781843C0B2002840F08E80FFF7D6FD8A
:1027B000544B20681968FEF7B3F95C4B1968FEF7B3
:1027C000B9FA5B4BD9F8001004461868FEF7B2FA64
:1027D00001462046FEF7A6F9564BD8F800100446ED
:1027E0001868FEF7A7FA01462046FEF79BF9524902
:1027F00000F10040FEF79EFAFEF762FCFEF746FA93
:102800004E4B044618604E4BDFF838811868FEF7CF
:102810003DFAD8F80050814629462046FEF780F957
:1028200001464846FEF786FA474B81461868FEF790
:102830002DFA2146FEF77EFA01464846FEF772F968
:10284000294682462846FEF76DF9DFF800910146D9
:102850002046FEF765F9D9F80010FEF763F93C4B06
:1028600083461868FEF712FA01465846FEF762FAE8
:1028700001465046FEF756F9FEF722FC354B3A6802
:10288000186042F2107390FBF3F31344B3F55C7FCE
:10289000A8BF4FF45C73B3F51B7FB8BF4FF41B7335
:1028A0006FF03B0130683B60C8F80040C9F8005049
:1028B000FFF7BCFD284C2060FFF702FE2068404275
:1028C000BDE8F84FFFF7DEBD0020F9E7480600201D
:1028D00049060020C4050020750000207400002077
:1028E000C0050020BC050020B805002058060020C7
:1028F0003C06002085EBA13B00002041B4050020F0
:10290000400600204406002093D8194260060020AB
:10291000500600204C060020333383417000002015
:10292000540600209A996940B00500201400002048
:10293000100000200C0000200000C842AC05002060
:1029400004000020A805002008000020A4050020A5
:1029500000000020A00500205C0600202DE9F043C7
:10296000012785B0B44CADF8047006460D46D4E995
:1029700000109046897C0222007801ABFFF70EF828
:10298000814628B14FF0FF38404605B0BDE8F083DE
:10299000C820FEF791FED4E900108DF804903A4665
:1029A000C97B007801ABFEF7F9FF0028EAD1D4E932
:1029B00000103A464979007801ABFEF7EFFF002896
:1029C000E0D1D4E900103A46897C007801ABFEF7EB
:1029D000E5FF0028D6D1D4E900103A46C97D007839
:1029E00001ABFEF7DBFF0028CCD1D4E900103A465A
:1029F0000979007801ABFEF7D1FF0028C2D1D4E9F4
:102A000000100C238DF804303A460979007801ABA8
:102A1000FEF7C4FF0028B5D10F20FEF74DFED4E924
:102A20000010A36A3A465B7A89788DF80430007802
:102A300001ABFEF7B3FF0028A4D1D4E90010A36ACC
:102A40003A461B7A49788DF80430007801ABFEF7DE
:102A5000A5FF002896D1A36A9B7AB8F1000F01D098
:102A600043F0E0038DF80430D4E9001001228979A5
:102A7000007801ABFEF792FF002883D1B8F1000F78
:102A800000F0D780A36ADB7A43F0E0038DF80430CE
:102A9000D4E900100122C979007801ABFEF77EFF6E
:102AA00000287FF46FAFB8F1000F02D0C820FEF706
:102AB00003FED4E9001040238DF804300122097987
:102AC000007801ABFEF76AFF00287FF45BAFD4E922
:102AD000001078238DF8043001224979007801AB89
:102AE000FEF75CFF074600287FF44CAF3220FEF76C
:102AF000E3FDD4E900108DF80470012249790078D3
:102B000001ABFEF74BFF00287FF43CAFD4E9001087
:102B10000222897A007801ABFEF7A2FF80460028E6
:102B20007FF430AF0C23BDF8047081467FBABFB28A
:102B3000B7FBF3F7C6E901003060C5E90100FFB259
:102B400028605FFA89F3BB4278D334688322E117A7
:102B500009040023200441EA1441FEF7F7FA3A463B
:102B60000023FEF7F3FA74688322E11709040023B7
:102B7000306041EA14412004FEF7E8FA3A460023A7
:102B8000FEF7E4FAB4688322E117090400237060B9
:102B900041EA14412004FEF7D9FA00233A46FEF731
:102BA000D5FAB0602B68D917090451EA13414FEAEE
:102BB000034004D540F2FF73C01841F10001C00A80
:102BC000002340EA41503A46C912FEF7BFFA6B684B
:102BD0002860D917090451EA13414FEA034004D58C
:102BE00040F2FF73C01841F10001C00A002340EA1F
:102BF00041503A46C912FEF7A9FAAB686860D91786
:102C0000090451EA13414FEA034004D540F2FF732F
:102C1000C01841F10001C00A40EA41503A46002381
:102C2000C912FEF793FA00283ADDA0F58030A860BB
:102C3000AAE618232AE700BF20000020D4E90010EC
:102C40000C22C97A007801ABFEF70AFF09F10109ED
:102C500000287FF497AEBDF804002B68C0BA034487
:102C6000BDF806102B606B68C9BA0B44BDF808208C
:102C70006B60AB68D2BA1344AB60BDF80A0033682E
:102C8000C0BA0344BDF80C1033607368C9BA0B4472
:102C9000BDF80E207360B368D2BA1344B36050E736
:102CA00000F58030C3E700BF13B50F4C94F8243013
:102CB00083B140008DF807000122D4E900100DF126
:102CC0000703C97B0078FEF769FE50B99DF807300D
:102CD000637406E0A37A23B10028EBD0637C002B59
:102CE000E8D002B010BD00BF2000002013B5564C44
:102CF000A37A1BB94FF0FF3002B010BD0023D4E916
:102D000000108DF807300122C97B00780DF1070310
:102D1000FEF744FE0028EDD1D4E9001001224979E4
:102D200000780DF10703FEF739FE0028E2D1D4E95F
:102D300000100122097900780DF10703FEF72EFE3D
:102D40000028D7D1D4E90030197994F82430002B29
:102D500040D00C238DF80730012200780DF10703D5
:102D6000FEF71CFE0028C5D1D4E90010C0238DF861
:102D70000730A37A0122DB0744BFE0238DF8073038
:102D8000097900780DF10703FEF708FE0028B1D19C
:102D9000D4E90010637C0122003B18BF01235B00D3
:102DA0008DF80730C97B00780DF10703FEF7F6FDBB
:102DB00000289FD10DF107038DF80700D4E900101A
:102DC000012249790078FEF7E9FD003818BF01209B
:102DD000404291E704238DF80730012200780DF17D
:102DE0000703FEF7DBFD002884D1A37C4BBBA37A4D
:102DF00013F0010F14BF60234023D4E900108DF8B5
:102E000007300122097900780DF10703FEF7C6FDAE
:102E100000287FF46FAFD4E90010637C0122003BEF
:102E200018BF01238DF80730C97B00780DF1070327
:102E3000FEF7B4FD00287FF45DAFD4E90010034B2A
:102E4000BEE74023D9E700BF20000020300000206B
:102E50000B4B1B7A032B0ED8DFE803F00F02070A97
:102E60004FF4FA730380002070474FF47A73F9E748
:102E70004FF4FA63F6E70023F4E7FA23F2E700BF22
:102E80002000002013B5184CA37A43B1B0F57A7F27
:102E90000ED008D8FA2823D0B0F5FA7F22D04FF010
:102EA000FF3002B010BDB0F5FA6FF8D1182300E082
:102EB0001023227A8DF80730B2EBD30F0ED0D4E96D
:102EC00000100122897900780DF10703FEF766FDF5
:102ED0000028E4D19DF80730DB0823720020E0E7EA
:102EE0000023E6E70823E4E7200000200C4A537A99
:102EF000032B12D8DFE803F00C02080A0423037046
:102F0000D27C3AB9002070470823F8E71023F6E78F
:102F10000223F4E75B000370F4E74FF0FF307047E3
:102F20002000002013B5174CA37A33B108280CD029
:102F300007D8022821D0042821D04FF0FF3002B05A
:102F400010BD1028F9D1182300E01023627A8DF803
:102F50000730B2EBD30F0ED0D4E900100122C979AB
:102F600000780DF10703FEF719FD0028E5D19DF863
:102F70000730DB0863720020E1E70023E6E708235F
:102F8000E4E700BF200000200C4BDB7A013B052B5F
:102F900010D8DFE803F0110307090B0D622303804B
:102FA000002070472A23FAE71423F8E70A23F6E7FC
:102FB0000523F4E70023F2E7BC23F0E7200000201C
:102FC00013B5184CA37A1BB94FF0FF3002B010BDF7
:102FD000BB2810D8612810D8292810D8132810D859
:102FE00009288CBF05230623E27A8DF807309A4220
:102FF00009D10020EAE70123F6E70223F4E70323DF
:10300000F2E70423F0E7D4E9001001228978007880
:103010000DF10703FEF7C2FC0028D5D19DF807305B
:10302000E372E6E720000020054A034692F82400F8
:1030300010B9D2891A8070474FF0FF30704700BF37
:10304000200000200A4B1B7A032B0DD8DFE803F089
:103050000206080A074B036000207047064BFAE798
:10306000064BF8E7064BF6E74FF0FF30704700BF1E
:10307000200000200000034300008342333303425A
:10308000333383410E4A537A032B16D8DFE803F01B
:103090000F02090C41F69C730380D27C52B90020C8
:1030A00070474FF48053F7E74FF40063F4E74FF4B1
:1030B0008043F1E75B080380F1E74FF0FF30704792
:1030C00020000020F8B5124E96F82430EBB9B47AFF
:1030D000C4B100F0FE05307D2C402843377C3474A9
:1030E00008D00120FFF7E0FD3DB9601B18BF4FF08D
:1030F000FF30F8BDFFF7D8FDF7E7FFF7F7FD002831
:10310000F3D037744FF0FF30F3E70020F1E700BF52
:10311000200000202DE9F341214F064697F8243086
:10312000884615468BB1BB7A7BB1D7E900100222E5
:10313000897A007801ABFEF793FC30B9BDF8044002
:1031400064BAA4B2A64205D928704FF0FF3002B08D
:10315000BDE8F0817B68396818785B88B4EB530F61
:103160000FD90122497C01ABFEF77AFC0028ECD193
:103170009DF80430DB0604D5FFF7B8FD6FF00100C1
:10318000E5E7D7E900104346C97A0078F2B2FEF7C6
:1031900067FC0028D9D1B4FBF6F4013C2C70D6E7CB
:1031A0002000002037B5394C0546A37C83426AD005
:1031B000636801221878236819790DF107036DB34C
:1031C000FEF74EFC18B14FF0FF3003B030BD9DF854
:1031D0000730D4E9001023F020038DF807300122D6
:1031E000097900780DF10703FEF7D8FB0028EAD132
:1031F0000320FEF761FA02238DF8073094F822309D
:1032000013B182238DF8073094F823307BB39DF8F7
:10321000073043F030038DF8073028E0FEF720FC3C
:103220000028D0D1D4E90010A27A9DF80730D20747
:103230004CBF43F0200303F0DF038DF80730012279
:10324000097900780DF10703FEF7A8FB0028BAD131
:103250000320FEF731FA94F8223094F82320003B43
:1032600018BF0123DB018DF80730002AD1D1D4E942
:1032700000100122097D00780DF10703FEF78EFB97
:103280000028A0D1A57400209FE700BF20000020E7
:1032900037B5164C054694F82330834220D00028D9
:1032A0000CBF00233023A27C8DF807301AB143F005
:1032B00002038DF8073094F822302BB19DF80730C7
:1032C00063F07F038DF80730D4E900100122097DF7
:1032D00000780DF10703FEF761FB20B984F8235055
:1032E000002003B030BD4FF0FF30FAE7200000208F
:1032F000282837B5054603D94FF0FF3003B030BD5D
:10330000254C90B9FFF7C4FFD4E900104FF4E063F7
:10331000ADF804300222897C007801ABFEF73EFB59
:103320000028E9D120750020E8E70120FFF7B0FF71
:103330002023012D8DF804301ED1002305208DF8A7
:103340000530FFF73DFED4E900109DF8053002225C
:103350009B0143F007038DF80530897C007801ABB1
:10336000FEF71CFB0028C7D108220123A27220739C
:103370002375FFF7A7FED6E7052D01D80123DDE76A
:10338000142D95BF022303230A20142094BF8DF827
:1033900005308DF80530D4E72000002073B51E4DB0
:1033A0000446AB7A1BB94FF0FF3002B070BD95F800
:1033B00024000028F7D12B7D4BB1631E272B04D8A6
:1033C000E0B2FFF795FF0020EFE7FFF791FFD5E9A7
:1033D0000010B4F57A7F28BF4FF47A74042C38BFFC
:1033E00004244FF47A76B6FBF4F4013C8DF80740E0
:1033F0000122497800780DF10703FEF7CFFA002883
:10340000D1D19DF807300133B6FBF3F0E8814008D5
:10341000FFF7D6FDD7E700BF2000002010F0700FA7
:103420000CBFB0FA80F3012373B504BF5B099B01A5
:10343000294D8DF807300446D5E900100122897C1A
:1034400000780DF10703FEF7A9FA30B100234FF021
:10345000FF36AB72304602B070BD9DF80730A10652
:1034600023F040032B7384F04003C3F380134FEA2F
:1034700083038DF807305EBFDBB243F002038DF8A3
:103480000730E20658BF9DF80730D5E900105CBF51
:1034900043F001038DF80730230758BF9DF807302C
:1034A0004FF001025CBF43F038038DF80730C97C50
:1034B00000780DF10703FEF771FA06460028C5D122
:1034C00014F0F70F01D0FFF7E3FE00233220AC72B7
:1034D0002B75FEF7F1F8BDE720000020802337B5FB
:1034E000474C8DF80030D4E900106B460122897CEE
:1034F0000078FEF753FA0546002861D16420FEF7F4
:10350000DBF8D4E900108DF800506B460122897C6D
:103510000078FEF743FA002852D1D4E900106B4638
:103520000622897D0078FEF79BFA002848D19DF895
:1035300005109DF8033089005B0003F0020301F0E1
:10354000040119439DF8013003F0010319433CD0F5
:10355000012952D0022930D10023E3744FF6FF73C2
:10356000E3812374FF23A3744FF0FF330122A36090
:10357000002324494FF4FA60C4F8163022734B60DC
:103580008B60A38262846362FFF77CFCC0B9022077
:10359000FFF7C8FCA0B92A20FFF712FD80B932203E
:1035A000FFF7FCFE60B9FFF78DFD48B9FFF7FAFDA4
:1035B000044628B9FFF732FF04E0134803F09CFEED
:1035C0004FF0FF34204603B030BDD4E900106B4605
:1035D0000122C9780078FEF743FA0028F0D19DF85F
:1035E000003013F00F0303D1084803F0EDFEE7E7C6
:1035F000042BB1D1064803F0E7FE0123ADE700BF7D
:1036000020000020360000203CA4000862A400082E
:10361000AFA40008F7B50D4616461AB94FF0FF30B3
:1036200003B0F0BD114CA37A002BF7D0676843BA02
:10363000ADF80430C0B27B8908449842EEDC2168C2
:103640000222097E387801ABFEF7A8F90028E5D1FF
:10365000D4E900103346497D0078EAB2FEF79EF9BE
:10366000003818BF01204042DAE700BF20000020E8
:10367000F7B50D4616461AB94FF0FF3003B0F0BD4E
:10368000114CA37A002BF7D0676843BAADF8043029
:10369000C0B27B8908449842EEDC21680222097E90
:1036A000387801ABFEF77AF90028E5D1D4E90010AB
:1036B0003346497D0078EAB2FEF7D2F9003818BFE8
:1036C00001204042DAE700BF200000202DE9F04F42
:1036D000244D89B095F8254081468A4616460193C7
:1036E00024B14FF0FF3009B0BDE8F08F0029F8D0C9
:1036F0004C4512D376BAADF80C60D5E90010022221
:10370000897E007803ABFEF749F90028E9D101234F
:1037100085F82530019BEB84E5E7A9EB0408B8F1B7
:10372000100FA8BF4FF010080AEB040B1FFA88F720
:103730005A4639462046FFF76DFF0028D1D1394659
:10374000204604AAFFF794FF0028CAD13A465846FB
:1037500004A903F0CDFF10B92744BCB2C8E76FF04D
:103760000100C0E72000002037B51D4C054694F845
:10377000243083421ED000B394F825306BB3002070
:10378000FFF792FA0020FFF70DFDE08CFFF706FE31
:10379000002360688DF807300122232100780DF1A5
:1037A0000703FEF7FBF8012084F82400FFF77CFAFA
:1037B000FFF79CFA002003B030BDFFF775FA237CB9
:1037C00060688DF807300122232100780DF107038E
:1037D000FEF7E4F884F82450EAE74FF0FF30EAE718
:1037E000200000202DE9F04FB34D95B095F824301E
:1037F00080468946009323B10020FFF7B5FF0123DF
:1038000000930DF11E00FFF723FB0DF11D00FFF7E4
:103810006DFB0DF12200FFF7B7FB08A8FFF704FCD2
:10382000AB7A002201932B7C494640460393FFF775
:1038300095F800287FD101220EA90BA8FFF78EF87A
:10384000002840F0A980686804220D2100780AABA6
:10385000FEF706F90446002800F0A6800024A346DF
:103860000EAE11AF56F8043B59F82B00C01A0028D1
:10387000B8BF4042FDF70AFA4FF05E51FDF75AFA21
:1038800057F8043B8246002118460293FDF7E6FBF9
:10389000002840F0CB80029B50461946FDF7FEFA07
:1038A0004FF07E51FDF73CF9844920F00040FDF7D0
:1038B000FDFB18B1012303FA0BF31C430BF1010BC1
:1038C000BBF1030FCED16868E3B202935A460D21D3
:1038D000007811ABFEF7C4F80446002840F0E980F8
:1038E00006464FF0010BBDF844309DF8462023F406
:1038F000604302F01F0223F0E003ADF844308DF87E
:1039000046200DF12C0A11AF5AF8043B58F8260056
:10391000C01A0028B8BF4042FDF7B8F94FF05E5119
:10392000FDF708FA17F8013B8146002B00F0B48040
:10393000634864498AE0002249464046FFF70EF892
:1039400000283FF478AF00244FF6FF730126EB8187
:103950002B744FF0FF33BDF81E00AB602E73FFF7E2
:1039600091FA9DF81D00FFF7DDFABDF82200FFF780
:1039700027FBBDF82000FFF711FD0198FFF74EFD72
:103980000398FFF79FFB009B13B13046FFF7ECFE57
:10399000204615B0BDE8F08F01220EA90BA8FEF756
:1039A000DDFF0028CFD14EE79DF828309DF82B2071
:1039B000DB10C2F3011103F01C030B438DF824301C
:1039C0009DF82930C2F38101DB1003F01C030B4387
:1039D0008DF825309DF82A3002F00302DB1003F049
:1039E0001C0313438DF826300023DFF8DCB0374981
:1039F0000DF1240A11AF1AF8016BAEB93B60013426
:103A0000E4B2032C07F10407F5D127E704930291F0
:103A1000FDF790F90299049B013E16F0FF0638600D
:103A2000F4D10AF8016CEAE75846F5E75046284910
:103A3000FDF71EFB00287FF43DAF5046254936E7D1
:103A4000CDE90413FDF776F9DDE90413013B13F02A
:103A5000FF03F5D1014607F8013C4846FDF71EFA81
:103A60004FF07E51FDF75CF8144920F00040FDF75F
:103A70001DFB10B10123B3401C430136032E7FF41C
:103A800043AFE4B2B4FA84F46409029B002B7FF4E0
:103A90005BAF44F0020457E70F49FDF7E9FA28B994
:103AA00048460E49FDF702FB0028E6D00BFA06F364
:103AB000E2E70024E9E700BF20000020295C0F3E78
:103AC0000000C84154E3853F7B14AE3E1D5A843F3D
:103AD0009A99993E3333733F000020410000D2424F
:103AE000704700001FB5084A01AB10685168127A90
:103AF00003C309211A704FF4976001AAFFF78AFDEA
:103B000005B05DF804FB00BF20A50008C8234FF4F2
:103B1000806240F6F6300149FFF7D8BD51A5000894
:103B200010B54A4B86B01A889B78ADF808208DF8FE
:103B30000A30474B00F003011A889B78ADF80C203F
:103B40008DF80E30434B04461A889B78ADF8102050
:103B50008DF81230404B1A889B78ADF814208DF800
:103B6000163001F118030DEB030111F8103CC0F3FE
:103B7000C1028DF8003002F118030DEB030212F8B8
:103B8000103C11F80C1C8DF80130C0F38113183370
:103B90006B4413F8100C12F80C2C13F80C3C8DF835
:103BA00002008DF804108DF8052003216A4640F2CA
:103BB00026408DF80630FFF72DFD18B14FF0FF308D
:103BC00006B010BD032140F22A4001AAFFF722FDF2
:103BD0000028F3D1049B6107ADF800304FEA13438E
:103BE0008DF80230059B4FF00301ADF804304FEA29
:103BF00013438DF8063041BF37238DF8003027235B
:103C00008DF80430A20641BF57238DF801304723B9
:103C10008DF80530E30542BF77238DF80230672326
:103C20006A464FF4886048BF8DF80630FFF7F2FC13
:103C30000028C3D1032140F2314001AAFFF7EAFC7A
:103C40000028BBD1054B1C81BAE700BF2AA500089C
:103C50002EA5000832A5000836A50008C8050020DA
:103C6000234B37B51A8902F00303C2F3C10150F8A0
:103C70002330540750F8215048BF5B42910648BF9B
:103C80006D42C2F38111D2051A4A50F8211085FB0A
:103C9000025048BF4942AD0F45EA800581FB021042
:103CA00083FB02329B0F8C0F43EA820344EA8004B9
:103CB0001BBA04214FF4747001AA0193FFF7AAFC08
:103CC00018B14FF0FF3003B030BD2DBA04214FF4CE
:103CD000757001AA0195FFF79DFC0028F1D124BA67
:103CE000042101AA4FF476700194FFF793FCEAE7F0
:103CF000C805002009E3CA027FB506460DF102009F
:103D0000FFF7C0F9214BBDF802401D89E40305F01F
:103D1000030356F82310C5F3C1036A0756F823209E
:103D200048BF4942AB0648BF5242C5F38113E8057C
:103D30004FEAE175A1FB041004FB05004FEA917105
:103D400041EA800109BA01914FEAE270A2FB042125
:103D500004FB001156F823304FEA927242EA8102C6
:103D600048BF5B4212BA0292D917A3FB043204FB8C
:103D700001229B0F43EA82031BBA0C2101AA4FF4D4
:103D800025700393FFF746FC04B070BDC805002002
:103D900010B50446144A86B01068516803AB03C3DB
:103DA0009068C82C186003D94FF0FF3006B010BDE2
:103DB00000238DF80430C823B3FBF4F30221013B48
:103DC00040F2162001AA8DF80530FFF723FC0028E9
:103DD000EAD10C2140F6C12003AAFFF71BFC002802
:103DE000E2D1024B9C81E1E73AA50008C80500201A
:103DF00073B504460846610715D0B0F5C86F12D8F0
:103E0000FCF740FF4349FDF749F806460DF1030072
:103E1000FFF76CF89DF80330082B5FD007D8022B12
:103E200011D0042B50D04FF0FF3002B070BD102BDA
:103E3000F9D14FF08A413046FCF77CFFFDF766F977
:103E4000354985B208E04FF08D413046FCF772FFEE
:103E5000FDF75CF9314985B23046FCF76BFFFDF7A1
:103E600055F980B26DBA40BAE207ADF80450ADF82A
:103E700006003DD4A30710D502214FF4EC7001AA2F
:103E8000FFF7C8FB0028CED102214FF494700DF14A
:103E90000602FFF7BFFB0028C5D114F00400C4D010
:103EA00002214FF4EE7001AAFFF7B4FB0028BAD14B
:103EB00002214FF496700DF10602FFF7ABFB0038BC
:103EC00018BF01204042B0E74FF08C413046FCF76C
:103ED00031FFFDF71BF9124985B2BDE74FF08B4169
:103EE0003046FCF727FFFDF711F90E4985B2B3E71D
:103EF00002214FF4EA7001AAFFF78CFB002892D14F
:103F000002214FF492700DF10602FFF783FB0028A7
:103F1000B0D088E7000048430000C044000040469D
:103F20000000C0450000404510F0010318BF3023D9
:103F300007B582078DF8073042BFDBB243F00C03B0
:103F40008DF80730430748BF9DF807304FF0010157
:103F500048BF43F003030DF107024FF4A47048BFBC
:103F60008DF80730FFF756FB03B05DF804FB04281B
:103F700007B528BF0420012838BF012001388DF87B
:103F8000070001210DF1070240F24F10FFF742FB3D
:103F900003B05DF804FB052307B5B0FBF3F040BAAE
:103FA000ADF80400022101AA4FF4EF70FFF732FBD5
:103FB00003B05DF804FB052307B5B0FBF3F040BA8E
:103FC000ADF80400022101AA4FF4ED70FFF722FBC7
:103FD00003B05DF804FB4FF47A7307B590FBF3F080
:103FE000484300BA0190042101AA4FF4AE70FFF7D4
:103FF00011FB03B05DF804FB052307B5B0FBF3F03C
:1040000040BAADF80400022101AA4FF4AD70FFF7E9
:1040100001FB03B05DF804FB052307B5B0FBF3F02B
:1040200040BAADF80400022101AA4FF4AC70FFF7CA
:10403000F1FA03B05DF804FB1FB520B105B05DF8DF
:1040400004EBFFF74FBD084A01AB10685168127AC4
:1040500003C309211A704FF4976001AAFFF7DAFA37
:1040600005B05DF804FB00BF47A5000807B560B1C7
:10407000074B042101AA40F698200193FFF7CAFAE2
:10408000FEF734FE03B05DF804FB4FF08B33F0E72E
:10409000C0C2C4C607B560B1074B042101AA40F6EF
:1040A0009E200193FFF7B6FAFEF720FE03B05DF8FD
:1040B00004FB4FF0A333F0E7202830382DE9FF410F
:1040C000684B042101AA044668200193FFF7A2FA75
:1040D000A32314F0400803BF19461A461846C82106
:1040E0001CBFC222C02014F4C0768DF804300CBF6F
:1040F000A323C4238DF806108DF8072004BF1946AA
:104100001A468DF808304FF0A3031CBFCC21C622FD
:104110008DF80B304AF2A3338DF805008DF80910A5
:104120008DF80A200A2101AA40F6A720ADF80C302C
:10413000FFF770FA14F003070CBFD82320230121E6
:1041400040F6B62001AA8DF80430FFF763FA14F0A8
:10415000200077D0FFF7C6FCD6B104F48073002BA3
:1041600015BFB220B0208B21802115BFB622B4220A
:104170009B2390238DF804008DF805108DF8062000
:10418000042140F6A22001AA8DF80730FFF742FA79
:10419000E3075AD5F82301AA01214FF40B608DF8EB
:1041A0000430FFF737FAFA210720FFF721FE072036
:1041B000FFF7BAFE0120FFF7DAFE6420FFF7EBFEFF
:1041C0004FF4FA70FFF7F7FEC8212748FFF703FF07
:1041D0002820FFF711FF0A20FFF71EFF14F0020F3F
:1041E0000CBFD823D923012101AA40F23D708DF8DC
:1041F0000430FFF70FFA14F0040018BF0120FFF796
:1042000035FF14F0100018BF0120184DFFF742FFD2
:1042100044F008036B81FEF769FDB8F1000F0CBF95
:1042200000230623DEB9AB7314F0140F1EBFAB7B63
:104230001033AB7317B1AB7B0433AB73002004B006
:10424000BDE8F081FFF7F8FE86E7D823012101AA37
:104250004FF40B608DF80430FFF7DCF9BEE706334E
:10426000E1E700BF02CAE30909E3CA02C80500206A
:104270002DE9F04F9946002389B0129DDFF84CA13B
:104280000746884693466946139A9AF80E002B8093
:10429000FEF740FF064650BBBAF80A3013F0140F81
:1042A00000F09180019A009814BA4FEA244C0CFB5C
:1042B0000CFC00BACBF80000001400FB00C002990F
:1042C000039A09BACBF80810091401FB010112BACC
:1042D000CBF80C20121402FB021202F17142B2F16F
:1042E000007FCBF8044008D9FEF700FD2E804FF088
:1042F000FF36304609B0BDE8F08F2A8842F480725C
:104300002A801022580620D502F12001694411F8B4
:10431000204C11F81F0C063240EA0420A8F80000D7
:1043200011F81E4C11F81D0CD2B240EA0420A8F876
:10433000020011F81C0C11F81B1C41EA0021A8F81E
:104340000410298841F00801298013F4C07F1DD092
:1043500002F12001694411F8204C11F81F0C0632BB
:1043600040EA0420388011F81E4C11F81D0CD2B21E
:1043700040EA0420788011F81C0C11F81B1C41EA5B
:104380000021B980298841F070012980990716D051
:104390000DEB02046378E578DA0708D5DAF8003027
:1043A0002BB105F007010131C5F3C20098476378CE
:1043B0001B0704D5DAF804300BB1A8099847484622
:1043C000FFF78EFB95E702469CE700BFC80500207B
:1043D00090F90030002B0CDC0DD190F90130002B4E
:1043E0000BDC0CD190F90230002B0ADC0BD006203C
:1043F0007047002070470420704701207047052057
:104400007047022070470720704707B503230090CC
:1044100002226B21D020FDF7A4FB03B05DF804FB62
:1044200007B50223009004221B21D020FDF799FB41
:1044300003B05DF804FB07B50223009004221C21A1
:10444000D020FDF78EFB03B05DF804FB0346062287
:104450006B21D020FDF7ABBB034605226A21D0209B
:10446000FDF7A5BB034601223721D020FDF79FBBF6
:1044700008B50220FFF7C9FF0320FFF7D1FF002096
:10448000FFF7D9FF0020FFF7E1FF0020FFF7E4FF6F
:10449000BDE808400020FFF7E5BF0000002330B56D
:1044A00089B0012275218DF8003068206B46FDF738
:1044B000D7FA0123514C5248237002F085FF9DF832
:1044C0000030682B0CD0BFF34F8F4E494E4BCA685B
:1044D00002F4E0621343CB60BFF34F8F00BFFDE7F0
:1044E000FEF7FCFF002840F084807820FEF796FF5E
:1044F00010B9434802F068FF7820FEF7E3FD10B9D9
:10450000424802F061FFC820FEF748FF10B940485A
:1045100002F05AFFFFF7FAFA10B93E4802F054FFD2
:104520003D48FFF755FF02463C48FFF751FF014663
:104530003B48FFF74DFF830143EAC100104380B2BF
:10454000FFF7EEFA10B9374802F03EFF40F2731061
:10455000FFF7B4FD10B9344802F036FFC820FFF76A
:1045600017FC10B9314802F02FFF05A902A8FFF788
:1045700039F9072836D101A8FEF764FD019D02989C
:10458000FCF784FB2946FCF7D5FBFCF799FD02906C
:104590000398FCF77BFB2946FCF7CCFBFCF790FD6E
:1045A00003900498FCF772FB2946FCF7C3FBFCF769
:1045B00087FD049002A8FFF753FB0DF10200FEF700
:1045C00061FDBDF80220059B05A853430593069B9A
:1045D00053430693079B53430793FFF78DFB144800
:1045E00002F0F2FE0120FFF7BFF810B9114802F007
:1045F000EBFE0023237009B030BD00BF640600202D
:1046000047B1000800ED00E00400FA0567B10008BA
:104610008BB10008B0B100084C0000204F00002012
:1046200052000020E1B1000806B200082AB20008DA
:104630004DB200086EB200082DE9F04F6E4C89B003
:104640000DF10B0301936D4903AB6D48009404AA6F
:10465000FFF70EFE2388DB0540F1C5800498FCF7C8
:1046600015FB4FF04251FCF765FB664B06461860A0
:104670000598FCF70BFB4FF04251FCF75BFB624BDC
:10468000054618600698FCF701FB4FF04251FCF715
:1046900051FB5E4B044618600798FCF7F7FA4FF0A1
:1046A0004251FCF747FB5A4B074618604FF0404118
:1046B0002846FCF73FFB314680463046FCF732FA8D
:1046C000414682463846FCF735FB51468146204636
:1046D000FCF730FB01464846FCF724FAFBF79CFE4A
:1046E00003F0ACFD42A3D3E90023FBF7EDFEFCF79A
:1046F000C3F9484B214618602046FCF713FA41469F
:1047000083462846FCF716FB594680462046FCF7B0
:1047100011FB01464046FCF703FA4FF07E51FCF7CF
:1047200001FAFBF779FE8046894638465946FCF780
:1047300001FB514683462846FCF7FCFA01465846E1
:10474000FCF7F0F9FBF768FE42464B4603F09EFD8E
:1047500027A3D3E90023FBF7B7FEFCF78DF92E4B17
:10476000314618603046FCF7E5FA2946804628466F
:10477000FCF7E0FA01464046FCF7D4F921468046B2
:104780002046FCF7D7FA01464046FCF7C9F93946FE
:1047900080463846FCF7CEFA01464046FCF7C0F9A1
:1047A000FBF73AFE8046894628462146FCF7C2FAC6
:1047B000394604463046FCF7BDFA01462046FCF770
:1047C000B1F90146FCF7AEF9FBF726FE42464B462F
:1047D00003F05CFD06A3D3E90023FBF775FEFCF7AD
:1047E0004BF90E4B186009B0BDE8F08FAFF30080B5
:1047F0006666666666A64C40F0050020F20500205D
:10480000F805002058000020E0050020DC0500200D
:10481000D8050020EC050020E8050020E405002074
:1048200073B50021804A0846FDF767FB7F4B197876
:10483000002900F0C78000217D4A46207D4CFDF70D
:104840005CFB0A2100207C4AFDF757FB2368002B04
:1048500080F2BA80794A0A215020FDF74EFB0C23E2
:1048600022680093032352420A215F20744CFDF713
:10487000FDFA14210020734AFDF73FFB2368724DB7
:10488000002B80F2AB806D4A14215020FDF735FBE0
:104890002B6822681A440C23009303235242642499
:1048A0000C2514215F20FDF7E1FA1E210020674A44
:1048B000FDF723FB664E1E213A20664AFDF71DFBDD
:1048C0001E215020644AFDF718FB3268022392FB38
:1048D000F4F21E212D200095FDF7C8FA326802235C
:1048E00092FBF4F1442004FB112200951E21FDF7F8
:1048F000BDFA336893FBF4F204FB1233092B06DC98
:10490000022300221E213E200095FDF7AFFA282148
:104910000020524AFDF7F1FA514B00211C68204655
:10492000FCF7A6FB002865D020464E49FCF7FAF8B4
:10493000FCF7ECFB0C23024628212D2000934A4C67
:104940000323FDF793FA32210020484AFDF7D5FAF8
:1049500000212068FCF78CFB00284DD03221374A1B
:104960004620FDF7CAFA20680C2500F10040FCF74C
:10497000CDFB02230246322150200095FDF776FA46
:1049800032216020334AFDF7B8FA246804F100446C
:104990002046FCF795FBFCF779F901462046FCF729
:1049A000BFF83349FCF7C6F9FCF7B0FB0123024618
:1049B00032216A200095FDF759FA02B0BDE8704037
:1049C000FDF7BCB92B4A38E72B4A0A215020FDF7E6
:1049D00094FA0C2300932268032345E71421264A06
:1049E0005020FDF78AFA0C2321682A6800930A44B4
:1049F000032354E720469BE732211F4A4620FDF758
:104A00007CFA2068FCF782FB0C2502460223322147
:104A100050200095FDF72AFA322160200D4AFDF75B
:104A20006CFA2468B4E700BF91B20008740000205B
:104A300098B2000860060020A0B20008A8B20008E2
:104A400070000020ACB200083C060020B2B20008A2
:104A500058060020B8B20008BAB20008BCB200087C
:104A6000540600200000B44344060020C2B20008EF
:104A7000000020419CB20008AAB20008000000001B
:104A80003B4BF0B51C6887B0A4F2C6246400A31C9D
:104A900038DBB4F5977F37DC032394FBF3F4354A16
:104AA000354B16781F68B6FA86F3344D5B091370E0
:104AB0002B78012B2AD10024CDE90344304B314916
:104AC0001868FCF737F9FCF7FBFA2F4B02901868CF
:104AD0002C49FCF72FF9FCF7F3FA2C4B01901868DE
:104AE0002B49FCF727F9FCF7EBFA2A4B2A4A2B490A
:104AF00000901B6812680968294802F0FDFB2C70C1
:104B000007B0F0BD0024CAE76424C8E7254B186845
:104B1000FCF7D6FA0546AEB13846FBF76BFC12A39C
:104B2000D3E90023FBF7FAFDFBF77EFF80EAE07292
:104B3000A2EBE072D2B22346114600951A4802F069
:104B4000DBFBDDE7194B1C6C194B1868FCF7B8FA56
:104B5000234602462946174807B0BDE8F04002F058
:104B6000CBBB00BFAFF30080CDCCCCCCCCCCF43FE2
:104B700058060020FE050020600600204A0600209E
:104B800018000020000020411C00002044060020E6
:104B90000000C8420000002008000020040000209F
:104BA000CBB2000854060020E6B20008002C0140F9
:104BB00050060020F6B200081A4B70B51868FCF7D2
:104BC00065F81949FCF76AF9184B01211860184B70
:104BD000184C1868FDF756FB174B02211868FDF7B3
:104BE00051FB164B164D186CFCF74CF80321FDF7E2
:104BF00049FB0320FDF772FB124B134A1870002388
:104C000019461370DEB2B04202D801B1107070BD07
:104C100029684906FCD514F8011B0133696001219C
:104C2000F0E700BF580600200000C8420006002040
:104C3000540600205B05002050060020002C014097
:104C40000038014004060020050600201FB5114869
:104C5000114A0023012402604FF46022CDE90133A0
:104C60000393836003730375C2614360046100F0C2
:104C7000B9FE08B100F06CF90323CDE9013400233B
:104C8000044801A9039300F069FD08B100F060F940
:104C900004B010BD0806002000240140102210B509
:104CA000044688B00DEB0200002102F031FD2268BD
:104CB000174B9A422AD103F56C439A69032442F4B4
:104CC00000729A619A69134802F400720192019A83
:104CD0009A6904A942F004029A619A6902F00402F6
:104CE0000292029A9A6942F008029A619B6903F063
:104CF00008030393039B0823CDE9043401F026F84D
:104D0000054804A9CDE9044401F020F808B010BD1D
:104D10000024014000080140000C014010222DE950
:104D2000F04188B00DEB0200002102F0F1FC2F4BA6
:104D30002F4F9A692F4D42F020029A619A693846A6
:104D400002F020020192019A9A6948F2101142F091
:104D500004029A619A69012402F004020292029A02
:104D60009A69002642F008029A619B69012203F0C9
:104D700008030393039B01F0C7F80122284648F279
:104D8000380101F0C1F84FF0030848F2101338461B
:104D900004A9CDE90434CDE9066800F0D7FF20234B
:104DA000384604A9CDE90436069400F0CFFF4FF44D
:104DB0008052114B284604A9CDE90423069400F043
:104DC000C5FF48F23803284604A9CDE90434CDE9EB
:104DD000066800F0BBFF22460221282000F002FFF7
:104DE000282000F02FFF08B0BDE8F081001002403D
:104DF00000080140000C01400000211010B594B0E3
:104E0000142200210CA802F083FC142200210DEBD7
:104E1000020002F07DFC1022002101A802F078FCC3
:104E200002244FF480330122CDE91143CDE90A2356
:104E30004FF4E0130AA80E92139301F07FF808B123
:104E400072B6FEE70F23CDE905344FF48063079077
:104E5000CDE90830214605A801F046FA08B172B63E
:104E6000FEE74FF4004301A80194039301F0F8FA20
:104E700008B172B6FEE714B010BD000008B500F02E
:104E8000A7FBFFF7BBFFFFF749FFFFF7DFFE00F0CF
:104E900037FA00F029F900F055F900F085FA00F032
:104EA000C3FA00F0DDFA282000F0DAFEFCF7E2FB9E
:104EB0001D4800F015FE00211C4801F023FE0421CE
:104EC0001A4801F01FFE0C21194801F01BFE3C217D
:104ED000184801F025FC3C21174801F021FCFDF7A2
:104EE0002BF8FFF7C5FAFFF7D9FA144800F032F8AB
:104EF00001221349114802F028F9282000F0A2FEEF
:104F0000FFF78EFC0F4B1B7853B9FFF7B9FDFFF786
:104F100087FC01220C4B1A7000220C4B1A70FEE722
:104F2000FFF74AFEF5E700BF0806002074060020E0
:104F30004C07002004070020BC0600209407002036
:104F40005A0500206406002048060020490600207B
:104F500072B6FEE7044B02221860044B1868002367
:104F60008068194602F038BA6C06002090000020D4
:104F7000022808B505D902F019FC092303600020B6
:104F800008BD0120FCE700000138012810B51446D7
:104F90000BD809484FF0FF33006892B201F0AEFE23
:104FA000002818BF0524204610BD02F0FFFB09238E
:104FB0004FF0FF340360F6E76C060020022808B5C6
:104FC00006D902F0F3FB092303604FF0FF3008BD60
:104FD0000020FCE708B502F0E9FB092303604FF06D
:104FE000FF3008BD08B558B909484FF0FF3301221A
:104FF000006801F0D8FE002814BF0520012008BD7C
:1050000002F0D4FB092303604FF0FF30F7E700BF45
:105010006C060020022808B504D84FF400534B60FA
:10502000002008BD02F0C2FB09230360F8E700007E
:10503000104B07B59A69052042F001029A619A69FE
:1050400002F001020092009ADA6942F08052DA61BD
:10505000DB6903F080530193019B00F0B1FD064A28
:10506000536823F0E06343F00073536003B05DF8CE
:1050700004FB00BF0010024000000140FEE7FEE715
:10508000FEE7FEE7FEE770477047704700F0B2BAF0
:10509000014801F041BF00BF940700204FF4805049
:1050A00000F040BF0B4A0346116810B509B90A4920
:1050B0001160106809490A4C0344091B8B4206D948
:1050C00002F074FB0C2303604FF0FF3010BD13603F
:1050D000FCE700BF7006002070090020005000208F
:1050E000000400007047000010B58CB000212022A1
:1050F00004A802F00DFB00244FF08043104803A9E0
:10510000C0E900344FF6FF73C0E90334032303936F
:105110000123CDE90144846084610593099301F082
:10512000BDFB08B1FFF714FF054801A9CDE9014413
:1051300001F0EAFC08B1FFF70BFF0CB010BD00BF97
:105140000407002010B500248CB00021202204A800
:1051500002F0DEFA1048114B03A9C0E900344FF603
:10516000FF73C0E90334032303930123CDE9014412
:10517000846084610593099301F090FB08B1FFF707
:10518000E7FE054801A9CDE9014401F0BDFC08B1E5
:10519000FFF7DEFE0CB010BDBC060020000400408E
:1051A00003680F4A82B093420BD10E4B9A6942F4C6
:1051B00000629A619B6903F400630093009B02B054
:1051C0007047094A9342FAD1064BDA6942F0040269
:1051D000DA61DB6903F004030193019BEFE700BF91
:1051E000002C01400010024000080040102210B5C1
:1051F000044688B000210DEB020002F089FA236812
:10520000B3F1804F1BD103F50433DA6942F0010298
:10521000DA61DA6902F001020092009A9A6942F0BA
:1052200004029A619B6903F004030193019B032329
:105230000F4804A9049300F089FD08B010BD0D4A81
:105240009342FAD10C4BDA6942F00202DA61DA6970
:1052500002F002020292029A9A6942F004029A61F2
:105260009B6903F004030393039BC023E0E700BFA3
:1052700000080140000400400010024010B5044640
:1052800086B01022002102A802F042FA2368174AD1
:10529000934215D1164B4FF400619A69154842F0BC
:1052A00004029A619B6903F004030093009B0223AC
:1052B000CDE90213059302A900F048FD06B010BD28
:1052C0000D4A9342FAD10A4B0C489A6902A942F05E
:1052D00008029A619B69C02203F008030193019BB5
:1052E0000223CDE902230593E6E700BF002C01402D
:1052F000001002400008014000080040000C01407E
:1053000010B5002492B01C22214603A8CDE9014427
:1053100002F0FEF9202221460AA802F0F9F99023B2
:105320001F48204AC0E90544C0E9002342F20F7338
:105330008460C0E9033401F085FA08B1FFF708FE84
:10534000174801A9CDE9014401F0DEFB08B1FFF7E0
:10535000FFFD0C220024602311480DEB0201CDE972
:105360000334CDE907440594099401F017FB08B113
:10537000FFF7EEFD4FF4005309480AA9CDE90A44AE
:10538000CDE90C440E940F93119401F0EBFB08B19E
:10539000FFF7DEFD0248FFF771FF12B010BD00BF3E
:1053A0004C070020002C014010B500248AB01C22BC
:1053B000214603A8CDE9014402F0AAF91848194B87
:1053C0008460C0E9003441F61F438461C0E90334BE
:1053D00001F038FA08B1FFF7BBFD114801A9CDE98A
:1053E000014401F091FB08B1FFF7B2FD00226023F8
:1053F0000B4803A9CDE903320592079201F0CEFADA
:1054000008B1FFF7A5FD0422054803A901F0C6FA7B
:1054100008B1FFF79DFD0248FFF730FF0AB010BD4D
:10542000740600200008004008B54FF4FA330A481B
:105430000A4AC0E9002300230C22C0E90233C0E974
:1054400005230361C36101F02BFC18B1BDE80840DE
:10545000FFF77EBD08BD00BFD8070020003801401F
:1054600008B54FF416530A480A4AC0E9002300233E
:105470000C22C0E90233C0E905230361C36101F0D6
:105480000FFC18B1BDE80840FFF762BD08BD00BFC2
:105490009407002000480040102210B5044688B050
:1054A0000DEB0200002102F033F92368304A9342E9
:1054B00029D1304B4FF400719A692F4842F4804251
:1054C0009A619A6902F480420092009A9A6942F0C5
:1054D00004029A619B6903F004030193019B022378
:1054E000CDE90413032304A9079300F02FFC4FF424
:1054F0008060002304A9CDE904031F48069300F04F
:1055000025FC08B010BD1D4A9342FAD1194B04A9DD
:10551000DA691B4842F48022DA61DA69002402F475
:1055200080220292029A9A6942F008029A619B696B
:105530004FF4806203F008030393039B0223CDE939
:1055400004230323079300F001FC4FF4006304A934
:105550000B48CDE90434069400F0F8FB0122214603
:10556000272000F03FFB272000F06CFBC9E700BFBD
:10557000003801400010024000080140004800408F
:10558000000C01400C480D490D4A002302E0D4589C
:10559000C4500433C4188C42F9D30A4A0A4C00237D
:1055A00001E013600432A242FBD3FFF79BFD02F03F
:1055B00003F9FFF763FC704700000020F0000020B3
:1055C00010B40008F00000206C090020FEE7000085
:1055D000074A08B51368032043F01003136000F076
:1055E000EFFA0020FBF7B2FFFFF722FD002008BD15
:1055F00000200240034A044B11681B780B441360DF
:10560000704700BF1C0800207C000020F7B5002672
:1056100004460D460196FBF7B9FF236807469A68D2
:10562000D10508D50120A36A84F8246043F0200343
:10563000A36203B0F0BD5A68D20503D4DB6A13F449
:10564000700F3DD03D4B02201E6800F083FF2368A1
:105650003B4A1969B6FBF0F611423A4A51D1D86873
:10566000394908424DD1196911425BD1DA68374B8B
:105670001A4214BF292314235E43019BB34223D251
:105680006A1C04D0002D53D1019BB3420AD3019B65
:1056900001330193F1E76E1C13D065B923681B68D1
:1056A00098070DD4A36A032043F00403A3620023E8
:1056B00084F82430BDE7FBF769FFC01BA842EDD892
:1056C000226813689907E6D56FF012032268136009
:1056D000A36A43F40073A362936803F46023B3F5F1
:1056E000602F0CD1237B53B9A36A23F48073A36288
:1056F000A36ADB0403D4A36A43F00103A36200207E
:1057000097E71969114203D1D968104A11420BD0A9
:1057100019690F4A114209D1DB68134214BFFC23F7
:105720005423A9E72923A7E75423A5E7FC23A3E7EC
:10573000FBF72CFFC01BA842A6D8A8E778000020E2
:105740002449922492244912244992009224490027
:10575000499224000368D86C70470000002373B599
:10576000019390F824300446012B6CD0012380F87B
:1057700024304D680268062D086805EB850322D8A1
:105780001F26556B053B9E4025EA060500FA03F3EC
:105790002B43536309288B6800EB40054FF007014A
:1057A00029D9D6681E3DA94026EA0101AB400B432A
:1057B000D360A0F11003012B25D90020002384F829
:1057C000243002B070BD0C2D4FF01F0509D8166BA8
:1057D000233B9D4026EA050500FA03F32B431363A0
:1057E000D8E7D66A413B9D4026EA050500FA03F357
:1057F0002B43D362CEE71069A94020EA0101AB40F8
:105800000B431361D9E7114B9A4216D193681B02DF
:10581000D3D49368102843F400039360CDD10C4B8C
:105820000C4A1B68B3FBF2F30A2253430193019B1A
:10583000002BC2D0019B013BF8E7A36A012043F093
:105840002003A362BAE70220BBE700BF00240140A7
:105850007800002040420F00806A7047002337B56F
:105860000193036804469A68D20702D5002003B06A
:1058700030BD9A6842F001029A60144B144A1B68CA
:10588000B3FBF2F30193019BE3B9FBF77FFE0546FF
:1058900023689B68DB07E9D4FBF778FE401B0228EE
:1058A000F6D923689B6813F00103F1D1A26A0120A5
:1058B00042F01002A262E26A84F8243042F001024F
:1058C000E262D4E7019B013BDCE700BF78000020E7
:1058D00040420F0010B590F824300446012B54D0FC
:1058E000012380F82430FFF7B9FF002849D1A36ACB
:1058F000274A23F4407323F0010343F48073A36227
:105900002368934204D123494A6812F4702F2ED1A0
:10591000A26A22F48012A2625A68520541BFA26AAA
:1059200022F4405242F48052A262A26A12F48052DF
:105930001CBFE26A22F00602E262002284F8242000
:105940006FF002021A609A6802F46022B2F5602FCA
:1059500013D10F4A934205D1A2F58062526812F426
:10596000702F0AD19A6842F4A0029A6010BDA26A10
:1059700042F48012A2624A68CFE79A6842F4801229
:10598000F3E7002384F82430F0E70220EEE700BFBD
:10599000002801400024014038B5036804469A6895
:1059A000D10701D4002038BD9A6822F001029A6024
:1059B000FBF7ECFD054623689B68DB07F2D5FBF798
:1059C000E5FD401B0228F6D923689B68DA07F2D56B
:1059D000A36A012043F01003A362E36A43F00103CA
:1059E000E362E0E7F8B5044600286DD0836A23B986
:1059F000C36280F82430FFF751F92046FFF7CCFF4F
:105A0000A36A13F0100361D100285FD1A26A616814
:105A100022F4885222F0020242F00202E569A668EE
:105A2000A262227B2943B6F5807F41EA420136D04B
:105A3000771E7D427D412D02277D012F06D182BB3D
:105A4000A269013A45EA423242F400652268B6F59D
:105A5000807F576827F4694745EA070555609768CE
:105A60001D4D05EA070545EA0105956001D0012EA7
:105A700002D12369013B1B05D56A25F470052B4330
:105A8000D3629268154B1340994213D10023E3620D
:105A9000A36A23F0030343F00103A362F8BD354674
:105AA000CAE7A26A42F02002A262E26A42F0010260
:105AB000E262CBE7A36A23F0120343F01003A36270
:105AC000E36A43F00103E3620120E7E7A36A43F0DE
:105AD0001003A362F8E700BFFDF7E1FFFE0E1FFF12
