:020000040800F2
:10000000400C00201502000861200008D9170008E4
:10001000AB1E0008650B000809390008000000004D
:10002000000000000000000000000000F1290008AE
:100030006D0F00080000000005250008E92B0008EE
:100040002F0200082F0200082F0200082F020008CC
:100050002F0200082F0200082F0200082F020008BC
:100060002F0200082F0200082F0200082F020008AC
:100070002F0200082F0200082F0200082F0200089C
:100080002F0200082F0200082F0200082F0200088C
:100090002F0200082F0200082F0200082F0200087C
:1000A0002F0200082F0200082F0200082F0200086C
:1000B0008D2E0008A12E00082F0200082F02000834
:1000C0002F0200082F0200082F0200082F0200084C
:1000D0002F0200082F0200082F02000881340008B8
:1000E000710F00082F0200082F0200082F020008DD
:1000F0002F0200082F0200082F0200082F0200081C
:100100002F0200082F0200082F0200082F0200080B
:100110002F0200082F0200082F0200082F020008FB
:100120002F0200082F0200082F0200082F020008EB
:1001300000F002F800F05FF80AA090E8000C82449A
:100140008344AAF10107DA4501D100F054F8AFF277
:10015000090EBAE80F0013F0010F18BFFB1A43F0A5
:100160000103184764DA000084DA00000A444FF003
:10017000000C10F8013B13F0070408BF10F8014B06
:100180001D1108BF10F8015B641E05D010F8016B4B
:10019000641E01F8016BF9D113F0080F1EBF10F8AF
:1001A000014BAD1C0C1B09D16D1E58BF01F801CBD2
:1001B000FAD505E014F8016B01F8016B6D1EF9D555
:1001C0009142D6D37047000000230024002500266A
:1001D000103A28BF78C1FBD8520728BF30C148BFAA
:1001E0000B607047642900F09B80002070471FB5AA
:1001F0001FBD10B510BD00F063FA1146FFF7F7FF01
:1002000005F032FA00F081FA03B4FFF7F2FF03BC05
:1002100003F008FC0948804709480047FEE7FEE76D
:10022000FEE7FEE7FEE7FEE7FEE7FEE7FEE7FEE7A6
:1002300004480549054A064B70470000ED2B0008AD
:100240003101000840060020400C0020400800203A
:1002500040080020704710B54C1084EA530404D5C0
:100260004042C1F1000138BF491E1B4204D5524231
:10027000C3F1000338BF5B1E00F0E8F814F0804FB4
:1002800004D04042C1F1000138BF491E14F0004FB4
:1002900004D05242C3F1000338BF5B1E10BD000002
:1002A0000FB4044910B503AA029800F0ABF910BCD2
:1002B0005DF814FB640000202DE9F0410E46044671
:1002C000002020622046E168884730B3252805D009
:1002D000D4E901219047206A401CF2E7E1682046FA
:1002E00000278847050018D0A5F14100192802D839
:1002F00020354FF400673246294620462760FFF735
:1003000071FF40B1012804D0F61D26F0070608361B
:10031000D8E7361DD6E72846DAE7206ABDE8F0813F
:100320002DE9F0410646002410687529314616A5CE
:1003300010D0AFF30080002802DA404213A507E096
:1003400031688A0701D512A502E0490704D511A535
:10035000012401E0AFF3008000210A2206F1240706
:1003600009E0B0FBF2FCB0FBF2F302FB1C00303002
:1003700078541846491C0028F3D123462A463046B3
:10038000BDE8F04100F0E4B8000000002D000000DE
:100390002B0000002000000040EA010310B59B077D
:1003A0000FD1042A0DD310C808C9121F9C42F8D0DF
:1003B00020BA19BA884201D9012010BD4FF0FF3090
:1003C00010BD1AB1D30703D0521C07E0002010BDA6
:1003D00010F8013B11F8014B1B1B07D110F8013B32
:1003E00011F8014B1B1B01D1921EF1D1184610BD13
:1003F00002F0FF0343EA032242EA024200F002B89D
:100400004FF000020429C0F0128010F0030C00F03D
:100410000D81CCF1040CBCF1020F18BF00F8012BC8
:10042000A8BF20F8022BA1EB0C0100F0FFB85FEA97
:10043000C17C24BF00F8012B00F8012B48BF00F855
:10044000012B7047704770477047704753EA020CA2
:1004500000F069802DE9F04B4FF00006002B1FBF24
:10046000B3FA83F503FA05F424FA05F65E4012BFE9
:100470001643B2FA82F502FA05F4C5F120051EBF53
:1004800022FA05FC44EA0C04203556EA044C4FEAF3
:10049000144418BF641C4FF000084FF0000990424C
:1004A00071EB030C39D3002919BFB1FA81F701FAB6
:1004B00007F6B0FA80F700FA07F6C7F120071EBF6B
:1004C00020FA07FC46EA0C062037B6FBF4FCA7EB43
:1004D0000507103F07F01F0BCBF120060CFA0BFBB2
:1004E0002CFA06F644BFB3460026202FA4BF5E4672
:1004F0004FF0000B5BEA060C08BF4FF0010B19EB45
:100500000B09ABFB027C48EB0608C01B06FB02CCC8
:100510000BFB03CC71EB0C01C1E70B4602464146D5
:100520004846BDE8F08B13B54FF000004FF00001D6
:10053000AFF30080BDE81C40704710B500F09CF898
:10054000006810BD10B5044600F096F8046010BDB8
:100550002DE9F0470D4699469246044600F12408DD
:100560000168880604D5E06921F01001216000E0EF
:100570000120A84201DD471B00E00027A1697A198C
:1005800002EB0900081AA0612078C00602D42046B8
:10059000AFF30080002608E0D4E901211AF8060034
:1005A0009047206A401C761C20624E45F4DB207880
:1005B000C0060AD52046AFF3008006E0D4E9012149
:1005C00030209047206A401C2062381EA7F10107A6
:1005D000F4DC07E0D4E9012118F805009047206A0F
:1005E000401C2062281EA5F10105F3DC2046AFF374
:1005F00000802078000602D50220BDE8F0870120A7
:10060000FBE70000074B70B50D467B4400F03DF85A
:100610000446284600F04CF810B14FF0FF3070BD92
:10062000204670BD974800004FF0000200B5134609
:1006300094469646203922BFA0E80C50A0E80C5002
:10064000B1F12001BFF4F7AF090728BFA0E80C50B3
:1006500048BF0CC05DF804EB890028BF40F8042BAC
:1006600008BF704748BF20F8022B11F0804F18BF19
:1006700000F8012B7047000000487047DC0500209F
:1006800001694A1C02610878704700B58FB0CDE956
:1006900001310021059105497944CDE90310114646
:1006A0006846FFF709FE0FB000BD0000E5FFFFFF41
:1006B000007B00F08000704700487047DC05002098
:1006C0007546FFF7F9FFAE4605006946534620F030
:1006D0000700854618B020B5FFF7AAFDBDE8204009
:1006E0004FF000064FF000074FF000084FF0000BEE
:1006F00021F00701AC46ACE8C009ACE8C009ACE8A1
:10070000C009ACE8C0098D46704710B50446AFF388
:1007100000802046BDE81040FFF776BD21B1826819
:1007200042F00102826003E0826822F001028260EE
:100730007047000010B504461248844208D10121D8
:10074000401501F06BFF0021601501F067FF17E015
:100750000D48844208D10121001501F05FFF0021FE
:10076000201501F05BFF0BE00848844208D101210D
:10077000C80301F053FF00214FF4004001F04EFF89
:1007800010BD00000024014000280140003C014051
:10079000014600208A6802F004020AB1012000E04C
:1007A000002070470146C86C80B2704702460020A6
:1007B00013680B400BB1012000E000207047014698
:1007C00000208A6802F008020AB1012000E000203F
:1007D0007047000030B502460020002350680F4CDF
:1007E00020400D790C6844EA05242043506090684D
:1007F0000B4C2040D1E902542C434D7944EA450486
:1008000020439060D06A20F470000C7C641EE4B237
:10081000234340EA0350D06230BD0000FFFEF0FFEA
:10082000FDF7F1FFF0B504460D4600200021092D2B
:1008300011DDE068A5F10A0606EB4607072606FA71
:1008400007F18843A5F10A0606EB460603FA06F10E
:100850000843E0600CE0206905EB4507072606FA2F
:1008600007F1884305EB450603FA06F108432061CA
:10087000072A0FDA606B561E06EB86071F2606FA5C
:1008800007F18843561E06EB860605FA06F1084373
:10089000606322E00D2A0FDA206BD61F06EB860775
:1008A0001F2606FA07F18843D61F06EB860605FACF
:1008B00006F10843206310E0E06AA2F10D0606EBA2
:1008C00086071F2606FA07F18843A2F10D0606EBFC
:1008D000860605FA06F10843E062F0BD816841F042
:1008E00008018160704721B1826842F4A0028260F1
:1008F00003E0826822F4A00282607047816841F0C0
:1009000004018160704700002DE9F04786B0494836
:100910000068A0F2C6204000032190FBF1FABAF172
:10092000000F01DA4FF0000ABAF1640F01DD4FF059
:10093000640A4148006807F0FAF805463F4A404B10
:1009400006F06EFF074607F0C3F88146B9F1000FC5
:1009500001DAC9F100093848006807F0E8F80746ED
:10096000364A374B06F05CFF054607F0B1F80446FF
:10097000002C00DA64423348007808B9012000E016
:100980000020304908703048007801282DD12F49C7
:100990002F48006807F06EFE804607F0CFFD054641
:1009A0002A492C48006807F065FE804607F0C6FD1E
:1009B000064629492948006807F05CFE804607F092
:1009C000BDFD07460020CDE90250CDE90076049038
:1009D00023480368234802682348016823A0FFF7DF
:1009E0005FFC00201849087021E01648007868B9BB
:1009F0002548006807F0A2FD054609F0FF02E1B2B4
:100A00005346009021A0FFF74BFC10E023480068FC
:100A100007F094FD05461C48006807F08FFD064668
:100A20001F4803882A4631461EA0FFF739FC06B04E
:100A3000BDE8F0871400002008000020CDCCCCCC0D
:100A4000CCCCF43F680100202A00002000002041A7
:100A5000A8000020A40000200000C8422C000020B4
:100A6000D0000020C8000020CC0000207B4325647B
:100A70003A25643A25643A25643A25643A25643A6D
:100A800025643A2564240000180000207B41256479
:100A90003A25643A25643A25647D24001C00002030
:100AA000402C01407B4225643A25643A25647D242C
:100AB0000000000000B587B001214FF4037001F081
:100AC0009DFD4FF4004001F07DFD0320ADF80400D2
:100AD00000208DF8070001A91C4800F005FD082042
:100AE000ADF8040000208DF8070001A9184800F0B7
:100AF000FBFC1848FFF71EFE002002908DF80C004A
:100B00008DF80D004FF46020049000200590012026
:100B10008DF8180002A90F48FFF75CFE01210D486F
:100B2000FFF7FCFD0B48FFF7D9FE00BF0948FFF7B0
:100B300046FE0028FAD10748FFF7E0FE00BF05484F
:100B4000FFF726FE0028FAD107B000BD000C0140D7
:100B5000000801400024014001490860704700007E
:100B600000860D4200BFFEE738B5002000906B46BE
:100B700001227521682004F0D1FC01202E49087063
:100B80002EA0FFF78DFB9DF8000068280ED000BF57
:100B90003348006800F4E06032490843001D3049E2
:100BA0000860BFF34F8F00BF00BFFEE704F0BCFE3C
:100BB00000283CD1782005F0C1FC10B91FA0FFF738
:100BC0006FFB782004F09EFD10B927A0FFF768FBAB
:100BD000C82005F065FC10B92DA0FFF761FB03F0FC
:100BE000FDFC10B934A0FFF75BFB404804F001FDA9
:100BF000044603F04DFF10B93DA0FFF751FB40F252
:100C0000731003F093FB10B943A0FFF749FBC82012
:100C100003F06EFE10B94AA0FFF742FB06F0B6FBE8
:100C2000012005F039FB10B94EA0FFF739FB002079
:100C30000149087038BD0000060000206D70755F26
:100C40007365745F73656E736F7220636F6D706C24
:100C5000657465202E2E2E2E2E2E0D0A000000000B
:100C60000CED00E00000FA056D70755F636F6E6655
:100C700069677572655F6669666F20636F6D706C1A
:100C8000657465202E2E2E2E2E2E0D0A00000000DB
:100C90006D70755F7365745F73616D706C655F72A5
:100CA00061746520636F6D706C657465202E2E2EE7
:100CB0002E2E2E0D0A000000646D705F6C6F616453
:100CC0005F6D6F74696F6E5F6472697665725F667F
:100CD00069726D7761726520636F6D706C657465A4
:100CE000202E2E2E2E2E2E0D0A0000005001002048
:100CF000646D705F7365745F6F7269656E74617443
:100D0000696F6E20636F6D706C657465202E2E2E7A
:100D10002E2E2E0D0A000000646D705F656E6162FC
:100D20006C655F6665617475726520636F6D706C6C
:100D3000657465202E2E2E2E2E2E0D0A000000002A
:100D4000646D705F7365745F6669666F5F7261740E
:100D50006520636F6D706C657465202E2E2E2E2EAF
:100D60002E0D0A006D70755F7365745F646D705F42
:100D7000737461746520636F6D706C657465202E8B
:100D80002E2E2E2E2E0D0A0010B51F48006807F0DB
:100D900011FC04461D4907F0DBFA1D4908600121DA
:100DA0001C48006800F090F802211B48006800F021
:100DB0008BF81A49088807F015FC0446032100F057
:100DC00083F8032000F034F8154908700020154915
:100DD000087012E000BF1448008800F040000028AE
:100DE000F9D012480F490978405C0F49091D088065
:100DF0000C480078401C0B4908700A4800780849E4
:100E000009788842E6DB10BD140000200000C842CB
:100E100064010020180000201C000020402C01402C
:100E2000610100206001002000380140B005002071
:100E300001460A2900DC09B9002070472420214A14
:100E400010700B293CD2DFE801F03B060B10151A9D
:100E50001F24292F350005201A4A50710620ECE77F
:100E60000920184A50720A20E7E70D20154A5073EE
:100E70000E20E2E71120134A50741220DDE71520FE
:100E8000104A50751620D8E719200E4A50761A20BD
:100E9000D3E71D200B4A50771E20CEE72120094AB8
:100EA00082F821002220C8E72520064A82F8250082
:100EB0002620C2E72920034A82F829002A20BCE71D
:100EC0000020BAE7B005002013B50C460A2C00DC60
:100ED00004B91CBD0B2C43D2DFE804F042060C120F
:100EE000181E242A30363C0001221F49684600F0B3
:100EF000CDFA35E005221C49684600F0C7FA2FE01C
:100F000009221949684600F0C1FA29E00D22164964
:100F1000684600F0BBFA23E011221349684600F04E
:100F2000B5FA1DE015221049684600F0AFFA17E047
:100F300019220D49684600F0A9FA11E01D220A495C
:100F4000684600F0A3FA0BE021220749684600F04A
:100F50009DFA05E025220449684600F097FA00BF93
:100F600000BF00BFB5E70000B005002070470000DB
:100F70002DE9F047CC48006800287DD14FF480501F
:100F800000F0DCF9C948007801280BD1C848007886
:100F9000401CC0B2C64908700A2803D1002008705E
:100FA000C2490870C3480078032866DAC14800784F
:100FB000401CC0490870C048007800F03FFB00F0BA
:100FC000D7FBBE490860BE480068401CBC490860A9
:100FD000BC480068B94909680844BA490860B8487B
:100FE000006864280BD108460068642190FBF1F08A
:100FF000B54908600020B3490860B1490860642021
:1010000000F0EAFE092000F0FFFAA0F580600C2154
:1010100090FBF1F0AD490860AD480078012847D158
:10102000032000F0F1FAA0F58065284607F0C2FA27
:101030000446A84907F01EFBA7490860A749A6482F
:10104000006807F017FB054607F078FA044607F03A
:10105000B1FAA14908600846006807F06FFA0A2152
:1010600090FBF1F201FB1207384607F0A3FA06469F
:101070009A4907F06DF901E014E11CE00446974934
:101080009548006807F064F9074607F057FA0646E6
:1010900007F090FA0546214607F0ECF88E49086003
:1010A0008F4801688C48006807F0E4F88D490860B3
:1010B0000020BDE8F08700207E490870022001F082
:1010C0006FFC4642304607F075FA0546864907F040
:1010D0003FF9044607F032FA844908607648007800
:1010E00000F0ACFA82498348006807F031F9824980
:1010F000086082490968A1F2EE2007F05BFA044615
:101100007F4907F025F97F49086000F009FE77481C
:1011100001687D48006801F0F7F9012802D100203C
:101120006B490870684801687748006802F070F9F8
:1011300000287DD1664800780028FAD100F098FA9E
:10114000704801687148006807F094FA06466A48DA
:1011500001686F48006807F08DFA0746614801682A
:101160006948006807F08EFB80466A48016840467F
:1011700007F080FA0546394607F07CF80446314608
:1011800007F078F880F000406349086063496248DE
:10119000006807F06FFA604908600846006807F0C9
:1011A000CDF9044607F006FA5B4908605C4801681F
:1011B0004FF0804007F05EFA82465748016850467B
:1011C00007F055FB804657480168404607F052F843
:1011D00007465548006807F0EDF98146394607F0A3
:1011E00049FA05464E4801684B48006807F04AFB3B
:1011F00081464E48006807F0DDF98246494607F00F
:1012000039FA07464A48006807F0D4F9814642484F
:101210000168484607F02EFA8046394607F02AF85A
:101220000646294607F026F8044607F087F900E04D
:1012300035E0404908600846006842F2107190FBB2
:10124000F1F02E49096808442C49086008460068F6
:10125000B0F51B7F02DA4FF41B7008602748006866
:10126000B0F55C7F03DD4FF45C70244908602C48C6
:1012700000682C49086028480068294908606FF018
:101280003B011A48006800F0D9FC2B49086001F0C6
:1012900085F929480068404201F06EFC02E0002018
:1012A00001F06AFC002004E730812142290000207F
:1012B0002800002090000020000000209400002062
:1012C000980000209C000020140000203400002022
:1012D0000500002085EBA13BA0000020000020417C
:1012E000300000202C00002093D819420800002074
:1012F00033338341200000201C0000201000002018
:101300009A996940AC00002018000020C400002019
:10131000C0000020BC000020B00000200000C84237
:10132000B4000020B8000020D0000020CC00002035
:10133000C8000020D40000200C00002001490860F3
:101340007047000014040140002123498279002ADB
:101350003AD00A46126803689A430B461A600A1D7F
:10136000126803689A430B1D1A60027911440A68D7
:1013700003681A430A60184A0832126803689A43DD
:10138000154B08331A601A1D126803689A43124BF2
:101390000C331A604279102A0ED11A1F12680368A2
:1013A0001A430D4B08331A601A1D126803681A435A
:1013B000094B0C331A600DE00749427911440A6861
:1013C00003681A430A6005E0027911440A68036859
:1013D0009A430A60704700000004014000B589B0DC
:1013E0000121084601F0FAF80121042001F006F974
:1013F0000320ADF8040004208DF8070001A922485D
:1014000000F072F81C208DF8200001208DF82300D8
:101410008DF8210003208DF8220008A800F022FE9C
:1014200005A801F0EBFF0020ADF814004FF6FF70A7
:10143000ADF818000020ADF81A00ADF8160005A9A7
:101440004FF0804001F088FF00231A4603214FF03F
:10145000804001F05EFD02A801F0E4FD0A20ADF835
:10146000100002A9400701F087FD0121880701F063
:101470002FFD01221146900701F0DDFD01218807B3
:1014800001F02CFD09B000BD0008014030B5034655
:101490001C788C545D78541C0D559D78941C0D550A
:1014A000DD78D41C0D5530BD30B500228B071C0FE4
:1014B0000F2303FA04F20B4B8C1053F824309343A0
:1014C000084C8D1044F8253023468C1053F82430F6
:1014D0008C07240F00FA04F42343024C8D1044F8C7
:1014E000253030BD080001402DE9F04102460025BD
:1014F0000026002000230024002791F803C00CF0F0
:101500000F0591F803C00CF0100CBCF1000F03D0D4
:1015100091F802C04CEA050591F800C0BCF1000F3B
:1015200031D0146800202BE04FF0010C0CFA00F3CE
:10153000B1F800C00CEA03069E4220D183004FF0B0
:101540000F0C0CFA03F7BC4305FA03FC4CEA040445
:1015500091F803C0BCF1280F06D14FF0010C0CFA32
:1015600000FCC2F814C00AE091F803C0BCF1480FB7
:1015700005D14FF0010C0CFA00FCC2F810C0401C61
:101580000828D1D31460B1F800C0BCF1FF0F34DDDE
:10159000546800202EE000F1080C4FF0010808FA12
:1015A0000CF3B1F800C00CEA03069E4221D183007F
:1015B0004FF00F0C0CFA03F7BC4305FA03FC4CEA9E
:1015C000040491F803C0BCF1280F05D100F1080C08
:1015D00008FA0CF8C2F8148091F803C0BCF1480F67
:1015E00007D100F1080C4FF0010808FA0CF8C2F816
:1015F0001080401C0828CED35460BDE8F0814161C2
:10160000704701617047000010B5044607230122AE
:1016100021460948FFF706F901210748FFF763F95A
:1016200000BF02210448FFF7C1F80028F9D00248A2
:10163000FFF7B8F810BD00000024014010B50446C3
:10164000012C0CD101F07EF80548006805490860BE
:101650000549B1F9020006F0ADFF0449086010BD6C
:101660003401002018000020240100202000002068
:1016700010B53448007810B13348007828B93348A1
:10168000007878B13248007860B132480078401C68
:10169000C0B230490870322800DA10BD3C202D4914
:1016A000087002E000202B4908702748007810B924
:1016B0002748007848B12848007830B927480068A2
:1016C000274908600120244908702148007840B16A
:1016D000244801682248006806F0CCFD1F490860D4
:1016E0000AE01948007838B11F4801681C480068B2
:1016F00007F0C8F8194908601348007868B9144819
:10170000007850B914480078012806D114480068C0
:101710001249086000201049087014480078401CE5
:10172000C0B21249087032280ADD0948007805491C
:101730000870054800780549087000200B490870BA
:1017400000BFAAE7E000002004000020E100002024
:1017500003000020E3000020D80000202C0000201F
:10176000DC000020A4000020A8000020E2000020EF
:101770002DE9FF5F0820FFF747FF834606F0EEF9EB
:101780004FF06632104BCDE9000106F037FA0646FD
:1017900000220E4B06F032FA00220D4BCDE9020179
:1017A00006F02CFA044600220A4B06F039F880466F
:1017B00006F08EF9824640F2EC40824500DD82461A
:1017C000504604B0BDE8F09F66660A40000026401F
:1017D000000059400000B04000BFFEE770B505466C
:1017E0000E46002400F00EF9284600F0D7F8641CDD
:1017F00000F060F9304600F0D1F8641C00F05AF9AE
:1018000000F000F9691CC8B200F0C8F8641C00F0D0
:1018100051F9002000F08AF8044600F027F920462C
:1018200070BD000010B500200E4908600E48006829
:1018300020F070400C4908600846006840F04050B5
:10184000086000200949C1F8BC01012002F02AFD0E
:1018500001200449086002F025FD00200449C1F878
:10186000A00110BDA0012142040C014000802142D2
:101870000000214208B50121042000F0BFFE012133
:10188000082000F0BBFE4FF48070ADF8000010207F
:101890008DF8030003208DF8020069460D48FFF71C
:1018A00023FE4FF40040ADF8000010208DF8030037
:1018B00003208DF8020069460748FFF715FE4FF434
:1018C00080710448FFF79DFE4FF400410248FFF786
:1018D00098FE08BD00080140000C014010B5002032
:1018E0000E4908600E48006820F070400C490860FE
:1018F0000846006840F04050086001200949C1F8DE
:10190000BC0102F0CFFC01200449086002F0CAFCCF
:1019100000200549C1F8A00110BD0000A00121422E
:10192000040C0140008021420000214270B50546B0
:1019300000241648006820F07040144908600846EA
:10194000006840F000400860002615E000201049C3
:101950000860022002F0A6FC01200E49C1F8A00197
:101960006006040E0C48006808B1601CC4B2022076
:1019700002F098FC701CC6B2082EE7DB15B1FFF729
:1019800051FF01E0FFF7AAFF204670BD040C0140A3
:10199000A0012142000021423C81214270B5044651
:1019A0001448006820F0704012490860084600683A
:1019B00040F04050086000200F490860002515E005
:1019C000E0090E4908606006040E012002F06AFC7E
:1019D00001200B49C1F8A00102F064FC0020064977
:1019E0000860012002F05EFC681CC5B2082DE7DB30
:1019F00070BD0000040C0140A0012142BC812142C5
:101A00000000214210B51548006820F070401349CD
:101A100008600846006840F0405008600120104906
:101A200008601048D0F83C0108B9002010BD012022
:101A30000D49086002F036FC00200A49C1F8BC01DB
:101A400007488038006808B10020EFE7012002F065
:101A500029FC0020044908600120E7E7040C01404C
:101A6000BC81214200802142A001214210B50E48D4
:101A7000006820F070400C4908600846006840F09B
:101A8000405008600020094908600949C1F8BC01BC
:101A9000012002F007FC0120044908600449C1F854
:101AA000BC0102F0FFFB10BD040C0140A00121426B
:101AB0000080214210B500241548006820F07040D5
:101AC000134908600846006840F0004008600120A3
:101AD0001049086002F0E6FB01200F49C1F8A0019F
:101AE00002F0E0FB0AE0601CC4B2322C03DDFFF719
:101AF000BDFF002010BD012002F0D4FB0548803856
:101B000000680028EFD1054908600120F2E70000D5
:101B1000040C0140BC81214200002142A00121426D
:101B200070B505460E46144631462846FFF756FE68
:101B30002070012070BDF8B506460F4614461D46BC
:101B40006A4639463046FFF7EBFF2DB10120A04031
:101B50009DF80010084305E00120A0409DF800100A
:101B600021EA0000C0B200909DF8002039463046BE
:101B700000F036F8F8BD2DE9F843074688461446CC
:101B80001D46089E6A4641463846FFF7C9FF28B3FE
:101B9000601CFF2101FA00F0C4F108012944491E2C
:101BA000FF220A41104300F0FF09C5F1080006FAC0
:101BB00000F0C6B2C4F1070006419DF8000000EA3B
:101BC000090000909DF80000304300909DF800202F
:101BD0004146384600F004F8BDE8F8830020FBE7F2
:101BE00037B504460D4602AB01222946204600F0D7
:101BF00001F83EBD2DE9F04180460D4616461F46D0
:101C00000024FFF7FFFE4046FFF7C8FEFFF752FF34
:101C10002846FFF7C3FEFFF74DFF00BF06E0385D23
:101C2000FFF7BCFEFFF746FF601CC4B2B442F6DB10
:101C3000FFF71CFF0120BDE8F081000030B502462F
:101C4000501A1D4B1860184600681C4B1B68C01AC0
:101C500032235843184B1B68052404FB0300164B22
:101C60001B68164C2468022505FB1433144C2468A9
:101C700023443C2404FB0300124B1B681844114B03
:101C8000186018460068B0F5E15F02DD4FF4E150DE
:101C900018600C48006810F5E15F02DA0A48094B49
:101CA000186006480068064B186003480068034B3C
:101CB00018600448006830BDE8000020EC000020F7
:101CC000F0000020E4000020E0E3FFFF01464906A9
:101CD000084A926942F00102064B9A61064A52682C
:101CE00022F0E062044B5A601A4652680A435A6076
:101CF00070470000001002400000014008B50121BB
:101D0000042000F07BFC2020ADF8000048208DF876
:101D1000030069460148FFF7E7FB08BD00080140E2
:101D200010B5322002F0DCF90446012C24D1184809
:101D3000007898B917480078012812D11649174839
:101D4000006806F063FD0CD815491448006806F0D9
:101D50005DFC06D800200F49087002E001200D4903
:101D600008700C480078012803D100200849087049
:101D700002E0012006490870022C07D109480078CA
:101D800008B9012000E000200649087010BD0000DD
:101D9000F400002005000020000020C118000020F1
:101DA000000020410600002008B50121042000F0B9
:101DB00025FC1020ADF800008DF8030003208DF8FD
:101DC000020069460348FFF78FFB10210148FFF727
:101DD00018FC08BD0008014018B90021094A11602B
:101DE0000FE009490968491C074A1160814208D17E
:101DF00004490968C943054AC2F890110021024A02
:101E000011607047900121426C00002000002142C7
:101E100010B5022000F010F8032000F021F8002097
:101E200000F014F8002000F037F8002000F02BF844
:101E3000002000F01FF810BD38B50446032302222D
:101E40006B21D0200094FFF796FE38BD38B50446CC
:101E5000022304221C21D0200094FFF78CFE38BD01
:101E600038B50446022304221B21D0200094FFF73A
:101E700082FE38BD10B50446234601223721D0200A
:101E8000FFF759FE10BD10B50446234605226A210E
:101E9000D020FFF750FE10BD10B5044623460622A1
:101EA0006B21D020FFF747FE10BD00BFFEE700000A
:101EB0001FB50121084600F0A1FB0121082000F018
:101EC0009DFB4FF48050ADF8000048208DF80300D2
:101ED00069461248FFF708FB0C210120FFF7E4FADE
:101EE0004FF48050029000208DF80C000C208DF8EB
:101EF0000D0001208DF80E0002A8FFF725FA28201A
:101F00008DF8040002208DF8050001208DF80600F0
:101F10008DF8070001A800F0A5F81FBD000C0140D6
:101F200008B50121042000F069FB4FF40060ADF812
:101F3000000010208DF8030003208DF80200694690
:101F40000448FFF7D1FA4FF400610248FFF757FB4E
:101F500008BD00000008014030B589B005460C46B8
:101F6000FFF7DEFF0121042000F038FB01210820EB
:101F700000F044FB4FF47070ADF8200018208DF88D
:101F8000230003208DF8220008A93348FFF7ACFA9C
:101F9000ADF81850ADF814400020ADF81600ADF8BB
:101FA0001A0005A92D4801F0D7F96020ADF804000A
:101FB0000120ADF806000020ADF80A00ADF80C00D5
:101FC00001A9264801F040F86020ADF80400012086
:101FD000ADF806000020ADF80A00ADF80C0001A92C
:101FE0001E4801F087F86020ADF804000120ADF82C
:101FF00006000020ADF80A00ADF80C0001A9174852
:1020000001F0D8F86020ADF804000120ADF806001A
:102010000020ADF80A00ADF80C0001A90F4801F04E
:1020200023F908210D4801F05BF808210B4801F065
:10203000B3F80821094801F00DF90821074801F01B
:1020400051F90121054800F037FF0121034800F054
:1020500045FF09B030BD0000000C01400008004001
:102060007047000070B5002100230F22C47804B32C
:10207000154C246804F4E064C4F5E064210AC1F15D
:102080000403CA40447804FA03F1847814402143DD
:1020900009010E4C0678A155047804F01F050124AF
:1020A000AC4005786D11AD0005F1E025C5F80041A3
:1020B00009E0047804F01F050124AC40044D0678C3
:1020C000761145F8264070BD0CED00E000E400E01C
:1020D00080E100E002490143024A116070470000BC
:1020E0000000FA050CED00E030B500240CE00025FE
:1020F00006E00020074901EBC5010855681CC5B280
:10210000802DF6DB601CC4B2082CF0DB00F0E2F896
:1021100030BD00006C010020F0B5144600267F2879
:1021200001DC3F2900DDF0BD0B46CF1701EB5777EF
:10213000FF10C7F10707FAB2CF1701EB5777FF106F
:10214000A1EBC707FDB2C5F107070123BB40DEB213
:102150004CB10A4B03EBC0039B5C3343074F07EBC7
:10216000C007BB5408E0054B03EBC0039B5CB343C3
:10217000024F07EBC007BB5400BFD4E76C0100203F
:1021800008B50121082000F039FA3820ADF8000028
:1021900010208DF8030002208DF80200694649489E
:1021A000FFF7A2F90121042000F028FA4FF40040C3
:1021B000ADF8000002208DF8020010208DF8030019
:1021C00069464148FFF790F9012000F095F9002099
:1021D00000F09EFA0020FEF7BFFC002000F08CF912
:1021E00000203A490860642002F036F8012038499E
:1021F000C1F88C010021AE2000F052F90021D52059
:1022000000F04EF90021502000F04AF90021A820EA
:1022100000F046F900213F2000F042F90021D320D0
:1022200000F03EF90021084600F03AF90021402074
:1022300000F036F900218D2000F032F90021142041
:1022400000F02EF90021202000F02AF900210220C0
:1022500000F026F90021A12000F022F90021C02081
:1022600000F01EF90021DA2000F01AF900211220F6
:1022700000F016F90021812000F012F90021EF2072
:1022800000F00EF90021D92000F00AF90021F12018
:1022900000F006F90021DB2000F002F900213020D7
:1022A00000F0FEF80021A42000F0FAF80021A6209A
:1022B00000F0F6F80021AF2000F0F2F8FFF714FF6D
:1022C00008BD0000000C0140000801408C81214243
:1022D0000080214230B500241CE004F1B001C8B2F6
:1022E000002100F0DDF80021084600F0D9F80021B7
:1022F000102000F0D5F8002508E0084901EBC501E1
:10230000085D012100F0CCF8681CC5B2802DF4DB1B
:10231000601CC4B2082CE0DB30BD00006C01002062
:102320002DE9F04F80460C4615461E46A346A5F102
:102330002000C5B200273EE00C2E07D105EB45007A
:102340001F4901EB800010F8079004E01D4800EBE6
:10235000051010F807904FF0000A26E009F0800001
:1023600028B121464046099AFFF7D6FE09E00998B0
:1023700008B9012000E00020024621464046FFF750
:10238000CBFE4FEA49604FEA1069601CC4B2A4EB6F
:102390000B00B04205D15C4608F1010000F0FF08D7
:1023A00006E00AF1010000F0FF0ABAF1080FD5DBE0
:1023B00000BF781CC7B2B742BEDBBDE8F08F00009B
:1023C000608A0008D48E00082DE9FF4F81B00746CF
:1023D00091461E460E9D4FF0000A002439E0301B46
:1023E000401EC1B20A2004F052F9B9FBF0F00A21F4
:1023F000B0FBF1F201FB1208BAF1000F16D1701E0A
:10240000A04213DDB8F1000F0ED10120AB4605EB61
:10241000DB71491001FB04710090C8B22B462022E9
:102420000299FFF77DFF12E04FF0010A0120AB4651
:1024300005EBDB71491001FB04710090C8B208F193
:102440003001CAB22B460299FFF76AFF00BF601C39
:10245000C4B2B442C3DB05B0BDE8F08F78B5054621
:102460000E46144618E07A2D03DD002506F1100013
:10247000C6B23A2E04DD002005460646FFF734FEBC
:102480000120009022780C2331462846FFF748FFB0
:1024900005F10800C5B2641C20780028E3D178BD9E
:1024A00010B50A461AB10123114C236002E0002343
:1024B0000F4C2360002114E000230E4C236000F039
:1024C00080031BB10123241F236003E00023094C78
:1024D000241F23600123074C23604306180E4B1C66
:1024E000D9B20829E8DB0123014C236010BD0000AC
:1024F000BC012142948121420149086270470000D9
:1025000000000E427047000070B505460C461E489C
:102510000078F0B91D491E48006806F0B3F9064678
:10252000294606F073F814D218491948006805F0D6
:10253000A1FE0646294606F069F90AD2022C08DAFD
:1025400014F1020F05DD13480078012801D10E496E
:1025500008700D480078012813D10F480078401CFE
:10256000C0B20D490870322803DD0020087006490A
:10257000087014F1080F04DA0020034908700120E4
:1025800070BD0020FCE70000F500002000002041A5
:102590002C00002005000020F600002041F6F42069
:1025A000074909684242914202DA4142044A1160F5
:1025B00003490968814201DD014908607047000054
:1025C0000C00002001460020034A506820F44040DF
:1025D00008435060704700000010024029B1064ACD
:1025E000D2690243044BDA6104E0034AD2698243B0
:1025F000014BDA61704700000010024029B1064A21
:1026000092690243044B9A6104E0034A926982434F
:10261000014B9A61704700000010024029B1064A40
:10262000D2680243044BDA6004E0034AD268824372
:10263000014BDA60704700000010024030B5002105
:102640000022002400232D4D6D6805F00C0121B1FE
:10265000042905D0082923D105E0294D056022E091
:10266000274D05601FE0254D6D6805F47012234D60
:102670006D6805F48034022505EB92421CB9214DAA
:10268000554305600BE01D4D6D6805F400351DB127
:102690001C4D5543056002E0194D5543056002E0AD
:1026A000174D056000BF00BF144D6D6805F0F001C7
:1026B0000909154D6B5C0568DD4045600F4D6D687F
:1026C00005F4E061090A104D6B5C4568DD408560EA
:1026D0000A4D6D6805F46051C90A0B4D6B5C456885
:1026E000DD40C560054D6D6805F44041890B074D1F
:1026F0006B5CC568B5FBF3F5056130BD00100240A9
:1027000000127A0000093D004C0000205C0000200F
:1027100000210B4A11700A4A203A82F82010012841
:1027200002D0042808D103E00121054A117004E019
:102730000521034A117000E000BF00BF7047000090
:10274000201002402DE9F04F8FB00CA889490DAB45
:1027500008AACDE900108849884801F04BFF854858
:10276000008800F4807000287ED0089805F022FFD1
:1027700004464FF09D4105F0EBFD81490860099842
:1027800005F018FF04464FF09D4105F0E1FD7D493D
:1027900008600A9805F00EFF04464FF09D4105F0D1
:1027A000D7FD794908600B9805F004FF04464FF007
:1027B0009D4105F0CDFD75490860714801684FF0F5
:1027C000804005F057FF06906F480168069805F0B5
:1027D00051FF82466B4801684FF0404005F04AFFC8
:1027E00006906A480168069805F044FF8346514602
:1027F00005F040FD079005F011FD804601F068F9F5
:1028000006464FF06632624B05F0F8F9044604F0D4
:1028100019FF604908605C4801684FF0804005F08E
:1028200029FF039058480168039805F023FF82466A
:10283000544801684FF0404005F01CFF0390514898
:102840000168039805F016FF8346514606F01AF812
:1028500081464FF07E5105F00DFD044605F0DEFC8B
:10286000CDE90401464800E081E001684FF0804076
:1028700005F000FF834643480168584605F0FAFE1C
:102880008146414801684FF0804005F0F3FE8346E1
:102890003E480168584605F0EDFE8246494605F07F
:1028A000E9FC044605F0BAFC0746DDE9042301F023
:1028B00057FB4FF06632364BCDE9060105F09EF925
:1028C000054604F0BFFE34490860304801680068DE
:1028D00005F0D0FE03902C480168006805F0CAFEA0
:1028E000029028480168006805F0C4FE8346244829
:1028F0000168006805F0BEFE5946019005F0BAFC7B
:102900008246029905F0BEFF8146039905F0BAFFA1
:10291000044605F083FCCDE904011C480168184811
:10292000006805F0A7FE8246174801681548006850
:1029300005F0A0FE8346514605F09CFC81464FF011
:10294000804105F097FE044605F068FC0746DDE986
:10295000042301F005FB4FF066320D4BCDE9060173
:1029600005F04CF9054604F06DFE0C4908600FB007
:10297000BDE8F08F300100202A0100202401002052
:102980004001002044010020480100204C010020AB
:1029900066A64C4034010020380100203C01002094
:1029A0000146022904D003290BD0042917D10FE0D6
:1029B0004FF08042928C10B200224FF080439A84F4
:1029C0000FE0094A128810B20022074B1A8008E073
:1029D000064A128810B20022044B1A8001E000203F
:1029E00000BF00BF704700002404004024080040DE
:1029F0007047000030B589B005460C46012140F60D
:102A00000400FFF7FBFD4FF40060ADF82000182034
:102A10008DF8230003208DF8220008A91A48FEF73C
:102A200063FDADF81850ADF814400120ADF81A0060
:102A30000020ADF8160005A9144800F08DFC6020B8
:102A4000ADF804000120ADF806000020ADF80A0042
:102A5000ADF80C004FF40070ADF8120001A90B485E
:102A600000F002FC0821094800F03CFC0121074865
:102A700000F040FA0121054800F01EFA0121034848
:102A800000F02CFA09B030BD00080140002C0140D4
:102A900010B500F001F810BD0CB5002001900090B9
:102AA0003348006840F480303149086000BF304846
:102AB000006800F4003000900198401C01900098DC
:102AC00018B90198B0F5A06FF1D12948006800F459
:102AD000003010B10120009001E00020009000982B
:102AE000012843D12348006840F0100021490860C4
:102AF0000846006820F0030008600846006840F0BF
:102B0000020008601A484068194948600846406851
:102B100048600846406840F4806048600846406865
:102B200020F47C1048600846406840F4E810486093
:102B30000846006840F08070086000BF0C480068DC
:102B400000F000700028F9D00948406820F0030028
:102B5000074948600846406840F00200486000BFEE
:102B60000348406800F00C000828F9D10CBD0000B3
:102B70000010024000200240002808DD4FF4E1511F
:102B80000B4A1180C0F5E151121F118008E04FF48B
:102B9000E151074A121F118000F5E151121D118009
:102BA00004490988044A12881144044A1180704774
:102BB000380800401000002034000020402C014064
:102BC000042808D14FF0E021096941F004014FF0D9
:102BD000E022116107E04FF0E021096921F00401D2
:102BE0004FF0E022116170477047000010B51348A4
:102BF000006840F00100114908600846406810492B
:102C000008400E494860084600680E4908400B49D4
:102C100008600846006820F4802008600846406884
:102C200020F4FE0048604FF41F008860FFF730FF7B
:102C30004FF000600449086010BD00000010024021
:102C40000000FFF8FFFFF6FE08ED00E0F0B50C46CF
:102C5000154600220021068C4FF6FE773E40068482
:102C6000028B018C4FF60C7632407E1C06EA03166E
:102C70002E433243104EB0420ED0104EB0420BD015
:102C8000B0F1804F08D00E4EB04205D00D4EB0428C
:102C900002D00D4EB04206D14FF6FD76314044F0E1
:102CA0000106314305E04FF6F576314044F0010668
:102CB000314302830184F0BD002C01400034014007
:102CC0000004004000080040000C0040F0B50C4635
:102CD0001546002200210026078C4FF6EF7C07EAFC
:102CE0000C070784028B018C4FF6FF7707EA041666
:102CF00040F6FF473A404FF6FF7707EA03373A437B
:102D00004FF6FF7707EA05273A43114FB8420ED036
:102D1000104FB8420BD0B0F1804F08D00E4FB842E0
:102D200005D00E4FB84202D00D4FB84206D14FF633
:102D3000DF77394046F01007394305E04FF65F77FB
:102D4000394044F01007394302830184F0BD00008C
:102D5000002C014000340140000400400008004005
:102D6000000C0040F0B50C4615460022002100265C
:102D7000078C4FF6FF6C07EA0C070784828B018CE7
:102D80004FF6FF7707EA04264FF60C773A404FF6E6
:102D9000FF7707EA03172F433A43114FB8420ED08B
:102DA000104FB8420BD0B0F1804F08D00E4FB84250
:102DB00005D00E4FB84202D00D4FB84206D14FF6A3
:102DC000FF57394046F48077394305E04FF2FF570B
:102DD000394044F48077394382830184F0BD000098
:102DE000002C014000340140000400400008004075
:102DF000000C0040F0B50C461546002200210026CC
:102E0000078C4EF6FF7C07EA0C070784828B018C47
:102E10004FF6FF7707EA043640F6FF473A404FF691
:102E2000FF7707EA05273A434FF6FF7707EA0337AC
:102E30003A43114FB8420ED0104FB8420BD0B0F108
:102E4000804F08D00E4FB84205D00E4FB84202D086
:102E50000D4FB84206D14DF6FF77394046F4805702
:102E6000394305E047F6FF57394044F4805739436A
:102E700082830184F0BD0000002C01400034014039
:102E80000004004000080040000C004010B5012183
:102E9000880700F05FF80121880700F01CF810BDDA
:102EA00010B50121034800F055F80121014800F058
:102EB00012F810BD0004004021B1028842F08002E7
:102EC000028004E002884FF67F731A400280704748
:102ED000CA4302827047CA430282704721B1028806
:102EE00042F00102028004E002884FF6FE731A40AD
:102EF0000280704731B1B0F8442042F40042A0F89B
:102F0000442005E0B0F84420C2F30E02A0F84420AB
:102F10007047F0B50C4615461E46002100220023DE
:102F20000189028B038C4FF6F877394021434FF625
:102F3000FC473A4040F201173A434FF6DD773B40F9
:102F40004FF6FF7707EA06172F433B4301810283C1
:102F50000384F0BD30B50246002000230024158A0A
:102F600005EA0103958905EA010413B10CB10120BA
:102F700000E0002030BD000070B505460C46244836
:102F800085420ED0234885420BD0B5F1804F08D042
:102F90002148854205D02148854202D020488542FB
:102FA00000D100E000BF208850B92389A288618841
:102FB0002846FFF74BFEE188284600F0A0F925E0FF
:102FC000208804280AD12389A28861882846FFF72F
:102FD0007DFEE188284600F09BF917E0208808284C
:102FE0000AD12389A28861882846FFF7BBFEE188C1
:102FF000284600F09AF909E02389A28861882846CA
:10300000FFF7F8FEE188284600F098F970BD00004F
:10301000002C014000340140000400400008004042
:10302000000C0040002101804180012181800021AD
:10303000C180018170471AB183890B43838102E00B
:1030400083898B438381704770B50024002200235D
:10305000058C4FF6FE7635400584028C8388048B00
:103060004FF68F752C40B51E2C400D882C43751ED5
:103070002A400D892A434D882A43144DA8420BD07B
:10308000134DA84208D0134DA84205D0124DA842B6
:1030900002D0124DA84213D14FF6F7752A404D8940
:1030A0002A434FF6FB752A408D882A434FF6FF6569
:1030B0002B404FF6FF552B408D892B43CD892B4359
:1030C00083800483CD888586028470BD002C0140F6
:1030D00000340140004001400044014000480140EC
:1030E0000A460021018B4FF6F77319401143018303
:1030F0007047000070B5002400220023058C4FF6B5
:10310000EF7635400584028C8388048B48F6FF7582
:103110002C404FF6FF452C400D884FF6FF7606EA0F
:1031200005252C434FF6DF752A400D8906EA051563
:103130002A434D8806EA05152A43154DA84202D0B8
:10314000144DA8421DD14FF67F752A404D894FF688
:10315000FF7606EA05152A434FF6BF752A408D888B
:1031600006EA05152A434FF6FF352B404FF2FF754F
:103170002B408D8906EA85052B43CD8906EA850516
:103180002B4383800483CD880587028470BD0000B3
:10319000002C0140003401400A460021018B4FF20F
:1031A000FF7319404FF6FF7303EA022319430183AB
:1031B0007047000070B5002400220023058C4FF6F4
:1031C000FF6635400584028C8388848B4FF68F75AB
:1031D0002C404FF6FC752C400D882C434FF6FF55C4
:1031E0002A400D894FF6FF7606EA05252A434D88C9
:1031F00006EA05252A43154DA84202D0144DA842DF
:103200001DD14FF2FF752A404D894FF6FF7606EA31
:1032100005252A434FF6FF352A408D8806EA052505
:103220002A434EF6FF752B404DF6FF752B408D89D6
:1032300006EA05152B43CD8906EA05152B43838045
:103240008483CD888587028470BD0000002C0140F6
:10325000003401400A460021818B4FF6F773194074
:10326000114381837047000070B5002200230024C1
:10327000058C4EF6FF7635400584038C8488828B5E
:1032800048F6FF752A404FF6FF452A400D884FF655
:10329000FF7606EA05252A434DF6FF752B400D897A
:1032A00006EA05352B434D8806EA05352B430B4DC1
:1032B000A84202D00A4DA84208D14BF6FF752C4017
:1032C0008D894FF6FF7606EA85152C43848082832C
:1032D000CD88A0F84050038470BD0000002C014050
:1032E000003401400A460021818B4FF2FF731940E0
:1032F0004FF6FF7303EA0223194381837047028B61
:103300004FF6F3731A400283028B0A43028370471D
:10331000028B4FF2FF331A400283028B4FF6FF738A
:1033200003EA01231A4302837047828B4FF6F3733B
:103330001A408283828B0A4382837047828B4FF2CA
:10334000FF331A408283828B4FF6FF7303EA012317
:103350001A43828370470000002202881D4B984266
:103360000ED01D4B98420BD0B0F1804F08D01B4BB4
:10337000984205D01A4B984202D01A4B984204D179
:103380004FF68F731A404B881A43174B984207D059
:10339000164B984204D04FF6FF431A40CB881A438D
:1033A00002808B8883850B8803850A4B98420BD05B
:1033B000094B984208D00E4B984205D00D4B9842CD
:1033C00002D00D4B984201D10B7A038601238382F0
:1033D00070470000002C0140003401400004004010
:1033E00000080040000C00400010004000140040A5
:1033F0000040014000440140004801404FF6FF7189
:10340000818000210180C1804180017270470000ED
:1034100070B506460D461349304605F0F7F812D34D
:103420001149304605F0F2F90DD310480078012813
:1034300009D040F2C620854205DB0D490D480068E1
:1034400005F0E4F80AD201240B48008800F2EE20CF
:103450000A49088001200549087000E00024204640
:1034600070BD0000000020C20000204205000020C6
:103470000000A0C13801002034000020402C014091
:103480002DE9FF5FB848008800F02000002875D0C3
:10349000B548001D0088B549086008460078B44961
:1034A0000870B24800680A283EDDB048006841282C
:1034B00005D10120AF4908700020AF490870AB4822
:1034C0000068452805D10120AB4908700020A949B2
:1034D0000870A6480068422807D0A448006843281E
:1034E00003D0A2480068442806D10020A3490870F0
:1034F0000120A349087017E09C480068462807D0BF
:103500009A480068472803D098480068482806D1A0
:1035100001209A49087000209949087004E00020B1
:103520009649087096490870904800680A283EDA63
:103530008E480068012804D18E49087000208E4909
:1035400008708A480068052805D101208A4908705A
:1035500000208849087085480068022807D0834801
:103560000068032803D081480068042807D10020A0
:103570008249087001208249087018E0AAE07B485F
:103580000068062807D079480068072803D07748E4
:103590000068082806D10120784908700020784981
:1035A000087004E00020754908707549087070487B
:1035B00000787B2802D10120724908706C4800789D
:1035C0007D2802D102206F4908706E4800780128DA
:1035D0000AD1674800786C496C4A127888546B4865
:1035E0000078401C6949087066480078022871D14B
:1035F0006648007804F0F6FF654908606248C078C4
:10360000502803D10120634908709EE05E48C078CD
:10361000572803D101206049087096E05A48407845
:103620002328F2D0594800785C49087034E05749A3
:1036300009785A4A1278881A04F079FA8046424684
:103640000B460020564903F0B5F904460D46534990
:103650000978491E4C4A515CA1F1300004F067FA28
:10366000064622462B4604F0C9FA82468B464D4850
:10367000006804F0D3FD52465B46CDE9000104F03A
:1036800013F8CDE9020103F0DDFF46490860434825
:103690000078401E41490870404800780428C6DA86
:1036A00039484078303809284ED2DFE800F0050C60
:1036B000141B3A424A4B4C003A48006804F03EFF63
:1036C0003949086040E03748006804F037FF37495F
:1036D000086039E046E03348006804F02FFF3449C1
:1036E000086031E000212F48006804F0F3FE02D1A9
:1036F00030482C49086030493048006804F0BAFF6F
:1037000005462C492748006805F0BCF806462946BE
:1037100005F0B8F80446284904F01AFE2849086064
:1037200012E025491F48006804F012FE2549086090
:103730000AE021491B48006804F00AFE224908609B
:1037400002E001E000E000BF00BF00200D4908706A
:103750000E490870114908701249086032210A4860
:10376000FCF74EFEBDE8FF9F0048004084000020AB
:103770008000002001000020020000200300002043
:1037800004000020880000206C0500208900002033
:10379000240000202A0000202B0000208A000020A6
:1037A000000024408C000020CC000020C800002035
:1037B000D00000200000C84200002041A0000020EE
:1037C00030000020A4000020A800002021B1828940
:1037D00042F40052828104E082894DF6FF731A4060
:1037E00082817047F0B503460024002600250020A2
:1037F00040F66A17B94200D100BF1846C1F342141F
:1038000001F01F06012707FA06F5012C01D10C3043
:1038100004E0022C01D1103000E014301AB1076826
:103820002F43076002E00768AF430760F0BD000068
:103830002DE9F04786B005460E460024A24600BF9B
:10384000A1460027B08900B100BF2F462C8A4CF654
:10385000FF700440F08804432C82AC894EF6F310CC
:103860000440B08831890843718908430443AC811E
:10387000AC8A4FF6FF400440B0890443AC8201A8F3
:10388000FEF7DCFE1F48874202D1DDF810A001E000
:10389000DDF80CA0A88900F4004040B10AEBCA0092
:1038A00000EB0A1031684900B0FBF1F807E00AEBC1
:1038B000CA0000EB0A1031688900B0FBF1F86420FF
:1038C000B8FBF0F004012009642101FB1089A889EC
:1038D00000F4004040B1322000EBC900B0FBF1F031
:1038E00000F00700044308E0322000EB09106421D7
:1038F000B0FBF1F000F00F0004432C8106B0BDE8EE
:10390000F08700000038014000BFFEE7490050EAA0
:10391000C12018BF04204A0D18BF40F0010040F23A
:10392000FF72B2EB515F08BF40F00200012808BFF0
:10393000052070472DE9F0414F1E00EBC7010446FA
:10394000D1E9000115461E4637F006020DD02A4681
:10395000334604F053F97F1E04EBC703D3E9002379
:1039600003F0A2FE37F00602F1D1022F25D0042F7A
:1039700013D0062F18BFBDE8F0812A46334604F065
:103980003DF9D4E90A2303F08FFE2A46334604F0BA
:1039900035F9D4E9082303F087FE2A46334604F0BC
:1039A0002DF9D4E9062303F07FFE2A46334604F0BE
:1039B00025F9D4E9042303F077FE2A46334604F0C0
:1039C0001DF9D4E9022303F06FFE2A46334604F0C2
:1039D00015F9D4E90023BDE8F04103F065BE00000D
:1039E000002213461046014903F01ABF0000F03FC1
:1039F000012204F0EEBF03F057BE0022134610462A
:103A0000114603F00DBF40F2013200204FF0E041BB
:103A100004F0DFBF024A0020110704F0DABF000003
:103A200001FDFFFF00BF70472DE9FE4F06460F4620
:103A30000025684601F058FA002442E056F82400B8
:103A400057F82410A0EB010ABAF1000F01DB514630
:103A500001E0CAF10001084604F0ACFD83464FF0D6
:103A60008F4104F075FC80465DF82400002104F0CD
:103A700031FD16D05DF82410404604F069FC824602
:103A80004FF07E5104F0FEFE814629F0004A0F48B7
:103A9000416A504604F0BAFE12D20120A04005430C
:103AA0000EE00A48C169404604F0B0FD05D307485E
:103AB000016A404604F0AAFE02D20120A04005435C
:103AC000641C032CBADB2846BDE8FE8FDCCD000861
:103AD0002DE9F04D8D4F21F0004A86B005460C4689
:103AE000BA452ADBAAEB070028430AD0884882455A
:103AF00001DC1AD1CDB106B02846BDE8F04DFFF784
:103B000077BF844A844B284604F078F807460E466F
:103B1000824A834B2846214604F070F806B03A46A4
:103B20003346BDE8F04D03F0BFBD0120FCF70AFDB0
:103B300006B0BDE8F04DFFF760BF7A48824542DA33
:103B4000BAF1795F0BDA2846FFF7E0FE042808BFD8
:103B5000FFF760FF284606B02146BDE8F08D2A46F3
:103B60000B46104604F04AF8834602466E480E465D
:103B70000B4606217844FFF7DDFE5A46334604F033
:103B80003DF8804669488A465A46334604217844BF
:103B9000FFF7D0FE5A46334604F030F800223B4689
:103BA00003F082FD02460B464046514603F038FEC4
:103BB0002A46234604F022F806B02A462346BDE8EA
:103BC000F04D03F071BD284624F0004100223D462F
:103BD0003B4604F047F94FF0FF3204F0FAFE064688
:103BE000024653480F460B4606217844FFF7A2FED3
:103BF00032463B4604F002F8CDE900014D4832461A
:103C00003B4604217844FFF795FE32463B4603F0DD
:103C1000F5FF00222B4603F047FD83460291304614
:103C2000394603F059FC804643480D46504517DCA1
:103C3000DDE900015A46029B03F0F2FD42462B46A5
:103C400003F0DCFF42462B4603F02EFD012204F078
:103C5000C0FE304A304B04F0F7F9304A304B4CE0AC
:103C60004FF0000A52460B46404603F01DFDCDE9D9
:103C7000031052462B461046194603F0BFFF32464A
:103C80003B4604F0EFF8DDE9033203F0C9FD0646D8
:103C90000F46DDE900015A46029B03F0C1FD834651
:103CA000009101223046394604F093FE194A1A4B1E
:103CB00004F0D8F806460F4601224046294604F093
:103CC00088FE5A46009B03F099FF32463B4604F0BB
:103CD000BBF906460F4601225046294604F079FEFC
:103CE0000E4DDFF858802A46434604F0BBF83246B2
:103CF0003B4604F0B7F82A46434604F0B3F8002CDC
:103D0000D8BF81F0004106B0BDE8F08D0000F03F63
:103D10000000F07F075C143326A6913C182D445414
:103D2000FB21F93F0000E03F889E00009E9E0000BE
:103D3000129E0000289E00003333EF3FFB21E93F35
:103D40002DE9F84F04460D4621F0004000917349DB
:103D5000814211DC7249884201DC06D12CB1204637
:103D60002946BDE8F84FFFF743BE6E48002DCCBF93
:103D70006D496E49BDE8F88F6D49814211DD6D498D
:103D80008142D8BF4FF0FF366DDD20462946FFF750
:103D9000BDFD042808BFFFF73DFE20462946BDE8CB
:103DA000F88F6549654F25F00045814233DD644950
:103DB000814219DD002632464FF0804320462946D5
:103DC00003F072FC80468A4601222046294604F010
:103DD00000FE00223B4604F037F94246534603F00A
:103DE0001FFD04460D463EE001260022BA463B4632
:103DF0002046294603F058FC80460F4600225346D1
:103E00002046294604F020F942463B4603F008FDCF
:103E100004460D4627E04B4981421BDDDFF828A10F
:103E20000226002253462046294603F0E7FE0022E0
:103E30003B4603F039FC80460F460022534620469D
:103E4000294604F001F942463B4603F0E9FC0446EA
:103E50000D4608E0032622462B4600203B4903F08E
:103E6000DFFC04460D4622462B461046194603F059
:103E7000C5FE8B46824602460B4603F0BFFE074650
:103E80000246334888460B4606217844FFF752FD28
:103E900052465B4603F0B2FE82462E488B463A46B7
:103EA000434605217844FFF745FD3A46434603F073
:103EB000A5FE02460B46002E504659460CDA03F08A
:103EC000F3FB22462B4603F099FE01B022462B4617
:103ED000BDE8F04F03F0C6BF03F0E6FB22462B46D9
:103EE00003F08CFE1C4A7A4402EBC603D3E900239C
:103EF00004F0AAF822462B4604F0A6F8174A7A44A2
:103F000002EBC603D3E9002303F0ACFF009A002ABA
:103F1000B8BF81F00041BDE8F88F000000001044F8
:103F20000000F07F182D4454FB21F93FFB21F9BF1D
:103F30000000DC3F0000203E0000F33F0000F03FA7
:103F40000000E63F008003400000F83F0000F0BFA3
:103F5000B29C0000709C00000E9C0000D69B0000EC
:103F60002DE9F04D9446CCF1000423F000464CEAD4
:103F70000404524F46EAD4749A46884621F000421F
:103F8000BC4206D8454240EA050442EAD474BC4229
:103F900004D9BDE8F04D6246FFF72DBDAAF14055AA
:103FA000A5F17F6555EA0C040BD0022404EAAA743B
:103FB000434DDFF810E144EAD87452EA000B04D014
:103FC0000CE0BDE8F04DFFF7BBBE002C14BF012C88
:103FD000BDE8F08D022C30D0032C32D056EA0C0B09
:103FE0000AD0BE4220D1BA4209D126F0804622F042
:103FF00080423346114617E000291ADB25E0DFF83E
:10400000C8B0FB44002C04BFDBE90001BDE8F08D23
:10401000012C02BFDBE9000181F00041BDE8F08D19
:10402000022C0AD0032C0CD0BA4212D1B8F1000FE6
:104030000BDA23482549BDE8F08D28462449BDE820
:10404000F08D28467146BDE8F08D1D482149BDE838
:10405000F08D921B12153C2AC4BF19481D490EDC75
:10406000BAF1000FBEBF12F13C0F0020014606DB83
:10407000624603F0D5FB21F00041FFF761FE002C02
:1040800008BFBDE8F08D012C04BF81F00041BDE800
:10409000F08D114A114B022C07D003F0D5FF2A46B0
:1040A000BDE8F04D0A4B03F0CFBF03F0CDFF2A4629
:1040B000BDE8F04D064B03F0D5BE00000000F07FD8
:1040C000182D4454FB2109C06A9B0000FB21F9BF55
:1040D000FB210940FB21F93F075C143326A6A13CD4
:1040E00001462D48006828B92C480088401C2B4AFE
:1040F000108002E00020294A10802748006828B973
:104100002748007810B90120254A1070254800780A
:10411000B0B923480078012807D123480078401C13
:10412000214A107001201F4A10701F480078022891
:1041300006D100201C4A10701C4A108002207047D3
:1041400015480068012804D10020154A1070154A4E
:1041500010701548007801281CD114480088401CB4
:10416000124A10801046008888420ADD0B480088F9
:10417000884206DA00200C4A10700C4A1080012098
:10418000DDE706480088884204DD0020064A1070FA
:10419000064A10800020D2E7140121427600002058
:1041A00070000020710000207200002074000020C8
:1041B0002DE9F0410446E07800F0C006E07800F018
:1041C0003F05607800F0010098B1EF102846E9172C
:1041D00005EB5171C910A5EBC101491C01F0FF08A5
:1041E0000B48006820B10A484146026838469047AB
:1041F00000BF607800F0080030B10548406818B191
:10420000B011034A516888470020BDE8F0810000E2
:10421000A005002010B56FF00400FEF7D1FC0A489D
:1042200000680A49B0FBF1F00949087008460078B7
:1042300000EB4001C1EBC0104FF6FF7101EAC00076
:104240000449088010BD00003800002000127A00E8
:1042500060000020620000200146114A12884A4393
:104260004FF0E0235A6100229A611A46126942F027
:1042700001021A6100BF4FF0E022106900F0010254
:104280001AB100F48032002AF5D04FF0E022126912
:1042900022F001024FF0E0231A6100229A61704778
:1042A000620000200146114A12784A434FF0E02391
:1042B0005A6100229A611A46126942F001021A619B
:1042C00000BF4FF0E022106900F001021AB100F4C3
:1042D0008032002AF5D04FF0E022126922F001026C
:1042E0004FF0E0231A6100229A61704760000020BD
:1042F00038B5044664B120208DF8000028208DF8E0
:10430000010030208DF8020038208DF8030004E011
:10431000A32204216846FCF76BF86A46042140F6A4
:104320009E2002F073F901F063FD38BD3EB50446EE
:1043300002208DF80000CA208DF80100E3208DF8DE
:10434000020009208DF803006A460421682002F06B
:104350005DF9A3208DF8000004F0400048B1C020B2
:104360008DF80100C8208DF80200C2208DF80300EE
:1043700006E0A3208DF801008DF802008DF80300FF
:1043800004F4C07048B1C4208DF80400CC208DF82E
:104390000500C6208DF8060006E0A3208DF8040075
:1043A0008DF805008DF80600A3208DF807008DF824
:1043B00008008DF809006A460A2140F6A72002F09D
:1043C00025F904F0030018B120208DF8000002E068
:1043D000D8208DF800006A46012140F6B62002F090
:1043E00015F904F0200018B1012000F0ADF802E04A
:1043F000002000F0A9F804F4C07008B304F4807041
:1044000060B1B2208DF800008B208DF80100B6203D
:104410008DF802009B208DF803000BE0B0208DF892
:10442000000080208DF80100B4208DF8020090205B
:104430008DF803006A46042140F6A22002F0E6F857
:1044400004F0010020B3F8208DF800006A46012135
:104450004FF40B6002F0DAF8FA21072000F02CFC90
:10446000072000F0F3FB012000F013FC642000F0B3
:10447000F3FC4FF4FA7000F002FDC821304800F060
:10448000A3FB282000F0BCFB0A2000F0CCFB08E0D6
:10449000D8208DF800006A4601214FF40B6002F02D
:1044A000B5F804F0020018B1D9208DF8000002E040
:1044B000D8208DF800006A46012140F23D7002F0DC
:1044C000A5F804F0040018B1012000F069F802E03A
:1044D000002000F065F804F0100018B10120FFF78B
:1044E00007FF02E00020FFF703FF44F00800154932
:1044F000488101F07DFC00201249887304F04000DF
:1045000018B10846807B801D887304F4C07020B108
:104510000C48807B801D0B49887304F0140020B187
:104520000848807B10300749887304F0030020B1ED
:104530000448807B001D0349887300203EBD0000B5
:1045400009E3CA02A00500203EB504466CB10EA1E5
:10455000D1E900208968CDE9002002916A4609214D
:104560004FF4976002F052F83EBD0AA2D2E9001063
:104570009268CDE9010200916A4609214FF49760E3
:1045800002F044F8F0E70000B8AAB38DB4980D35F6
:104590005D000000B8AAAAAAB088C3C5C700000081
:1045A00038B5044664B1C0208DF80000C2208DF8F3
:1045B0000100C4208DF80200C6208DF8030004E03D
:1045C0008B2204216846FBF713FF6A46042140F65C
:1045D000982002F01BF801F00BFC38BD10B5C82381
:1045E0004FF48062024940F6F63001F095FA10BDB2
:1045F00004CE00082DE9F04F8DB0074688461546D9
:104600009946DDE9166B0024002030806B49887BD9
:104610005A4605A901F04CFB18B1601E0DB0BDE86B
:10462000F08F6648807A00F01400002867D09DF86B
:10463000140000069DF8151040EA01409DF8161080
:1046400040EA01209DF81710084328609DF81800E3
:1046500000069DF8191040EA01409DF81A1040EA42
:1046600001209DF81B10084368609DF81C0000069F
:104670009DF81D1040EA01409DF81E1040EA0120FF
:104680009DF81F100843A8609DF8200000069DF8C3
:10469000211040EA01409DF8221040EA01209DF8D7
:1046A00023100843E86004F11000C4B22868001425
:1046B0000190686800140290A86800140390E868EC
:1046C0000014049001984043029901FB01000399F2
:1046D00001FB0100049901FB010ABAF1706F02DBD2
:1046E000BAF1885F05DD01F083FB00203080401EB9
:1046F00094E7B6F9000040F48070308000BF2F4886
:10470000807A00F0400020B305A9601C085C095DB8
:1047100040EA012000B2A8F8000005A9E01C095CED
:1047200005AAA01C105C41EA002000B2A8F8020013
:1047300005A9601D095C201D105C41EA002000B243
:10474000A8F80400A01DC4B2B6F9000040F00800AB
:1047500030801A48408900F4C07008B305A9601C75
:10476000085C095D40EA012000B2388005A9E01C20
:10477000095C05AAA01C105C41EA002000B2788008
:1047800005A9601D095C201D105C41EA002000B2F3
:10479000B880A01DC4B2B6F9000040F070003080AF
:1047A0000648807A00F0030018B105A90819FFF740
:1047B000FFFC484601F06AFF00202FE7A00500201B
:1047C00070B588B0064601A800F0FAFFBDF80400F5
:1047D0000021C90341EA5045C4034448007A00F06F
:1047E000030056F8200005904048007A00F00400CD
:1047F00010B10598404205903C48007AC0F3C100D2
:1048000056F8200006903948007A00F0200010B1D8
:104810000698404206903548007AC0F3811056F859
:10482000200007903148008900F4807010B107988B
:10483000404207900598C117A0FB042301FB0431F7
:1048400000FB0510810041EA927005900698C1179F
:10485000A0FB042301FB043100FB0510810041EAA9
:10486000927006900798C117A0FB042301FB043146
:1048700000FB0510810041EA927007900598000E38
:104880008DF808000598000C8DF809000598000ABD
:104890008DF80A000598C0B28DF80B000698000E3E
:1048A0008DF80C000698000C8DF80D000698000A93
:1048B0008DF80E000698C0B28DF80F000798000E14
:1048C0008DF810000798000C8DF811000798000A69
:1048D0008DF812000798C0B28DF8130002AA0C21BF
:1048E0004FF4257001F092FE08B070BDA0050020C5
:1048F00030B585B0044616A207CA02AB07C3C82C60
:1049000003DD4FF0FF3005B030BDC82090FBF4F060
:10491000401E85B2280A8DF80000E8B28DF801002B
:104920006A46022140F2162001F070FE10B14FF0ED
:10493000FF30E8E702AA0C2140F6C12001F066FE34
:1049400010B14FF0FF30DEE7044884810020DAE741
:10495000FEF2ABC4AAF1DFDFBBAFDFDFA0050020B2
:104960001FB504464848007A00F0030054F82000C0
:1049700001904548007A00F0040010B101984042CF
:1049800001904148007AC0F3C10054F82000029021
:104990003D48007A00F0200010B102984042029099
:1049A0003948007AC0F3811054F82000039036484B
:1049B000008900F4807010B103984042039033499D
:1049C000019880FB0101800F40EA810001902F498E
:1049D000029880FB0110820042EA917002902B49FC
:1049E000039880FB0110820042EA917003900198C5
:1049F000000E8DF800000198000C8DF80100019860
:104A0000000A8DF802000198C0B28DF803006A46D2
:104A100004214FF4747001F0F9FD18B14FF0FF302C
:104A200004B010BD0298000E8DF800000298000C32
:104A30008DF801000298000A8DF802000298C0B2B9
:104A40008DF803006A4604214FF4757001F0DEFD15
:104A500010B14FF0FF30E3E70398000E8DF800002F
:104A60000398000C8DF801000398000A8DF80200ED
:104A70000398C0B28DF803006A4604214FF47670A3
:104A800001F0C4FDCCE70000A005002009E3CA0244
:104A900010B586B0044647A00068039046A00068A1
:104AA000029046A00068019045A00068009004F0C4
:104AB000030003A9085C8DF8140003A8C4F3C10126
:104AC000405C8DF8150003A8C4F38111405C8DF89B
:104AD000160004F0030002A9085C8DF8100002A87B
:104AE000C4F3C101405C8DF8110002A8C4F3811128
:104AF000405C8DF8120005AA032140F2264001F027
:104B000085FD18B14FF0FF3006B010BD04AA032197
:104B100040F22A4001F07AFD10B14FF0FF30F3E788
:104B2000019805900098049004F0040058B19DF895
:104B3000140040F001008DF814009DF8100040F0C2
:104B400001008DF8100004F0200058B19DF8150008
:104B500040F001008DF815009DF8110040F00100B3
:104B60008DF8110004F4807058B19DF8160040F0E3
:104B700001008DF816009DF8120040F001008DF83C
:104B8000120005AA03214FF4886001F03FFD10B127
:104B90004FF0FF30B8E704AA032140F2314001F0A2
:104BA00035FD10B14FF0FF30AEE70648048100201C
:104BB000AAE700004CCD6C000CC92C0036567600DC
:104BC00026466600A0050020F8B505460E464FF4BF
:104BD0007A7095FBF0F000FB06F4200E8DF80000D3
:104BE000200C8DF80100200A8DF80200E0B28DF84B
:104BF00003006A4604214FF4AE7001F007FDF8BDD2
:104C000038B50446052094FBF0F084B220128DF8EC
:104C10000000E0B28DF801006A4602214FF4AD7049
:104C200001F0F4FC38BD38B50446052094FBF0F0E3
:104C300084B220128DF80000E0B28DF801006A46BF
:104C400002214FF4AC7001F0E1FC38BD38B50446E8
:104C50000020009004F0010020B19DF8000040F019
:104C60003000009004F0020020B19DF8000040F0F8
:104C70000C00009004F0040020B19DF8000040F00A
:104C8000030000906A4601214FF4A47001F0BEFCBD
:104C900038BD38B50446012C01DA012402E0042CA9
:104CA00000DD0424601EC0B200906A46012140F27B
:104CB0004F1001F0ABFC38BD2DE9FC4706460F460E
:104CC00006F0070010B1B7F5C86F03DD4FF0FF30F5
:104CD000BDE8FC87384603F085FC8146594903F05E
:104CE00037FB8046684600F045FD9DF8000002282D
:104CF00006D0042816D0082826D0102848D135E040
:104D00004FF08D41404603F0B5FC814603F032FC84
:104D100084B24D49404603F0ADFC814603F02AFCC5
:104D200085B238E04FF08C41404603F0A3FC814649
:104D300003F020FC84B24549404603F09BFC8146C9
:104D400003F018FC85B226E04FF08B41404603F09B
:104D500091FC814603F00EFC84B23D49404603F0CD
:104D600089FC814603F006FC85B214E04FF08A41CD
:104D7000404603F07FFC814603F0FCFB84B23549DA
:104D8000404603F077FC814603F0F4FB85B202E075
:104D90004FF0FF309CE700BF20128DF80400E0B216
:104DA0008DF8050028128DF80600E8B28DF807008E
:104DB00006F00100A0B101AA02214FF4EA7001F04F
:104DC00025FC10B14FF0FF3082E70DF10602022101
:104DD0004FF4927001F01AFC10B14FF0FF3077E7FA
:104DE00006F00200A0B101AA02214FF4EC7001F01C
:104DF0000DFC10B14FF0FF306AE70DF10602022101
:104E00004FF4947001F002FC10B14FF0FF305FE7F7
:104E100006F00400A0B101AA02214FF4EE7001F0E7
:104E2000F5FB10B14FF0FF3052E70DF10602022101
:104E30004FF4967001F0EAFB10B14FF0FF3047E7F6
:104E4000002045E700004843000040460000C04500
:104E5000000040450000C04438B50446052094FBDE
:104E6000F0F085B228128DF80000E8B28DF801004C
:104E70006A4602214FF4EF7001F0C8FB38BD38B527
:104E80000446052094FBF0F085B228128DF800004E
:104E9000E8B28DF801006A4602214FF4ED7001F08E
:104EA000B5FB38BD0D4A12785AB900BF0C4A1288BA
:104EB00002F04002002AF9D0C2B2094B1B1D1A8031
:104EC0000AE000BF074A128802F04002002AF9D027
:104ED000C2B2044B1B1D1A80704700000600002060
:104EE00000480040003801407CB505462849496823
:104EF000087801AB04220D2100F010FB08B1072057
:104F00007CBD9DF80700C0F301109DF8041001F06E
:104F1000E00140EAE1008DF800009DF80700C0F3D1
:104F200081009DF8051001F0E00140EAE1008DF8F4
:104F300001009DF8070000F003009DF8061001F045
:104F4000E00140EAE1008DF8020000241CE01DF8B9
:104F5000040018B9002045F8240013E00D4845F876
:104F6000240006E055F824000B4903F083FB45F8C4
:104F700024001DF80400401EC0B20DF804000028F3
:104F8000F0D100BF601CC4B2032CE0DB0020B7E707
:104F9000F80000207B14AE3E1D5A843F2DE9F04FEF
:104FA00087B005460C46914601208DF81000002080
:104FB0008DF81100FE4A1268917CFD4A5268107803
:104FC00004AB022200F0E5FA20B14FF0FF3007B049
:104FD000BDE8F08FC820FFF73FF900208DF81000E2
:104FE000F34A1268D17BF24A5268107804AB01226E
:104FF00000F0CFFA10B14FF0FF30E8E7EC4A12684A
:105000005179EB4A5268107804AB012200F0C1FAE2
:1050100010B14FF0FF30DAE7E54A1268917CE44ABC
:105020005268107804AB012200F0B3FA10B14FF0CF
:10503000FF30CCE7DE4A1268D17DDD4A5268107835
:1050400004AB012200F0A5FA10B14FF0FF30BEE72B
:10505000D74A12681179D64A5268107804AB0122F7
:1050600000F097FA10B14FF0FF30B0E70C208DF848
:105070001000CF4A12681179CD4A5268107804ABFB
:10508000012200F086FA10B14FF0FF309FE70F20A9
:10509000FFF7E2F8C648806A407A8DF81000C44AEB
:1050A00012689178C24A5268107804AB012200F06D
:1050B00070FA10B14FF0FF3089E7BD48806A007A7E
:1050C0008DF81000BA4A12685178B94A52681078BF
:1050D00004AB012200F05DFA10B14FF0FF3076E72B
:1050E000B9F1000F07D0B248806A807A40F0E00042
:1050F0008DF8100004E0AE48806A807A8DF81000C8
:10510000AB4A12689179AA4A5268107804AB01221E
:1051100000F03FFA10B14FF0FF3058E7B9F1000F3F
:1051200007D0A348806AC07A40F0E0008DF81000F4
:1051300003E0A048C07A8DF810009D4A1268D1792A
:105140009B4A5268107804AB012200F022FA10B199
:105150004FF0FF303BE7B9F1000F02D0C820FFF756
:105160007BF840208DF81000914A12681179904A1E
:105170005268107804AB012200F00BFA10B14FF026
:10518000FF3024E778208DF81000894A12685179A1
:10519000874A5268107804AB012200F0FAF910B186
:1051A0004FF0FF3013E783498889FFF755F8002057
:1051B0008DF810007E4A126851797D4A5268107845
:1051C00004AB012200F0E5F910B14FF0FF30FEE62C
:1051D000774A1268917A764A5268107804AB0222B4
:1051E00000F09CF910B14FF0FF30F0E69DF811008F
:1051F0009DF8101040EA012B0C209BFBF0F0C6B28A
:105200000020A86068602860A0606060206082461E
:1052100065E0674A1268D17A654A5268107804AB33
:105220000C2200F07BF910B14FF0FF30CFE69DF873
:1052300011009DF8101040EA012000B2ADF80800FE
:105240009DF813009DF8121040EA012000B2ADF85D
:105250000A009DF815009DF8141040EA012000B2E4
:10526000ADF80C00BDF90810206808442060BDF9B5
:105270000A10606808446060BDF90C10A06808441A
:10528000A0609DF817009DF8161040EA012000B2BA
:10529000ADF800009DF819009DF8181040EA0120B3
:1052A00000B2ADF802009DF81B009DF81A1040EA0C
:1052B000012000B2ADF80400BDF9001028680844D0
:1052C0002860BDF90210686808446860BDF90410E0
:1052D000A8680844A8600AF1010000F0FF0AB2457E
:1052E00097DB3448D0F800C02868C117090441EAA8
:1052F00010410704624600233846FAF7ACFF3246F5
:105300000023CDE90201FAF7A6FF28602948D0F86A
:1053100000C06868C117090441EA104107046246E9
:1053200000233846FAF797FF32460023CDE9020101
:10533000FAF791FF68601F48D0F800C0A868C1174D
:10534000090441EA10410704624600233846FAF78F
:1053500082FF32460023CDE90201FAF77CFFA86004
:105360001448D0F804C02168C817000440EA114866
:105370000F046246002338464146FAF76CFF324676
:105380000023CDE90201FAF766FF20600948D0F852
:1053900004C06068C117090441EA1041070462466D
:1053A00000233846FAF757FF3246002304E0000096
:1053B000F8000020DCCD0008CDE90201FAF74BFF30
:1053C00060601148D0F804C0A068C117090441EA20
:1053D00010410704624600233846FAF73CFF324684
:1053E0000023CDE90201FAF736FFA060A06800288B
:1053F00004DDA068A0F58030A06003E0A06800F59F
:105400008030A0600020E2E5DCCD00082DE9FC5FE3
:1054100006460F4600253D494968087801AB03223E
:105420000D2100F07BF810B10720BDE8FC9F9DF82E
:10543000040000F01F008DF804009DF8050000F046
:105440001F008DF805009DF8060000F01F008DF884
:105450000600002456E056F8240057F82410A0EB6C
:10546000010BBBF1000F01DB594601E0CBF100015C
:10547000084603F09FF84FF08F41009002F068FF5C
:10548000814601A8005D68B32149086803F0AAF8C5
:10549000834659461F4802F05BFF804604E01E49E0
:1054A000404603F0E7F8804601A8005D401EC0B208
:1054B00001A908550028F2D14146484602F048FFAC
:1054C00083464FF07E5103F0DDF982462AF0004B0F
:1054D0000F488169584603F099F912D20120A04083
:1054E00005430EE00A480169484603F08FF805D3EA
:1054F00007484169484603F089F902D20120A040DB
:105500000543641C032CA6DB28468EE7F800002028
:10551000DCCD000800B04C4554E3853F2DE9F04157
:1055200006460F4614461D46FCF76CFA10B90120DA
:10553000BDE8F0817106080EFCF730FAFCF7BAFA04
:1055400018B9FCF793FA0120F2E73846FCF726FA7F
:10555000FCF7B0FAFCF756FA012101EB4601C8B29C
:10556000FCF71CFAFCF7A6FA0DE0012C04D1002090
:10557000FCF7DCF9287003E00120FCF7D7F928706C
:105580006D1C601EC4B2002CEFD1FCF76FFA002036
:10559000CEE72DE9F04105460E4617469846FCF742
:1055A00031FA10B90120BDE8F0816906080EFCF758
:1055B000F5F9FCF77FFA18B9FCF758FA0120F2E781
:1055C0003046FCF7EBF9FCF775FA00240BE018F80D
:1055D0000400FCF7E3F9FCF76DFA18B9FCF746FA9A
:1055E0000020E0E7641CBC42F1DBFCF73FFA00203E
:1055F000D9E770B50546284600F00FF80446E81CC8
:1056000000F00BF844EAC00084B2A81D00F005F8D1
:1056100044EA801084B2204670BD014691F9002012
:10562000002A01DD00201EE091F90020002A01DAA5
:10563000042018E091F90120002A01DD012012E088
:1056400091F90120002A01DA05200CE091F90220ED
:10565000002A01DD022006E091F90220002A01DA89
:10566000062000E0072070474FF4A060FCF732FDF1
:10567000FEF7D0FD0220FCF729FB0120FCF726FBFA
:10568000FCF792FBFCF73AFBFCF77AFD4FF4FA309B
:1056900001F09CFF4FF4165001F044FF002141F649
:1056A0001F40FCF759FCFBF799FEFBF703FAFCF7E8
:1056B000E1F8FCF7ADFBFBF757FA902142F20F70CF
:1056C000FDF798F9FCF7F4FB14E00B48007820B9DB
:1056D000FBF71AF900F0E6FF01E0FBF755FB0120AC
:1056E0000649087000200649087000BF034800788A
:1056F0000028FBD1E9E70000060000202900002077
:105700002800002070B50446002624F00104184843
:1057100090F8240008B1002070BD1548807A10B9B7
:105720004FF0FF30F8E71248057C807A204010499E
:1057300008740846007CA04202D04FF0FF3600E01B
:10574000002614B90A48007D18B1012001F07CFE42
:1057500002E0002001F078FE3CB100F049FB20B1EE
:10576000034805744FF0FF30D6E73046D4E7000019
:10577000F800002001461148407A30B1012807D0D6
:10578000022808D003280CD108E0022008700BE0A2
:105790000420087008E00820087005E01020087058
:1057A00002E04FF0FF30704700BF0448C07C18B1E2
:1057B00008784006000E08700020F4E7F80000208A
:1057C00001461348407A30B1012808D002280AD097
:1057D000032810D10BE04FF4804008800EE041F622
:1057E0009C7008800AE04FF48050088006E04FF477
:1057F0000060088002E04FF0FF30704700BF0448AF
:10580000C07C10B10888401008800020F5E7000037
:10581000F800002001460248007C08700020704714
:10582000F800002001460F48007A30B1012807D067
:10583000022809D003280FD10AE0FA2008800EE0E0
:105840004FF4FA7008800AE04FF47A70088006E09E
:105850004FF4FA60088002E00020088000BF00BF1B
:1058600000207047F800002001460E48007A30B151
:10587000012807D0022808D003280CD108E00A48E4
:1058800008600BE00948086008E00948086005E086
:105890000848086002E04FF0FF30704700BF00206A
:1058A000FBE70000F80000200000034300008342F3
:1058B000333303423333834101461248C07A082808
:1058C00017D2DFE800F01704070A0D101318BC20E8
:1058D000088013E06220088010E02A2008800DE094
:1058E000142008800AE00A20088007E005200880CC
:1058F00004E000BF00BF0020088000BF00BF002000
:1059000070470000F80000200146064890F8240087
:1059100010B14FF0FF3070470248C0890880002066
:10592000F9E70000F80000201CB580208DF8000089
:10593000654A1268917C644A526810786B4601226D
:10594000FFF727FE10B14FF0FF301CBD6420FEF7BB
:1059500083FC00208DF800005B4A1268917C5A4A53
:10596000526810786B460122FFF713FE10B14FF01A
:10597000FF30EAE7544A1268917D534A5268107822
:105980006B460622FFF7CAFD10B14FF0FF30DCE78F
:105990009DF80500C007400F9DF8031001F00101BC
:1059A00040EA41009DF8011001F0010140EA0104C4
:1059B00094B1012C03D101214348C17431E0022C80
:1059C00003D100214048C1742BE021463FA0FAF7E3
:1059D00067FC4FF0FF30B8E73B4A1268D1783A4A8B
:1059E000526810786B460122FFF798FD10B14FF016
:1059F000FF30AAE79DF8000000F00F042CB93D48E5
:105A0000FAF74EFC4FF0FF309FE7042C06D13AA086
:105A1000FAF746FC01212C48C17402E000212A4813
:105A2000C174FF2128488172FF2027490872FF2195
:105A300025484172C1724FF6FF71C181FF21017487
:105A400081740121017380F82210002180F8231055
:105A5000417501751630016041608160163880F82B
:105A6000241080F82510C1844FF4FA6000F05CFC2B
:105A700010B14FF0FF3068E7022000F025FB10B1B5
:105A80004FF0FF3061E72A2000F0C8FC10B14FF062
:105A9000FF305AE7322000F003FD10B14FF0FF3025
:105AA00053E70020FFF72EFE10B14FF0FF304CE718
:105AB000002000F04BFB10B14FF0FF3045E7002015
:105AC00000F03CFD002040E7F8000020556E7375A3
:105AD00070706F7274656420736F6674776172653D
